{
	"Crowdfunding_final.sol": {
		"CrowdFunding": {
			"abi": [
				{
					"inputs": [
						{
							"internalType": "address",
							"name": "_token",
							"type": "address"
						}
					],
					"stateMutability": "nonpayable",
					"type": "constructor"
				},
				{
					"anonymous": false,
					"inputs": [
						{
							"indexed": false,
							"internalType": "uint256",
							"name": "id",
							"type": "uint256"
						}
					],
					"name": "Claim",
					"type": "event"
				},
				{
					"anonymous": false,
					"inputs": [
						{
							"indexed": false,
							"internalType": "uint256",
							"name": "id",
							"type": "uint256"
						},
						{
							"indexed": true,
							"internalType": "address",
							"name": "creator",
							"type": "address"
						},
						{
							"indexed": false,
							"internalType": "uint256",
							"name": "goal",
							"type": "uint256"
						},
						{
							"indexed": false,
							"internalType": "uint32",
							"name": "campaignTime",
							"type": "uint32"
						}
					],
					"name": "Launch",
					"type": "event"
				},
				{
					"anonymous": false,
					"inputs": [
						{
							"indexed": true,
							"internalType": "uint256",
							"name": "id",
							"type": "uint256"
						},
						{
							"indexed": true,
							"internalType": "address",
							"name": "caller",
							"type": "address"
						},
						{
							"indexed": false,
							"internalType": "uint256",
							"name": "amount",
							"type": "uint256"
						}
					],
					"name": "Pledge",
					"type": "event"
				},
				{
					"anonymous": false,
					"inputs": [
						{
							"indexed": false,
							"internalType": "uint256",
							"name": "id",
							"type": "uint256"
						},
						{
							"indexed": true,
							"internalType": "address",
							"name": "caller",
							"type": "address"
						},
						{
							"indexed": false,
							"internalType": "uint256",
							"name": "amount",
							"type": "uint256"
						}
					],
					"name": "Refund",
					"type": "event"
				},
				{
					"anonymous": false,
					"inputs": [
						{
							"indexed": true,
							"internalType": "address",
							"name": "caller",
							"type": "address"
						},
						{
							"indexed": false,
							"internalType": "uint256",
							"name": "random",
							"type": "uint256"
						},
						{
							"indexed": false,
							"internalType": "uint256",
							"name": "amount",
							"type": "uint256"
						}
					],
					"name": "Reward",
					"type": "event"
				},
				{
					"inputs": [
						{
							"internalType": "uint256",
							"name": "",
							"type": "uint256"
						}
					],
					"name": "campaigns",
					"outputs": [
						{
							"internalType": "address",
							"name": "creator",
							"type": "address"
						},
						{
							"internalType": "uint256",
							"name": "goal",
							"type": "uint256"
						},
						{
							"internalType": "uint256",
							"name": "pledged",
							"type": "uint256"
						},
						{
							"internalType": "uint256",
							"name": "startAt",
							"type": "uint256"
						},
						{
							"internalType": "uint256",
							"name": "endAt",
							"type": "uint256"
						},
						{
							"internalType": "bool",
							"name": "claimed",
							"type": "bool"
						}
					],
					"stateMutability": "view",
					"type": "function"
				},
				{
					"inputs": [
						{
							"internalType": "uint256",
							"name": "_id",
							"type": "uint256"
						}
					],
					"name": "claim",
					"outputs": [],
					"stateMutability": "nonpayable",
					"type": "function"
				},
				{
					"inputs": [],
					"name": "count",
					"outputs": [
						{
							"internalType": "uint256",
							"name": "",
							"type": "uint256"
						}
					],
					"stateMutability": "view",
					"type": "function"
				},
				{
					"inputs": [
						{
							"internalType": "uint256",
							"name": "_goal",
							"type": "uint256"
						},
						{
							"internalType": "uint32",
							"name": "_campaignTime",
							"type": "uint32"
						}
					],
					"name": "launch",
					"outputs": [],
					"stateMutability": "nonpayable",
					"type": "function"
				},
				{
					"inputs": [
						{
							"internalType": "uint256",
							"name": "_id",
							"type": "uint256"
						},
						{
							"internalType": "uint256",
							"name": "_amount",
							"type": "uint256"
						}
					],
					"name": "pledge",
					"outputs": [],
					"stateMutability": "nonpayable",
					"type": "function"
				},
				{
					"inputs": [
						{
							"internalType": "uint256",
							"name": "",
							"type": "uint256"
						},
						{
							"internalType": "address",
							"name": "",
							"type": "address"
						}
					],
					"name": "pledgedAmount",
					"outputs": [
						{
							"internalType": "uint256",
							"name": "",
							"type": "uint256"
						}
					],
					"stateMutability": "view",
					"type": "function"
				},
				{
					"inputs": [
						{
							"internalType": "uint256",
							"name": "_id",
							"type": "uint256"
						}
					],
					"name": "refund",
					"outputs": [],
					"stateMutability": "nonpayable",
					"type": "function"
				},
				{
					"inputs": [],
					"name": "token",
					"outputs": [
						{
							"internalType": "contract ERC20",
							"name": "",
							"type": "address"
						}
					],
					"stateMutability": "view",
					"type": "function"
				}
			],
			"devdoc": {
				"kind": "dev",
				"methods": {},
				"version": 1
			},
			"evm": {
				"assembly": "    /* \"Crowdfunding_final.sol\":87:4970  contract CrowdFunding {... */\n  mstore(0x40, 0xa0)\n    /* \"Crowdfunding_final.sol\":1436:1437  0 */\n  0x00\n    /* \"Crowdfunding_final.sol\":1419:1437  uint randNonce = 0 */\n  0x03\n  sstore\n    /* \"Crowdfunding_final.sol\":1446:1514  constructor(address _token) {... */\n  callvalue\n  dup1\n  iszero\n  tag_1\n  jumpi\n  0x00\n  dup1\n  revert\ntag_1:\n  pop\n  mload(0x40)\n  sub(codesize, bytecodeSize)\n  dup1\n  bytecodeSize\n  dup4\n  codecopy\n  dup2\n  dup2\n  add\n  0x40\n  mstore\n  dup2\n  add\n  swap1\n  tag_2\n  swap2\n  swap1\n  tag_3\n  jump\t// in\ntag_2:\n    /* \"Crowdfunding_final.sol\":1499:1505  _token */\n  dup1\n    /* \"Crowdfunding_final.sol\":1485:1506  token = ERC20(_token) */\n  0xffffffffffffffffffffffffffffffffffffffff\n  and\n  0x80\n  dup2\n  0xffffffffffffffffffffffffffffffffffffffff\n  and\n  dup2\n  mstore\n  pop\n  pop\n    /* \"Crowdfunding_final.sol\":1446:1514  constructor(address _token) {... */\n  pop\n    /* \"Crowdfunding_final.sol\":87:4970  contract CrowdFunding {... */\n  jump(tag_6)\n    /* \"#utility.yul\":88:205   */\ntag_8:\n    /* \"#utility.yul\":197:198   */\n  0x00\n    /* \"#utility.yul\":194:195   */\n  dup1\n    /* \"#utility.yul\":187:199   */\n  revert\n    /* \"#utility.yul\":334:460   */\ntag_10:\n    /* \"#utility.yul\":371:378   */\n  0x00\n    /* \"#utility.yul\":411:453   */\n  0xffffffffffffffffffffffffffffffffffffffff\n    /* \"#utility.yul\":404:409   */\n  dup3\n    /* \"#utility.yul\":400:454   */\n  and\n    /* \"#utility.yul\":389:454   */\n  swap1\n  pop\n    /* \"#utility.yul\":334:460   */\n  swap2\n  swap1\n  pop\n  jump\t// out\n    /* \"#utility.yul\":466:562   */\ntag_11:\n    /* \"#utility.yul\":503:510   */\n  0x00\n    /* \"#utility.yul\":532:556   */\n  tag_20\n    /* \"#utility.yul\":550:555   */\n  dup3\n    /* \"#utility.yul\":532:556   */\n  tag_10\n  jump\t// in\ntag_20:\n    /* \"#utility.yul\":521:556   */\n  swap1\n  pop\n    /* \"#utility.yul\":466:562   */\n  swap2\n  swap1\n  pop\n  jump\t// out\n    /* \"#utility.yul\":568:690   */\ntag_12:\n    /* \"#utility.yul\":641:665   */\n  tag_22\n    /* \"#utility.yul\":659:664   */\n  dup2\n    /* \"#utility.yul\":641:665   */\n  tag_11\n  jump\t// in\ntag_22:\n    /* \"#utility.yul\":634:639   */\n  dup2\n    /* \"#utility.yul\":631:666   */\n  eq\n    /* \"#utility.yul\":621:684   */\n  tag_23\n  jumpi\n    /* \"#utility.yul\":680:681   */\n  0x00\n    /* \"#utility.yul\":677:678   */\n  dup1\n    /* \"#utility.yul\":670:682   */\n  revert\n    /* \"#utility.yul\":621:684   */\ntag_23:\n    /* \"#utility.yul\":568:690   */\n  pop\n  jump\t// out\n    /* \"#utility.yul\":696:839   */\ntag_13:\n    /* \"#utility.yul\":753:758   */\n  0x00\n    /* \"#utility.yul\":784:790   */\n  dup2\n    /* \"#utility.yul\":778:791   */\n  mload\n    /* \"#utility.yul\":769:791   */\n  swap1\n  pop\n    /* \"#utility.yul\":800:833   */\n  tag_25\n    /* \"#utility.yul\":827:832   */\n  dup2\n    /* \"#utility.yul\":800:833   */\n  tag_12\n  jump\t// in\ntag_25:\n    /* \"#utility.yul\":696:839   */\n  swap3\n  swap2\n  pop\n  pop\n  jump\t// out\n    /* \"#utility.yul\":845:1196   */\ntag_3:\n    /* \"#utility.yul\":915:921   */\n  0x00\n    /* \"#utility.yul\":964:966   */\n  0x20\n    /* \"#utility.yul\":952:961   */\n  dup3\n    /* \"#utility.yul\":943:950   */\n  dup5\n    /* \"#utility.yul\":939:962   */\n  sub\n    /* \"#utility.yul\":935:967   */\n  slt\n    /* \"#utility.yul\":932:1051   */\n  iszero\n  tag_27\n  jumpi\n    /* \"#utility.yul\":970:1049   */\n  tag_28\n  tag_8\n  jump\t// in\ntag_28:\n    /* \"#utility.yul\":932:1051   */\ntag_27:\n    /* \"#utility.yul\":1090:1091   */\n  0x00\n    /* \"#utility.yul\":1115:1179   */\n  tag_29\n    /* \"#utility.yul\":1171:1178   */\n  dup5\n    /* \"#utility.yul\":1162:1168   */\n  dup3\n    /* \"#utility.yul\":1151:1160   */\n  dup6\n    /* \"#utility.yul\":1147:1169   */\n  add\n    /* \"#utility.yul\":1115:1179   */\n  tag_13\n  jump\t// in\ntag_29:\n    /* \"#utility.yul\":1105:1179   */\n  swap2\n  pop\n    /* \"#utility.yul\":1061:1189   */\n  pop\n    /* \"#utility.yul\":845:1196   */\n  swap3\n  swap2\n  pop\n  pop\n  jump\t// out\n    /* \"Crowdfunding_final.sol\":87:4970  contract CrowdFunding {... */\ntag_6:\n  mload(0x80)\n  codecopy(0x00, dataOffset(sub_0), dataSize(sub_0))\n  0x00\n  assignImmutable(\"0x32da71dbd53bc029835bc5ecdd3e688035cc92bb61b1811d1685e67ba974e19f\")\n  return(0x00, dataSize(sub_0))\nstop\n\nsub_0: assembly {\n        /* \"Crowdfunding_final.sol\":87:4970  contract CrowdFunding {... */\n      mstore(0x40, 0x80)\n      callvalue\n      dup1\n      iszero\n      tag_1\n      jumpi\n      0x00\n      dup1\n      revert\n    tag_1:\n      pop\n      jumpi(tag_2, lt(calldatasize, 0x04))\n      shr(0xe0, calldataload(0x00))\n      dup1\n      0x941e9552\n      gt\n      tag_11\n      jumpi\n      dup1\n      0x941e9552\n      eq\n      tag_7\n      jumpi\n      dup1\n      0xaa4fb63a\n      eq\n      tag_8\n      jumpi\n      dup1\n      0xfc0c546a\n      eq\n      tag_9\n      jumpi\n      dup1\n      0xfde327be\n      eq\n      tag_10\n      jumpi\n      jump(tag_2)\n    tag_11:\n      dup1\n      0x06661abd\n      eq\n      tag_3\n      jumpi\n      dup1\n      0x141961bc\n      eq\n      tag_4\n      jumpi\n      dup1\n      0x278ecde1\n      eq\n      tag_5\n      jumpi\n      dup1\n      0x379607f5\n      eq\n      tag_6\n      jumpi\n    tag_2:\n      0x00\n      dup1\n      revert\n        /* \"Crowdfunding_final.sol\":1177:1194  uint public count */\n    tag_3:\n      tag_12\n      tag_13\n      jump\t// in\n    tag_12:\n      mload(0x40)\n      tag_14\n      swap2\n      swap1\n      tag_15\n      jump\t// in\n    tag_14:\n      mload(0x40)\n      dup1\n      swap2\n      sub\n      swap1\n      return\n        /* \"Crowdfunding_final.sol\":1237:1279  mapping(uint => Campaign) public campaigns */\n    tag_4:\n      tag_16\n      0x04\n      dup1\n      calldatasize\n      sub\n      dup2\n      add\n      swap1\n      tag_17\n      swap2\n      swap1\n      tag_18\n      jump\t// in\n    tag_17:\n      tag_19\n      jump\t// in\n    tag_16:\n      mload(0x40)\n      tag_20\n      swap7\n      swap6\n      swap5\n      swap4\n      swap3\n      swap2\n      swap1\n      tag_21\n      jump\t// in\n    tag_20:\n      mload(0x40)\n      dup1\n      swap2\n      sub\n      swap1\n      return\n        /* \"Crowdfunding_final.sol\":4511:4967  function refund(uint _id) external {... */\n    tag_5:\n      tag_22\n      0x04\n      dup1\n      calldatasize\n      sub\n      dup2\n      add\n      swap1\n      tag_23\n      swap2\n      swap1\n      tag_18\n      jump\t// in\n    tag_23:\n      tag_24\n      jump\t// in\n    tag_22:\n      stop\n        /* \"Crowdfunding_final.sol\":3966:4503  function claim(uint _id) external {... */\n    tag_6:\n      tag_25\n      0x04\n      dup1\n      calldatasize\n      sub\n      dup2\n      add\n      swap1\n      tag_26\n      swap2\n      swap1\n      tag_18\n      jump\t// in\n    tag_26:\n      tag_27\n      jump\t// in\n    tag_25:\n      stop\n        /* \"Crowdfunding_final.sol\":1522:2246  function launch(uint _goal, uint32 _campaignTime) external {... */\n    tag_7:\n      tag_28\n      0x04\n      dup1\n      calldatasize\n      sub\n      dup2\n      add\n      swap1\n      tag_29\n      swap2\n      swap1\n      tag_30\n      jump\t// in\n    tag_29:\n      tag_31\n      jump\t// in\n    tag_28:\n      stop\n        /* \"Crowdfunding_final.sol\":1348:1410  mapping(uint => mapping(address => uint)) public pledgedAmount */\n    tag_8:\n      tag_32\n      0x04\n      dup1\n      calldatasize\n      sub\n      dup2\n      add\n      swap1\n      tag_33\n      swap2\n      swap1\n      tag_34\n      jump\t// in\n    tag_33:\n      tag_35\n      jump\t// in\n    tag_32:\n      mload(0x40)\n      tag_36\n      swap2\n      swap1\n      tag_15\n      jump\t// in\n    tag_36:\n      mload(0x40)\n      dup1\n      swap2\n      sub\n      swap1\n      return\n        /* \"Crowdfunding_final.sol\":1042:1070  ERC20 public immutable token */\n    tag_9:\n      tag_37\n      tag_38\n      jump\t// in\n    tag_37:\n      mload(0x40)\n      tag_39\n      swap2\n      swap1\n      tag_40\n      jump\t// in\n    tag_39:\n      mload(0x40)\n      dup1\n      swap2\n      sub\n      swap1\n      return\n        /* \"Crowdfunding_final.sol\":2552:3582  function pledge(uint _id, uint _amount) external {... */\n    tag_10:\n      tag_41\n      0x04\n      dup1\n      calldatasize\n      sub\n      dup2\n      add\n      swap1\n      tag_42\n      swap2\n      swap1\n      tag_43\n      jump\t// in\n    tag_42:\n      tag_44\n      jump\t// in\n    tag_41:\n      stop\n        /* \"Crowdfunding_final.sol\":1177:1194  uint public count */\n    tag_13:\n      sload(0x00)\n      dup2\n      jump\t// out\n        /* \"Crowdfunding_final.sol\":1237:1279  mapping(uint => Campaign) public campaigns */\n    tag_19:\n      mstore(0x20, 0x01)\n      dup1\n      0x00\n      mstore\n      keccak256(0x00, 0x40)\n      0x00\n      swap2\n      pop\n      swap1\n      pop\n      dup1\n      0x00\n      add\n      0x00\n      swap1\n      sload\n      swap1\n      0x0100\n      exp\n      swap1\n      div\n      0xffffffffffffffffffffffffffffffffffffffff\n      and\n      swap1\n      dup1\n      0x01\n      add\n      sload\n      swap1\n      dup1\n      0x02\n      add\n      sload\n      swap1\n      dup1\n      0x03\n      add\n      sload\n      swap1\n      dup1\n      0x04\n      add\n      sload\n      swap1\n      dup1\n      0x05\n      add\n      0x00\n      swap1\n      sload\n      swap1\n      0x0100\n      exp\n      swap1\n      div\n      0xff\n      and\n      swap1\n      pop\n      dup7\n      jump\t// out\n        /* \"Crowdfunding_final.sol\":4511:4967  function refund(uint _id) external {... */\n    tag_24:\n        /* \"Crowdfunding_final.sol\":4557:4581  Campaign memory campaign */\n      0x00\n        /* \"Crowdfunding_final.sol\":4584:4593  campaigns */\n      0x01\n        /* \"Crowdfunding_final.sol\":4584:4598  campaigns[_id] */\n      0x00\n        /* \"Crowdfunding_final.sol\":4594:4597  _id */\n      dup4\n        /* \"Crowdfunding_final.sol\":4584:4598  campaigns[_id] */\n      dup2\n      mstore\n      0x20\n      add\n      swap1\n      dup2\n      mstore\n      0x20\n      add\n      0x00\n      keccak256\n        /* \"Crowdfunding_final.sol\":4557:4598  Campaign memory campaign = campaigns[_id] */\n      mload(0x40)\n      dup1\n      0xc0\n      add\n      0x40\n      mstore\n      swap1\n      dup2\n      0x00\n      dup3\n      add\n      0x00\n      swap1\n      sload\n      swap1\n      0x0100\n      exp\n      swap1\n      div\n      0xffffffffffffffffffffffffffffffffffffffff\n      and\n      0xffffffffffffffffffffffffffffffffffffffff\n      and\n      0xffffffffffffffffffffffffffffffffffffffff\n      and\n      dup2\n      mstore\n      0x20\n      add\n      0x01\n      dup3\n      add\n      sload\n      dup2\n      mstore\n      0x20\n      add\n      0x02\n      dup3\n      add\n      sload\n      dup2\n      mstore\n      0x20\n      add\n      0x03\n      dup3\n      add\n      sload\n      dup2\n      mstore\n      0x20\n      add\n      0x04\n      dup3\n      add\n      sload\n      dup2\n      mstore\n      0x20\n      add\n      0x05\n      dup3\n      add\n      0x00\n      swap1\n      sload\n      swap1\n      0x0100\n      exp\n      swap1\n      div\n      0xff\n      and\n      iszero\n      iszero\n      iszero\n      iszero\n      dup2\n      mstore\n      pop\n      pop\n      swap1\n      pop\n        /* \"Crowdfunding_final.sol\":4635:4643  campaign */\n      dup1\n        /* \"Crowdfunding_final.sol\":4635:4649  campaign.endAt */\n      0x80\n      add\n      mload\n        /* \"Crowdfunding_final.sol\":4617:4632  block.timestamp */\n      timestamp\n        /* \"Crowdfunding_final.sol\":4617:4649  block.timestamp > campaign.endAt */\n      gt\n        /* \"Crowdfunding_final.sol\":4609:4672  require(block.timestamp > campaign.endAt, \"Campaign not ended\") */\n      tag_46\n      jumpi\n      mload(0x40)\n      0x08c379a000000000000000000000000000000000000000000000000000000000\n      dup2\n      mstore\n      0x04\n      add\n      tag_47\n      swap1\n      tag_48\n      jump\t// in\n    tag_47:\n      mload(0x40)\n      dup1\n      swap2\n      sub\n      swap1\n      revert\n    tag_46:\n        /* \"Crowdfunding_final.sol\":4710:4718  campaign */\n      dup1\n        /* \"Crowdfunding_final.sol\":4710:4723  campaign.goal */\n      0x20\n      add\n      mload\n        /* \"Crowdfunding_final.sol\":4691:4699  campaign */\n      dup2\n        /* \"Crowdfunding_final.sol\":4691:4707  campaign.pledged */\n      0x40\n      add\n      mload\n        /* \"Crowdfunding_final.sol\":4691:4723  campaign.pledged < campaign.goal */\n      lt\n        /* \"Crowdfunding_final.sol\":4683:4772  require(campaign.pledged < campaign.goal, \"The goal has been reached so you can't claim\") */\n      tag_49\n      jumpi\n      mload(0x40)\n      0x08c379a000000000000000000000000000000000000000000000000000000000\n      dup2\n      mstore\n      0x04\n      add\n      tag_50\n      swap1\n      tag_51\n      jump\t// in\n    tag_50:\n      mload(0x40)\n      dup1\n      swap2\n      sub\n      swap1\n      revert\n    tag_49:\n        /* \"Crowdfunding_final.sol\":4785:4793  uint bal */\n      0x00\n        /* \"Crowdfunding_final.sol\":4796:4809  pledgedAmount */\n      0x02\n        /* \"Crowdfunding_final.sol\":4796:4814  pledgedAmount[_id] */\n      0x00\n        /* \"Crowdfunding_final.sol\":4810:4813  _id */\n      dup5\n        /* \"Crowdfunding_final.sol\":4796:4814  pledgedAmount[_id] */\n      dup2\n      mstore\n      0x20\n      add\n      swap1\n      dup2\n      mstore\n      0x20\n      add\n      0x00\n      keccak256\n        /* \"Crowdfunding_final.sol\":4796:4826  pledgedAmount[_id][msg.sender] */\n      0x00\n        /* \"Crowdfunding_final.sol\":4815:4825  msg.sender */\n      caller\n        /* \"Crowdfunding_final.sol\":4796:4826  pledgedAmount[_id][msg.sender] */\n      0xffffffffffffffffffffffffffffffffffffffff\n      and\n      0xffffffffffffffffffffffffffffffffffffffff\n      and\n      dup2\n      mstore\n      0x20\n      add\n      swap1\n      dup2\n      mstore\n      0x20\n      add\n      0x00\n      keccak256\n      sload\n        /* \"Crowdfunding_final.sol\":4785:4826  uint bal = pledgedAmount[_id][msg.sender] */\n      swap1\n      pop\n        /* \"Crowdfunding_final.sol\":4870:4871  0 */\n      0x00\n        /* \"Crowdfunding_final.sol\":4837:4850  pledgedAmount */\n      0x02\n        /* \"Crowdfunding_final.sol\":4837:4855  pledgedAmount[_id] */\n      0x00\n        /* \"Crowdfunding_final.sol\":4851:4854  _id */\n      dup6\n        /* \"Crowdfunding_final.sol\":4837:4855  pledgedAmount[_id] */\n      dup2\n      mstore\n      0x20\n      add\n      swap1\n      dup2\n      mstore\n      0x20\n      add\n      0x00\n      keccak256\n        /* \"Crowdfunding_final.sol\":4837:4867  pledgedAmount[_id][msg.sender] */\n      0x00\n        /* \"Crowdfunding_final.sol\":4856:4866  msg.sender */\n      caller\n        /* \"Crowdfunding_final.sol\":4837:4867  pledgedAmount[_id][msg.sender] */\n      0xffffffffffffffffffffffffffffffffffffffff\n      and\n      0xffffffffffffffffffffffffffffffffffffffff\n      and\n      dup2\n      mstore\n      0x20\n      add\n      swap1\n      dup2\n      mstore\n      0x20\n      add\n      0x00\n      keccak256\n        /* \"Crowdfunding_final.sol\":4837:4871  pledgedAmount[_id][msg.sender] = 0 */\n      dup2\n      swap1\n      sstore\n      pop\n        /* \"Crowdfunding_final.sol\":4882:4887  token */\n      immutable(\"0x32da71dbd53bc029835bc5ecdd3e688035cc92bb61b1811d1685e67ba974e19f\")\n        /* \"Crowdfunding_final.sol\":4882:4896  token.transfer */\n      0xffffffffffffffffffffffffffffffffffffffff\n      and\n      0xa9059cbb\n        /* \"Crowdfunding_final.sol\":4897:4907  msg.sender */\n      caller\n        /* \"Crowdfunding_final.sol\":4909:4912  bal */\n      dup4\n        /* \"Crowdfunding_final.sol\":4882:4913  token.transfer(msg.sender, bal) */\n      mload(0x40)\n      dup4\n      0xffffffff\n      and\n      0xe0\n      shl\n      dup2\n      mstore\n      0x04\n      add\n      tag_52\n      swap3\n      swap2\n      swap1\n      tag_53\n      jump\t// in\n    tag_52:\n      0x20\n      mload(0x40)\n      dup1\n      dup4\n      sub\n      dup2\n      0x00\n      dup8\n      gas\n      call\n      iszero\n      dup1\n      iszero\n      tag_55\n      jumpi\n      returndatasize\n      0x00\n      dup1\n      returndatacopy\n      revert(0x00, returndatasize)\n    tag_55:\n      pop\n      pop\n      pop\n      pop\n      mload(0x40)\n      returndatasize\n      not(0x1f)\n      0x1f\n      dup3\n      add\n      and\n      dup3\n      add\n      dup1\n      0x40\n      mstore\n      pop\n      dup2\n      add\n      swap1\n      tag_56\n      swap2\n      swap1\n      tag_57\n      jump\t// in\n    tag_56:\n      pop\n        /* \"Crowdfunding_final.sol\":4943:4953  msg.sender */\n      caller\n        /* \"Crowdfunding_final.sol\":4931:4959  Refund(_id, msg.sender, bal) */\n      0xffffffffffffffffffffffffffffffffffffffff\n      and\n      0x21e12a7cad0da5928167e1084ea4d5fdf8d9af66657a2543a9ac76a0ca081477\n        /* \"Crowdfunding_final.sol\":4938:4941  _id */\n      dup5\n        /* \"Crowdfunding_final.sol\":4955:4958  bal */\n      dup4\n        /* \"Crowdfunding_final.sol\":4931:4959  Refund(_id, msg.sender, bal) */\n      mload(0x40)\n      tag_58\n      swap3\n      swap2\n      swap1\n      tag_59\n      jump\t// in\n    tag_58:\n      mload(0x40)\n      dup1\n      swap2\n      sub\n      swap1\n      log2\n        /* \"Crowdfunding_final.sol\":4546:4967  {... */\n      pop\n      pop\n        /* \"Crowdfunding_final.sol\":4511:4967  function refund(uint _id) external {... */\n      pop\n      jump\t// out\n        /* \"Crowdfunding_final.sol\":3966:4503  function claim(uint _id) external {... */\n    tag_27:\n        /* \"Crowdfunding_final.sol\":4011:4036  Campaign storage campaign */\n      0x00\n        /* \"Crowdfunding_final.sol\":4039:4048  campaigns */\n      0x01\n        /* \"Crowdfunding_final.sol\":4039:4053  campaigns[_id] */\n      0x00\n        /* \"Crowdfunding_final.sol\":4049:4052  _id */\n      dup4\n        /* \"Crowdfunding_final.sol\":4039:4053  campaigns[_id] */\n      dup2\n      mstore\n      0x20\n      add\n      swap1\n      dup2\n      mstore\n      0x20\n      add\n      0x00\n      keccak256\n        /* \"Crowdfunding_final.sol\":4011:4053  Campaign storage campaign = campaigns[_id] */\n      swap1\n      pop\n        /* \"Crowdfunding_final.sol\":4092:4102  msg.sender */\n      caller\n        /* \"Crowdfunding_final.sol\":4072:4102  campaign.creator == msg.sender */\n      0xffffffffffffffffffffffffffffffffffffffff\n      and\n        /* \"Crowdfunding_final.sol\":4072:4080  campaign */\n      dup2\n        /* \"Crowdfunding_final.sol\":4072:4088  campaign.creator */\n      0x00\n      add\n      0x00\n      swap1\n      sload\n      swap1\n      0x0100\n      exp\n      swap1\n      div\n      0xffffffffffffffffffffffffffffffffffffffff\n      and\n        /* \"Crowdfunding_final.sol\":4072:4102  campaign.creator == msg.sender */\n      0xffffffffffffffffffffffffffffffffffffffff\n      and\n      eq\n        /* \"Crowdfunding_final.sol\":4064:4145  require(campaign.creator == msg.sender, \"You're not the creator of the campaign\") */\n      tag_61\n      jumpi\n      mload(0x40)\n      0x08c379a000000000000000000000000000000000000000000000000000000000\n      dup2\n      mstore\n      0x04\n      add\n      tag_62\n      swap1\n      tag_63\n      jump\t// in\n    tag_62:\n      mload(0x40)\n      dup1\n      swap2\n      sub\n      swap1\n      revert\n    tag_61:\n        /* \"Crowdfunding_final.sol\":4182:4190  campaign */\n      dup1\n        /* \"Crowdfunding_final.sol\":4182:4196  campaign.endAt */\n      0x04\n      add\n      sload\n        /* \"Crowdfunding_final.sol\":4164:4179  block.timestamp */\n      timestamp\n        /* \"Crowdfunding_final.sol\":4164:4196  block.timestamp > campaign.endAt */\n      gt\n        /* \"Crowdfunding_final.sol\":4156:4219  require(block.timestamp > campaign.endAt, \"Campaign not ended\") */\n      tag_64\n      jumpi\n      mload(0x40)\n      0x08c379a000000000000000000000000000000000000000000000000000000000\n      dup2\n      mstore\n      0x04\n      add\n      tag_65\n      swap1\n      tag_48\n      jump\t// in\n    tag_65:\n      mload(0x40)\n      dup1\n      swap2\n      sub\n      swap1\n      revert\n    tag_64:\n        /* \"Crowdfunding_final.sol\":4258:4266  campaign */\n      dup1\n        /* \"Crowdfunding_final.sol\":4258:4271  campaign.goal */\n      0x01\n      add\n      sload\n        /* \"Crowdfunding_final.sol\":4238:4246  campaign */\n      dup2\n        /* \"Crowdfunding_final.sol\":4238:4254  campaign.pledged */\n      0x02\n      add\n      sload\n        /* \"Crowdfunding_final.sol\":4238:4271  campaign.pledged >= campaign.goal */\n      lt\n      iszero\n        /* \"Crowdfunding_final.sol\":4230:4305  require(campaign.pledged >= campaign.goal, \"The goal has not been reached\") */\n      tag_66\n      jumpi\n      mload(0x40)\n      0x08c379a000000000000000000000000000000000000000000000000000000000\n      dup2\n      mstore\n      0x04\n      add\n      tag_67\n      swap1\n      tag_68\n      jump\t// in\n    tag_67:\n      mload(0x40)\n      dup1\n      swap2\n      sub\n      swap1\n      revert\n    tag_66:\n        /* \"Crowdfunding_final.sol\":4325:4333  campaign */\n      dup1\n        /* \"Crowdfunding_final.sol\":4325:4341  campaign.claimed */\n      0x05\n      add\n      0x00\n      swap1\n      sload\n      swap1\n      0x0100\n      exp\n      swap1\n      div\n      0xff\n      and\n        /* \"Crowdfunding_final.sol\":4324:4341  !campaign.claimed */\n      iszero\n        /* \"Crowdfunding_final.sol\":4316:4370  require(!campaign.claimed, \"Campaign already claimed\") */\n      tag_69\n      jumpi\n      mload(0x40)\n      0x08c379a000000000000000000000000000000000000000000000000000000000\n      dup2\n      mstore\n      0x04\n      add\n      tag_70\n      swap1\n      tag_71\n      jump\t// in\n    tag_70:\n      mload(0x40)\n      dup1\n      swap2\n      sub\n      swap1\n      revert\n    tag_69:\n        /* \"Crowdfunding_final.sol\":4402:4406  true */\n      0x01\n        /* \"Crowdfunding_final.sol\":4383:4391  campaign */\n      dup2\n        /* \"Crowdfunding_final.sol\":4383:4399  campaign.claimed */\n      0x05\n      add\n      0x00\n        /* \"Crowdfunding_final.sol\":4383:4406  campaign.claimed = true */\n      0x0100\n      exp\n      dup2\n      sload\n      dup2\n      0xff\n      mul\n      not\n      and\n      swap1\n      dup4\n      iszero\n      iszero\n      mul\n      or\n      swap1\n      sstore\n      pop\n        /* \"Crowdfunding_final.sol\":4417:4422  token */\n      immutable(\"0x32da71dbd53bc029835bc5ecdd3e688035cc92bb61b1811d1685e67ba974e19f\")\n        /* \"Crowdfunding_final.sol\":4417:4431  token.transfer */\n      0xffffffffffffffffffffffffffffffffffffffff\n      and\n      0xa9059cbb\n        /* \"Crowdfunding_final.sol\":4432:4440  campaign */\n      dup3\n        /* \"Crowdfunding_final.sol\":4432:4448  campaign.creator */\n      0x00\n      add\n      0x00\n      swap1\n      sload\n      swap1\n      0x0100\n      exp\n      swap1\n      div\n      0xffffffffffffffffffffffffffffffffffffffff\n      and\n        /* \"Crowdfunding_final.sol\":4450:4458  campaign */\n      dup4\n        /* \"Crowdfunding_final.sol\":4450:4466  campaign.pledged */\n      0x02\n      add\n      sload\n        /* \"Crowdfunding_final.sol\":4417:4467  token.transfer(campaign.creator, campaign.pledged) */\n      mload(0x40)\n      dup4\n      0xffffffff\n      and\n      0xe0\n      shl\n      dup2\n      mstore\n      0x04\n      add\n      tag_72\n      swap3\n      swap2\n      swap1\n      tag_53\n      jump\t// in\n    tag_72:\n      0x20\n      mload(0x40)\n      dup1\n      dup4\n      sub\n      dup2\n      0x00\n      dup8\n      gas\n      call\n      iszero\n      dup1\n      iszero\n      tag_74\n      jumpi\n      returndatasize\n      0x00\n      dup1\n      returndatacopy\n      revert(0x00, returndatasize)\n    tag_74:\n      pop\n      pop\n      pop\n      pop\n      mload(0x40)\n      returndatasize\n      not(0x1f)\n      0x1f\n      dup3\n      add\n      and\n      dup3\n      add\n      dup1\n      0x40\n      mstore\n      pop\n      dup2\n      add\n      swap1\n      tag_75\n      swap2\n      swap1\n      tag_57\n      jump\t// in\n    tag_75:\n      pop\n        /* \"Crowdfunding_final.sol\":4485:4495  Claim(_id) */\n      0x7bb2b3c10797baccb6f8c4791f1edd6ca2f0d028ee0eda64b01a9a57e3a653f7\n        /* \"Crowdfunding_final.sol\":4491:4494  _id */\n      dup3\n        /* \"Crowdfunding_final.sol\":4485:4495  Claim(_id) */\n      mload(0x40)\n      tag_76\n      swap2\n      swap1\n      tag_15\n      jump\t// in\n    tag_76:\n      mload(0x40)\n      dup1\n      swap2\n      sub\n      swap1\n      log1\n        /* \"Crowdfunding_final.sol\":4000:4503  {... */\n      pop\n        /* \"Crowdfunding_final.sol\":3966:4503  function claim(uint _id) external {... */\n      pop\n      jump\t// out\n        /* \"Crowdfunding_final.sol\":1522:2246  function launch(uint _goal, uint32 _campaignTime) external {... */\n    tag_31:\n        /* \"Crowdfunding_final.sol\":1813:1814  1 */\n      0x01\n        /* \"Crowdfunding_final.sol\":1804:1809  count */\n      0x00\n      dup1\n        /* \"Crowdfunding_final.sol\":1804:1814  count += 1 */\n      dup3\n      dup3\n      sload\n      tag_78\n      swap2\n      swap1\n      tag_79\n      jump\t// in\n    tag_78:\n      swap3\n      pop\n      pop\n      dup2\n      swap1\n      sstore\n      pop\n        /* \"Crowdfunding_final.sol\":1844:2105  Campaign({... */\n      mload(0x40)\n      dup1\n      0xc0\n      add\n      0x40\n      mstore\n      dup1\n        /* \"Crowdfunding_final.sol\":1877:1887  msg.sender */\n      caller\n        /* \"Crowdfunding_final.sol\":1844:2105  Campaign({... */\n      0xffffffffffffffffffffffffffffffffffffffff\n      and\n      dup2\n      mstore\n      0x20\n      add\n        /* \"Crowdfunding_final.sol\":1908:1913  _goal */\n      dup4\n        /* \"Crowdfunding_final.sol\":1844:2105  Campaign({... */\n      dup2\n      mstore\n      0x20\n      add\n        /* \"Crowdfunding_final.sol\":1937:1938  0 */\n      0x00\n        /* \"Crowdfunding_final.sol\":1844:2105  Campaign({... */\n      dup2\n      mstore\n      0x20\n      add\n        /* \"Crowdfunding_final.sol\":1996:2011  block.timestamp */\n      timestamp\n        /* \"Crowdfunding_final.sol\":1844:2105  Campaign({... */\n      dup2\n      mstore\n      0x20\n      add\n        /* \"Crowdfunding_final.sol\":2051:2064  _campaignTime */\n      dup3\n        /* \"Crowdfunding_final.sol\":2033:2064  block.timestamp + _campaignTime */\n      0xffffffff\n      and\n        /* \"Crowdfunding_final.sol\":2033:2048  block.timestamp */\n      timestamp\n        /* \"Crowdfunding_final.sol\":2033:2064  block.timestamp + _campaignTime */\n      tag_80\n      swap2\n      swap1\n      tag_79\n      jump\t// in\n    tag_80:\n        /* \"Crowdfunding_final.sol\":1844:2105  Campaign({... */\n      dup2\n      mstore\n      0x20\n      add\n        /* \"Crowdfunding_final.sol\":2088:2093  false */\n      0x00\n        /* \"Crowdfunding_final.sol\":1844:2105  Campaign({... */\n      iszero\n      iszero\n      dup2\n      mstore\n      pop\n        /* \"Crowdfunding_final.sol\":1825:1834  campaigns */\n      0x01\n        /* \"Crowdfunding_final.sol\":1825:1841  campaigns[count] */\n      0x00\n        /* \"Crowdfunding_final.sol\":1835:1840  count */\n      dup1\n      sload\n        /* \"Crowdfunding_final.sol\":1825:1841  campaigns[count] */\n      dup2\n      mstore\n      0x20\n      add\n      swap1\n      dup2\n      mstore\n      0x20\n      add\n      0x00\n      keccak256\n        /* \"Crowdfunding_final.sol\":1825:2105  campaigns[count] = Campaign({... */\n      0x00\n      dup3\n      add\n      mload\n      dup2\n      0x00\n      add\n      exp(0x0100, 0x00)\n      dup2\n      sload\n      dup2\n      0xffffffffffffffffffffffffffffffffffffffff\n      mul\n      not\n      and\n      swap1\n      dup4\n      0xffffffffffffffffffffffffffffffffffffffff\n      and\n      mul\n      or\n      swap1\n      sstore\n      pop\n      0x20\n      dup3\n      add\n      mload\n      dup2\n      0x01\n      add\n      sstore\n      0x40\n      dup3\n      add\n      mload\n      dup2\n      0x02\n      add\n      sstore\n      0x60\n      dup3\n      add\n      mload\n      dup2\n      0x03\n      add\n      sstore\n      0x80\n      dup3\n      add\n      mload\n      dup2\n      0x04\n      add\n      sstore\n      0xa0\n      dup3\n      add\n      mload\n      dup2\n      0x05\n      add\n      exp(0x0100, 0x00)\n      dup2\n      sload\n      dup2\n      0xff\n      mul\n      not\n      and\n      swap1\n      dup4\n      iszero\n      iszero\n      mul\n      or\n      swap1\n      sstore\n      pop\n      swap1\n      pop\n      pop\n        /* \"Crowdfunding_final.sol\":2205:2215  msg.sender */\n      caller\n        /* \"Crowdfunding_final.sol\":2191:2238  Launch(count, msg.sender, _goal, _campaignTime) */\n      0xffffffffffffffffffffffffffffffffffffffff\n      and\n      0x7bd7e1ede4ce27a61039c25f909f871ab820f6d4b91f1ceb1330ee2ba499aef3\n        /* \"Crowdfunding_final.sol\":2198:2203  count */\n      sload(0x00)\n        /* \"Crowdfunding_final.sol\":2217:2222  _goal */\n      dup5\n        /* \"Crowdfunding_final.sol\":2224:2237  _campaignTime */\n      dup5\n        /* \"Crowdfunding_final.sol\":2191:2238  Launch(count, msg.sender, _goal, _campaignTime) */\n      mload(0x40)\n      tag_81\n      swap4\n      swap3\n      swap2\n      swap1\n      tag_82\n      jump\t// in\n    tag_81:\n      mload(0x40)\n      dup1\n      swap2\n      sub\n      swap1\n      log2\n        /* \"Crowdfunding_final.sol\":1522:2246  function launch(uint _goal, uint32 _campaignTime) external {... */\n      pop\n      pop\n      jump\t// out\n        /* \"Crowdfunding_final.sol\":1348:1410  mapping(uint => mapping(address => uint)) public pledgedAmount */\n    tag_35:\n      mstore(0x20, 0x02)\n      dup2\n      0x00\n      mstore\n      mstore(0x20, keccak256(0x00, 0x40))\n      dup1\n      0x00\n      mstore\n      keccak256(0x00, 0x40)\n      0x00\n      swap2\n      pop\n      swap2\n      pop\n      pop\n      sload\n      dup2\n      jump\t// out\n        /* \"Crowdfunding_final.sol\":1042:1070  ERC20 public immutable token */\n    tag_38:\n      immutable(\"0x32da71dbd53bc029835bc5ecdd3e688035cc92bb61b1811d1685e67ba974e19f\")\n      dup2\n      jump\t// out\n        /* \"Crowdfunding_final.sol\":2552:3582  function pledge(uint _id, uint _amount) external {... */\n    tag_44:\n        /* \"Crowdfunding_final.sol\":2612:2637  Campaign storage campaign */\n      0x00\n        /* \"Crowdfunding_final.sol\":2640:2649  campaigns */\n      0x01\n        /* \"Crowdfunding_final.sol\":2640:2654  campaigns[_id] */\n      0x00\n        /* \"Crowdfunding_final.sol\":2650:2653  _id */\n      dup5\n        /* \"Crowdfunding_final.sol\":2640:2654  campaigns[_id] */\n      dup2\n      mstore\n      0x20\n      add\n      swap1\n      dup2\n      mstore\n      0x20\n      add\n      0x00\n      keccak256\n        /* \"Crowdfunding_final.sol\":2612:2654  Campaign storage campaign = campaigns[_id] */\n      swap1\n      pop\n        /* \"Crowdfunding_final.sol\":2692:2700  campaign */\n      dup1\n        /* \"Crowdfunding_final.sol\":2692:2708  campaign.startAt */\n      0x03\n      add\n      sload\n        /* \"Crowdfunding_final.sol\":2673:2688  block.timestamp */\n      timestamp\n        /* \"Crowdfunding_final.sol\":2673:2708  block.timestamp >= campaign.startAt */\n      lt\n      iszero\n        /* \"Crowdfunding_final.sol\":2665:2733  require(block.timestamp >= campaign.startAt, \"Campaign not started\") */\n      tag_84\n      jumpi\n      mload(0x40)\n      0x08c379a000000000000000000000000000000000000000000000000000000000\n      dup2\n      mstore\n      0x04\n      add\n      tag_85\n      swap1\n      tag_86\n      jump\t// in\n    tag_85:\n      mload(0x40)\n      dup1\n      swap2\n      sub\n      swap1\n      revert\n    tag_84:\n        /* \"Crowdfunding_final.sol\":2771:2779  campaign */\n      dup1\n        /* \"Crowdfunding_final.sol\":2771:2785  campaign.endAt */\n      0x04\n      add\n      sload\n        /* \"Crowdfunding_final.sol\":2752:2767  block.timestamp */\n      timestamp\n        /* \"Crowdfunding_final.sol\":2752:2785  block.timestamp <= campaign.endAt */\n      gt\n      iszero\n        /* \"Crowdfunding_final.sol\":2744:2804  require(block.timestamp <= campaign.endAt, \"Campaign ended\") */\n      tag_87\n      jumpi\n      mload(0x40)\n      0x08c379a000000000000000000000000000000000000000000000000000000000\n      dup2\n      mstore\n      0x04\n      add\n      tag_88\n      swap1\n      tag_89\n      jump\t// in\n    tag_88:\n      mload(0x40)\n      dup1\n      swap2\n      sub\n      swap1\n      revert\n    tag_87:\n        /* \"Crowdfunding_final.sol\":2946:2953  _amount */\n      dup2\n        /* \"Crowdfunding_final.sol\":2926:2934  campaign */\n      dup2\n        /* \"Crowdfunding_final.sol\":2926:2942  campaign.pledged */\n      0x02\n      add\n      0x00\n        /* \"Crowdfunding_final.sol\":2926:2953  campaign.pledged += _amount */\n      dup3\n      dup3\n      sload\n      tag_90\n      swap2\n      swap1\n      tag_79\n      jump\t// in\n    tag_90:\n      swap3\n      pop\n      pop\n      dup2\n      swap1\n      sstore\n      pop\n        /* \"Crowdfunding_final.sol\":2998:3005  _amount */\n      dup2\n        /* \"Crowdfunding_final.sol\":2964:2977  pledgedAmount */\n      0x02\n        /* \"Crowdfunding_final.sol\":2964:2982  pledgedAmount[_id] */\n      0x00\n        /* \"Crowdfunding_final.sol\":2978:2981  _id */\n      dup6\n        /* \"Crowdfunding_final.sol\":2964:2982  pledgedAmount[_id] */\n      dup2\n      mstore\n      0x20\n      add\n      swap1\n      dup2\n      mstore\n      0x20\n      add\n      0x00\n      keccak256\n        /* \"Crowdfunding_final.sol\":2964:2994  pledgedAmount[_id][msg.sender] */\n      0x00\n        /* \"Crowdfunding_final.sol\":2983:2993  msg.sender */\n      caller\n        /* \"Crowdfunding_final.sol\":2964:2994  pledgedAmount[_id][msg.sender] */\n      0xffffffffffffffffffffffffffffffffffffffff\n      and\n      0xffffffffffffffffffffffffffffffffffffffff\n      and\n      dup2\n      mstore\n      0x20\n      add\n      swap1\n      dup2\n      mstore\n      0x20\n      add\n      0x00\n      keccak256\n      0x00\n        /* \"Crowdfunding_final.sol\":2964:3005  pledgedAmount[_id][msg.sender] += _amount */\n      dup3\n      dup3\n      sload\n      tag_91\n      swap2\n      swap1\n      tag_79\n      jump\t// in\n    tag_91:\n      swap3\n      pop\n      pop\n      dup2\n      swap1\n      sstore\n      pop\n        /* \"Crowdfunding_final.sol\":3016:3021  token */\n      immutable(\"0x32da71dbd53bc029835bc5ecdd3e688035cc92bb61b1811d1685e67ba974e19f\")\n        /* \"Crowdfunding_final.sol\":3016:3034  token.transferFrom */\n      0xffffffffffffffffffffffffffffffffffffffff\n      and\n      0x23b872dd\n        /* \"Crowdfunding_final.sol\":3035:3045  msg.sender */\n      caller\n        /* \"Crowdfunding_final.sol\":3055:3059  this */\n      address\n        /* \"Crowdfunding_final.sol\":3062:3069  _amount */\n      dup6\n        /* \"Crowdfunding_final.sol\":3016:3070  token.transferFrom(msg.sender, address(this), _amount) */\n      mload(0x40)\n      dup5\n      0xffffffff\n      and\n      0xe0\n      shl\n      dup2\n      mstore\n      0x04\n      add\n      tag_92\n      swap4\n      swap3\n      swap2\n      swap1\n      tag_93\n      jump\t// in\n    tag_92:\n      0x20\n      mload(0x40)\n      dup1\n      dup4\n      sub\n      dup2\n      0x00\n      dup8\n      gas\n      call\n      iszero\n      dup1\n      iszero\n      tag_95\n      jumpi\n      returndatasize\n      0x00\n      dup1\n      returndatacopy\n      revert(0x00, returndatasize)\n    tag_95:\n      pop\n      pop\n      pop\n      pop\n      mload(0x40)\n      returndatasize\n      not(0x1f)\n      0x1f\n      dup3\n      add\n      and\n      dup3\n      add\n      dup1\n      0x40\n      mstore\n      pop\n      dup2\n      add\n      swap1\n      tag_96\n      swap2\n      swap1\n      tag_57\n      jump\t// in\n    tag_96:\n      pop\n        /* \"Crowdfunding_final.sol\":3097:3099  50 */\n      0x32\n        /* \"Crowdfunding_final.sol\":3086:3093  _amount */\n      dup3\n        /* \"Crowdfunding_final.sol\":3086:3099  _amount >= 50 */\n      lt\n        /* \"Crowdfunding_final.sol\":3083:3515  if(_amount >= 50){... */\n      tag_97\n      jumpi\n        /* \"Crowdfunding_final.sol\":3115:3124  randNonce */\n      0x03\n      0x00\n        /* \"Crowdfunding_final.sol\":3115:3126  randNonce++ */\n      dup2\n      sload\n      dup1\n      swap3\n      swap2\n      swap1\n      tag_98\n      swap1\n      tag_99\n      jump\t// in\n    tag_98:\n      swap2\n      swap1\n      pop\n      sstore\n      pop\n        /* \"Crowdfunding_final.sol\":3244:3255  uint random */\n      0x00\n        /* \"Crowdfunding_final.sol\":3334:3335  2 */\n      0x02\n        /* \"Crowdfunding_final.sol\":3290:3305  block.timestamp */\n      timestamp\n        /* \"Crowdfunding_final.sol\":3307:3317  msg.sender */\n      caller\n        /* \"Crowdfunding_final.sol\":3319:3328  randNonce */\n      sload(0x03)\n        /* \"Crowdfunding_final.sol\":3273:3329  abi.encodePacked(block.timestamp, msg.sender, randNonce) */\n      add(0x20, mload(0x40))\n      tag_100\n      swap4\n      swap3\n      swap2\n      swap1\n      tag_101\n      jump\t// in\n    tag_100:\n      mload(0x40)\n      0x20\n      dup2\n      dup4\n      sub\n      sub\n      dup2\n      mstore\n      swap1\n      0x40\n      mstore\n        /* \"Crowdfunding_final.sol\":3263:3330  keccak256(abi.encodePacked(block.timestamp, msg.sender, randNonce)) */\n      dup1\n      mload\n      swap1\n      0x20\n      add\n      keccak256\n        /* \"Crowdfunding_final.sol\":3258:3331  uint(keccak256(abi.encodePacked(block.timestamp, msg.sender, randNonce))) */\n      0x00\n      shr\n        /* \"Crowdfunding_final.sol\":3258:3335  uint(keccak256(abi.encodePacked(block.timestamp, msg.sender, randNonce))) % 2 */\n      tag_102\n      swap2\n      swap1\n      tag_103\n      jump\t// in\n    tag_102:\n        /* \"Crowdfunding_final.sol\":3244:3335  uint random = uint(keccak256(abi.encodePacked(block.timestamp, msg.sender, randNonce))) % 2 */\n      swap1\n      pop\n        /* \"Crowdfunding_final.sol\":3363:3364  1 */\n      0x01\n        /* \"Crowdfunding_final.sol\":3353:3359  random */\n      dup2\n        /* \"Crowdfunding_final.sol\":3353:3364  random == 1 */\n      sub\n        /* \"Crowdfunding_final.sol\":3350:3504  if(random == 1){... */\n      tag_104\n      jumpi\n        /* \"Crowdfunding_final.sol\":3384:3389  token */\n      immutable(\"0x32da71dbd53bc029835bc5ecdd3e688035cc92bb61b1811d1685e67ba974e19f\")\n        /* \"Crowdfunding_final.sol\":3384:3402  token.transferFrom */\n      0xffffffffffffffffffffffffffffffffffffffff\n      and\n      0x23b872dd\n        /* \"Crowdfunding_final.sol\":3403:3411  campaign */\n      dup4\n        /* \"Crowdfunding_final.sol\":3403:3419  campaign.creator */\n      0x00\n      add\n      0x00\n      swap1\n      sload\n      swap1\n      0x0100\n      exp\n      swap1\n      div\n      0xffffffffffffffffffffffffffffffffffffffff\n      and\n        /* \"Crowdfunding_final.sol\":3421:3431  msg.sender */\n      caller\n        /* \"Crowdfunding_final.sol\":3433:3434  5 */\n      0x05\n        /* \"Crowdfunding_final.sol\":3384:3435  token.transferFrom(campaign.creator, msg.sender, 5) */\n      mload(0x40)\n      dup5\n      0xffffffff\n      and\n      0xe0\n      shl\n      dup2\n      mstore\n      0x04\n      add\n      tag_105\n      swap4\n      swap3\n      swap2\n      swap1\n      tag_106\n      jump\t// in\n    tag_105:\n      0x20\n      mload(0x40)\n      dup1\n      dup4\n      sub\n      dup2\n      0x00\n      dup8\n      gas\n      call\n      iszero\n      dup1\n      iszero\n      tag_108\n      jumpi\n      returndatasize\n      0x00\n      dup1\n      returndatacopy\n      revert(0x00, returndatasize)\n    tag_108:\n      pop\n      pop\n      pop\n      pop\n      mload(0x40)\n      returndatasize\n      not(0x1f)\n      0x1f\n      dup3\n      add\n      and\n      dup3\n      add\n      dup1\n      0x40\n      mstore\n      pop\n      dup2\n      add\n      swap1\n      tag_109\n      swap2\n      swap1\n      tag_57\n      jump\t// in\n    tag_109:\n      pop\n        /* \"Crowdfunding_final.sol\":3466:3476  msg.sender */\n      caller\n        /* \"Crowdfunding_final.sol\":3459:3488  Reward(msg.sender, random, 5) */\n      0xffffffffffffffffffffffffffffffffffffffff\n      and\n      0x02a6a2be713fedf52f113c0a759f1c1a23a113476d9b1b1a2a453c910660de4e\n        /* \"Crowdfunding_final.sol\":3478:3484  random */\n      dup3\n        /* \"Crowdfunding_final.sol\":3486:3487  5 */\n      0x05\n        /* \"Crowdfunding_final.sol\":3459:3488  Reward(msg.sender, random, 5) */\n      mload(0x40)\n      tag_110\n      swap3\n      swap2\n      swap1\n      tag_111\n      jump\t// in\n    tag_110:\n      mload(0x40)\n      dup1\n      swap2\n      sub\n      swap1\n      log2\n        /* \"Crowdfunding_final.sol\":3350:3504  if(random == 1){... */\n    tag_104:\n        /* \"Crowdfunding_final.sol\":3100:3515  {... */\n      pop\n        /* \"Crowdfunding_final.sol\":3083:3515  if(_amount >= 50){... */\n    tag_97:\n        /* \"Crowdfunding_final.sol\":3544:3554  msg.sender */\n      caller\n        /* \"Crowdfunding_final.sol\":3532:3564  Pledge(_id, msg.sender, _amount) */\n      0xffffffffffffffffffffffffffffffffffffffff\n      and\n        /* \"Crowdfunding_final.sol\":3539:3542  _id */\n      dup4\n        /* \"Crowdfunding_final.sol\":3532:3564  Pledge(_id, msg.sender, _amount) */\n      0x06bdb975df800a73232998e71ed585d536222f1dfeaa622d7f62a23ada686c82\n        /* \"Crowdfunding_final.sol\":3556:3563  _amount */\n      dup5\n        /* \"Crowdfunding_final.sol\":3532:3564  Pledge(_id, msg.sender, _amount) */\n      mload(0x40)\n      tag_112\n      swap2\n      swap1\n      tag_15\n      jump\t// in\n    tag_112:\n      mload(0x40)\n      dup1\n      swap2\n      sub\n      swap1\n      log3\n        /* \"Crowdfunding_final.sol\":2601:3582  {... */\n      pop\n        /* \"Crowdfunding_final.sol\":2552:3582  function pledge(uint _id, uint _amount) external {... */\n      pop\n      pop\n      jump\t// out\n        /* \"#utility.yul\":7:84   */\n    tag_113:\n        /* \"#utility.yul\":44:51   */\n      0x00\n        /* \"#utility.yul\":73:78   */\n      dup2\n        /* \"#utility.yul\":62:78   */\n      swap1\n      pop\n        /* \"#utility.yul\":7:84   */\n      swap2\n      swap1\n      pop\n      jump\t// out\n        /* \"#utility.yul\":90:208   */\n    tag_114:\n        /* \"#utility.yul\":177:201   */\n      tag_167\n        /* \"#utility.yul\":195:200   */\n      dup2\n        /* \"#utility.yul\":177:201   */\n      tag_113\n      jump\t// in\n    tag_167:\n        /* \"#utility.yul\":172:175   */\n      dup3\n        /* \"#utility.yul\":165:202   */\n      mstore\n        /* \"#utility.yul\":90:208   */\n      pop\n      pop\n      jump\t// out\n        /* \"#utility.yul\":214:436   */\n    tag_15:\n        /* \"#utility.yul\":307:311   */\n      0x00\n        /* \"#utility.yul\":345:347   */\n      0x20\n        /* \"#utility.yul\":334:343   */\n      dup3\n        /* \"#utility.yul\":330:348   */\n      add\n        /* \"#utility.yul\":322:348   */\n      swap1\n      pop\n        /* \"#utility.yul\":358:429   */\n      tag_169\n        /* \"#utility.yul\":426:427   */\n      0x00\n        /* \"#utility.yul\":415:424   */\n      dup4\n        /* \"#utility.yul\":411:428   */\n      add\n        /* \"#utility.yul\":402:408   */\n      dup5\n        /* \"#utility.yul\":358:429   */\n      tag_114\n      jump\t// in\n    tag_169:\n        /* \"#utility.yul\":214:436   */\n      swap3\n      swap2\n      pop\n      pop\n      jump\t// out\n        /* \"#utility.yul\":523:640   */\n    tag_116:\n        /* \"#utility.yul\":632:633   */\n      0x00\n        /* \"#utility.yul\":629:630   */\n      dup1\n        /* \"#utility.yul\":622:634   */\n      revert\n        /* \"#utility.yul\":769:891   */\n    tag_118:\n        /* \"#utility.yul\":842:866   */\n      tag_174\n        /* \"#utility.yul\":860:865   */\n      dup2\n        /* \"#utility.yul\":842:866   */\n      tag_113\n      jump\t// in\n    tag_174:\n        /* \"#utility.yul\":835:840   */\n      dup2\n        /* \"#utility.yul\":832:867   */\n      eq\n        /* \"#utility.yul\":822:885   */\n      tag_175\n      jumpi\n        /* \"#utility.yul\":881:882   */\n      0x00\n        /* \"#utility.yul\":878:879   */\n      dup1\n        /* \"#utility.yul\":871:883   */\n      revert\n        /* \"#utility.yul\":822:885   */\n    tag_175:\n        /* \"#utility.yul\":769:891   */\n      pop\n      jump\t// out\n        /* \"#utility.yul\":897:1036   */\n    tag_119:\n        /* \"#utility.yul\":943:948   */\n      0x00\n        /* \"#utility.yul\":981:987   */\n      dup2\n        /* \"#utility.yul\":968:988   */\n      calldataload\n        /* \"#utility.yul\":959:988   */\n      swap1\n      pop\n        /* \"#utility.yul\":997:1030   */\n      tag_177\n        /* \"#utility.yul\":1024:1029   */\n      dup2\n        /* \"#utility.yul\":997:1030   */\n      tag_118\n      jump\t// in\n    tag_177:\n        /* \"#utility.yul\":897:1036   */\n      swap3\n      swap2\n      pop\n      pop\n      jump\t// out\n        /* \"#utility.yul\":1042:1371   */\n    tag_18:\n        /* \"#utility.yul\":1101:1107   */\n      0x00\n        /* \"#utility.yul\":1150:1152   */\n      0x20\n        /* \"#utility.yul\":1138:1147   */\n      dup3\n        /* \"#utility.yul\":1129:1136   */\n      dup5\n        /* \"#utility.yul\":1125:1148   */\n      sub\n        /* \"#utility.yul\":1121:1153   */\n      slt\n        /* \"#utility.yul\":1118:1237   */\n      iszero\n      tag_179\n      jumpi\n        /* \"#utility.yul\":1156:1235   */\n      tag_180\n      tag_116\n      jump\t// in\n    tag_180:\n        /* \"#utility.yul\":1118:1237   */\n    tag_179:\n        /* \"#utility.yul\":1276:1277   */\n      0x00\n        /* \"#utility.yul\":1301:1354   */\n      tag_181\n        /* \"#utility.yul\":1346:1353   */\n      dup5\n        /* \"#utility.yul\":1337:1343   */\n      dup3\n        /* \"#utility.yul\":1326:1335   */\n      dup6\n        /* \"#utility.yul\":1322:1344   */\n      add\n        /* \"#utility.yul\":1301:1354   */\n      tag_119\n      jump\t// in\n    tag_181:\n        /* \"#utility.yul\":1291:1354   */\n      swap2\n      pop\n        /* \"#utility.yul\":1247:1364   */\n      pop\n        /* \"#utility.yul\":1042:1371   */\n      swap3\n      swap2\n      pop\n      pop\n      jump\t// out\n        /* \"#utility.yul\":1377:1503   */\n    tag_120:\n        /* \"#utility.yul\":1414:1421   */\n      0x00\n        /* \"#utility.yul\":1454:1496   */\n      0xffffffffffffffffffffffffffffffffffffffff\n        /* \"#utility.yul\":1447:1452   */\n      dup3\n        /* \"#utility.yul\":1443:1497   */\n      and\n        /* \"#utility.yul\":1432:1497   */\n      swap1\n      pop\n        /* \"#utility.yul\":1377:1503   */\n      swap2\n      swap1\n      pop\n      jump\t// out\n        /* \"#utility.yul\":1509:1605   */\n    tag_121:\n        /* \"#utility.yul\":1546:1553   */\n      0x00\n        /* \"#utility.yul\":1575:1599   */\n      tag_184\n        /* \"#utility.yul\":1593:1598   */\n      dup3\n        /* \"#utility.yul\":1575:1599   */\n      tag_120\n      jump\t// in\n    tag_184:\n        /* \"#utility.yul\":1564:1599   */\n      swap1\n      pop\n        /* \"#utility.yul\":1509:1605   */\n      swap2\n      swap1\n      pop\n      jump\t// out\n        /* \"#utility.yul\":1611:1729   */\n    tag_122:\n        /* \"#utility.yul\":1698:1722   */\n      tag_186\n        /* \"#utility.yul\":1716:1721   */\n      dup2\n        /* \"#utility.yul\":1698:1722   */\n      tag_121\n      jump\t// in\n    tag_186:\n        /* \"#utility.yul\":1693:1696   */\n      dup3\n        /* \"#utility.yul\":1686:1723   */\n      mstore\n        /* \"#utility.yul\":1611:1729   */\n      pop\n      pop\n      jump\t// out\n        /* \"#utility.yul\":1735:1825   */\n    tag_123:\n        /* \"#utility.yul\":1769:1776   */\n      0x00\n        /* \"#utility.yul\":1812:1817   */\n      dup2\n        /* \"#utility.yul\":1805:1818   */\n      iszero\n        /* \"#utility.yul\":1798:1819   */\n      iszero\n        /* \"#utility.yul\":1787:1819   */\n      swap1\n      pop\n        /* \"#utility.yul\":1735:1825   */\n      swap2\n      swap1\n      pop\n      jump\t// out\n        /* \"#utility.yul\":1831:1940   */\n    tag_124:\n        /* \"#utility.yul\":1912:1933   */\n      tag_189\n        /* \"#utility.yul\":1927:1932   */\n      dup2\n        /* \"#utility.yul\":1912:1933   */\n      tag_123\n      jump\t// in\n    tag_189:\n        /* \"#utility.yul\":1907:1910   */\n      dup3\n        /* \"#utility.yul\":1900:1934   */\n      mstore\n        /* \"#utility.yul\":1831:1940   */\n      pop\n      pop\n      jump\t// out\n        /* \"#utility.yul\":1946:2709   */\n    tag_21:\n        /* \"#utility.yul\":2173:2177   */\n      0x00\n        /* \"#utility.yul\":2211:2214   */\n      0xc0\n        /* \"#utility.yul\":2200:2209   */\n      dup3\n        /* \"#utility.yul\":2196:2215   */\n      add\n        /* \"#utility.yul\":2188:2215   */\n      swap1\n      pop\n        /* \"#utility.yul\":2225:2296   */\n      tag_191\n        /* \"#utility.yul\":2293:2294   */\n      0x00\n        /* \"#utility.yul\":2282:2291   */\n      dup4\n        /* \"#utility.yul\":2278:2295   */\n      add\n        /* \"#utility.yul\":2269:2275   */\n      dup10\n        /* \"#utility.yul\":2225:2296   */\n      tag_122\n      jump\t// in\n    tag_191:\n        /* \"#utility.yul\":2306:2378   */\n      tag_192\n        /* \"#utility.yul\":2374:2376   */\n      0x20\n        /* \"#utility.yul\":2363:2372   */\n      dup4\n        /* \"#utility.yul\":2359:2377   */\n      add\n        /* \"#utility.yul\":2350:2356   */\n      dup9\n        /* \"#utility.yul\":2306:2378   */\n      tag_114\n      jump\t// in\n    tag_192:\n        /* \"#utility.yul\":2388:2460   */\n      tag_193\n        /* \"#utility.yul\":2456:2458   */\n      0x40\n        /* \"#utility.yul\":2445:2454   */\n      dup4\n        /* \"#utility.yul\":2441:2459   */\n      add\n        /* \"#utility.yul\":2432:2438   */\n      dup8\n        /* \"#utility.yul\":2388:2460   */\n      tag_114\n      jump\t// in\n    tag_193:\n        /* \"#utility.yul\":2470:2542   */\n      tag_194\n        /* \"#utility.yul\":2538:2540   */\n      0x60\n        /* \"#utility.yul\":2527:2536   */\n      dup4\n        /* \"#utility.yul\":2523:2541   */\n      add\n        /* \"#utility.yul\":2514:2520   */\n      dup7\n        /* \"#utility.yul\":2470:2542   */\n      tag_114\n      jump\t// in\n    tag_194:\n        /* \"#utility.yul\":2552:2625   */\n      tag_195\n        /* \"#utility.yul\":2620:2623   */\n      0x80\n        /* \"#utility.yul\":2609:2618   */\n      dup4\n        /* \"#utility.yul\":2605:2624   */\n      add\n        /* \"#utility.yul\":2596:2602   */\n      dup6\n        /* \"#utility.yul\":2552:2625   */\n      tag_114\n      jump\t// in\n    tag_195:\n        /* \"#utility.yul\":2635:2702   */\n      tag_196\n        /* \"#utility.yul\":2697:2700   */\n      0xa0\n        /* \"#utility.yul\":2686:2695   */\n      dup4\n        /* \"#utility.yul\":2682:2701   */\n      add\n        /* \"#utility.yul\":2673:2679   */\n      dup5\n        /* \"#utility.yul\":2635:2702   */\n      tag_124\n      jump\t// in\n    tag_196:\n        /* \"#utility.yul\":1946:2709   */\n      swap8\n      swap7\n      pop\n      pop\n      pop\n      pop\n      pop\n      pop\n      pop\n      jump\t// out\n        /* \"#utility.yul\":2715:2808   */\n    tag_125:\n        /* \"#utility.yul\":2751:2758   */\n      0x00\n        /* \"#utility.yul\":2791:2801   */\n      0xffffffff\n        /* \"#utility.yul\":2784:2789   */\n      dup3\n        /* \"#utility.yul\":2780:2802   */\n      and\n        /* \"#utility.yul\":2769:2802   */\n      swap1\n      pop\n        /* \"#utility.yul\":2715:2808   */\n      swap2\n      swap1\n      pop\n      jump\t// out\n        /* \"#utility.yul\":2814:2934   */\n    tag_126:\n        /* \"#utility.yul\":2886:2909   */\n      tag_199\n        /* \"#utility.yul\":2903:2908   */\n      dup2\n        /* \"#utility.yul\":2886:2909   */\n      tag_125\n      jump\t// in\n    tag_199:\n        /* \"#utility.yul\":2879:2884   */\n      dup2\n        /* \"#utility.yul\":2876:2910   */\n      eq\n        /* \"#utility.yul\":2866:2928   */\n      tag_200\n      jumpi\n        /* \"#utility.yul\":2924:2925   */\n      0x00\n        /* \"#utility.yul\":2921:2922   */\n      dup1\n        /* \"#utility.yul\":2914:2926   */\n      revert\n        /* \"#utility.yul\":2866:2928   */\n    tag_200:\n        /* \"#utility.yul\":2814:2934   */\n      pop\n      jump\t// out\n        /* \"#utility.yul\":2940:3077   */\n    tag_127:\n        /* \"#utility.yul\":2985:2990   */\n      0x00\n        /* \"#utility.yul\":3023:3029   */\n      dup2\n        /* \"#utility.yul\":3010:3030   */\n      calldataload\n        /* \"#utility.yul\":3001:3030   */\n      swap1\n      pop\n        /* \"#utility.yul\":3039:3071   */\n      tag_202\n        /* \"#utility.yul\":3065:3070   */\n      dup2\n        /* \"#utility.yul\":3039:3071   */\n      tag_126\n      jump\t// in\n    tag_202:\n        /* \"#utility.yul\":2940:3077   */\n      swap3\n      swap2\n      pop\n      pop\n      jump\t// out\n        /* \"#utility.yul\":3083:3555   */\n    tag_30:\n        /* \"#utility.yul\":3150:3156   */\n      0x00\n        /* \"#utility.yul\":3158:3164   */\n      dup1\n        /* \"#utility.yul\":3207:3209   */\n      0x40\n        /* \"#utility.yul\":3195:3204   */\n      dup4\n        /* \"#utility.yul\":3186:3193   */\n      dup6\n        /* \"#utility.yul\":3182:3205   */\n      sub\n        /* \"#utility.yul\":3178:3210   */\n      slt\n        /* \"#utility.yul\":3175:3294   */\n      iszero\n      tag_204\n      jumpi\n        /* \"#utility.yul\":3213:3292   */\n      tag_205\n      tag_116\n      jump\t// in\n    tag_205:\n        /* \"#utility.yul\":3175:3294   */\n    tag_204:\n        /* \"#utility.yul\":3333:3334   */\n      0x00\n        /* \"#utility.yul\":3358:3411   */\n      tag_206\n        /* \"#utility.yul\":3403:3410   */\n      dup6\n        /* \"#utility.yul\":3394:3400   */\n      dup3\n        /* \"#utility.yul\":3383:3392   */\n      dup7\n        /* \"#utility.yul\":3379:3401   */\n      add\n        /* \"#utility.yul\":3358:3411   */\n      tag_119\n      jump\t// in\n    tag_206:\n        /* \"#utility.yul\":3348:3411   */\n      swap3\n      pop\n        /* \"#utility.yul\":3304:3421   */\n      pop\n        /* \"#utility.yul\":3460:3462   */\n      0x20\n        /* \"#utility.yul\":3486:3538   */\n      tag_207\n        /* \"#utility.yul\":3530:3537   */\n      dup6\n        /* \"#utility.yul\":3521:3527   */\n      dup3\n        /* \"#utility.yul\":3510:3519   */\n      dup7\n        /* \"#utility.yul\":3506:3528   */\n      add\n        /* \"#utility.yul\":3486:3538   */\n      tag_127\n      jump\t// in\n    tag_207:\n        /* \"#utility.yul\":3476:3538   */\n      swap2\n      pop\n        /* \"#utility.yul\":3431:3548   */\n      pop\n        /* \"#utility.yul\":3083:3555   */\n      swap3\n      pop\n      swap3\n      swap1\n      pop\n      jump\t// out\n        /* \"#utility.yul\":3561:3683   */\n    tag_128:\n        /* \"#utility.yul\":3634:3658   */\n      tag_209\n        /* \"#utility.yul\":3652:3657   */\n      dup2\n        /* \"#utility.yul\":3634:3658   */\n      tag_121\n      jump\t// in\n    tag_209:\n        /* \"#utility.yul\":3627:3632   */\n      dup2\n        /* \"#utility.yul\":3624:3659   */\n      eq\n        /* \"#utility.yul\":3614:3677   */\n      tag_210\n      jumpi\n        /* \"#utility.yul\":3673:3674   */\n      0x00\n        /* \"#utility.yul\":3670:3671   */\n      dup1\n        /* \"#utility.yul\":3663:3675   */\n      revert\n        /* \"#utility.yul\":3614:3677   */\n    tag_210:\n        /* \"#utility.yul\":3561:3683   */\n      pop\n      jump\t// out\n        /* \"#utility.yul\":3689:3828   */\n    tag_129:\n        /* \"#utility.yul\":3735:3740   */\n      0x00\n        /* \"#utility.yul\":3773:3779   */\n      dup2\n        /* \"#utility.yul\":3760:3780   */\n      calldataload\n        /* \"#utility.yul\":3751:3780   */\n      swap1\n      pop\n        /* \"#utility.yul\":3789:3822   */\n      tag_212\n        /* \"#utility.yul\":3816:3821   */\n      dup2\n        /* \"#utility.yul\":3789:3822   */\n      tag_128\n      jump\t// in\n    tag_212:\n        /* \"#utility.yul\":3689:3828   */\n      swap3\n      swap2\n      pop\n      pop\n      jump\t// out\n        /* \"#utility.yul\":3834:4308   */\n    tag_34:\n        /* \"#utility.yul\":3902:3908   */\n      0x00\n        /* \"#utility.yul\":3910:3916   */\n      dup1\n        /* \"#utility.yul\":3959:3961   */\n      0x40\n        /* \"#utility.yul\":3947:3956   */\n      dup4\n        /* \"#utility.yul\":3938:3945   */\n      dup6\n        /* \"#utility.yul\":3934:3957   */\n      sub\n        /* \"#utility.yul\":3930:3962   */\n      slt\n        /* \"#utility.yul\":3927:4046   */\n      iszero\n      tag_214\n      jumpi\n        /* \"#utility.yul\":3965:4044   */\n      tag_215\n      tag_116\n      jump\t// in\n    tag_215:\n        /* \"#utility.yul\":3927:4046   */\n    tag_214:\n        /* \"#utility.yul\":4085:4086   */\n      0x00\n        /* \"#utility.yul\":4110:4163   */\n      tag_216\n        /* \"#utility.yul\":4155:4162   */\n      dup6\n        /* \"#utility.yul\":4146:4152   */\n      dup3\n        /* \"#utility.yul\":4135:4144   */\n      dup7\n        /* \"#utility.yul\":4131:4153   */\n      add\n        /* \"#utility.yul\":4110:4163   */\n      tag_119\n      jump\t// in\n    tag_216:\n        /* \"#utility.yul\":4100:4163   */\n      swap3\n      pop\n        /* \"#utility.yul\":4056:4173   */\n      pop\n        /* \"#utility.yul\":4212:4214   */\n      0x20\n        /* \"#utility.yul\":4238:4291   */\n      tag_217\n        /* \"#utility.yul\":4283:4290   */\n      dup6\n        /* \"#utility.yul\":4274:4280   */\n      dup3\n        /* \"#utility.yul\":4263:4272   */\n      dup7\n        /* \"#utility.yul\":4259:4281   */\n      add\n        /* \"#utility.yul\":4238:4291   */\n      tag_129\n      jump\t// in\n    tag_217:\n        /* \"#utility.yul\":4228:4291   */\n      swap2\n      pop\n        /* \"#utility.yul\":4183:4301   */\n      pop\n        /* \"#utility.yul\":3834:4308   */\n      swap3\n      pop\n      swap3\n      swap1\n      pop\n      jump\t// out\n        /* \"#utility.yul\":4314:4374   */\n    tag_130:\n        /* \"#utility.yul\":4342:4345   */\n      0x00\n        /* \"#utility.yul\":4363:4368   */\n      dup2\n        /* \"#utility.yul\":4356:4368   */\n      swap1\n      pop\n        /* \"#utility.yul\":4314:4374   */\n      swap2\n      swap1\n      pop\n      jump\t// out\n        /* \"#utility.yul\":4380:4522   */\n    tag_131:\n        /* \"#utility.yul\":4430:4439   */\n      0x00\n        /* \"#utility.yul\":4463:4516   */\n      tag_220\n        /* \"#utility.yul\":4481:4515   */\n      tag_221\n        /* \"#utility.yul\":4490:4514   */\n      tag_222\n        /* \"#utility.yul\":4508:4513   */\n      dup5\n        /* \"#utility.yul\":4490:4514   */\n      tag_120\n      jump\t// in\n    tag_222:\n        /* \"#utility.yul\":4481:4515   */\n      tag_130\n      jump\t// in\n    tag_221:\n        /* \"#utility.yul\":4463:4516   */\n      tag_120\n      jump\t// in\n    tag_220:\n        /* \"#utility.yul\":4450:4516   */\n      swap1\n      pop\n        /* \"#utility.yul\":4380:4522   */\n      swap2\n      swap1\n      pop\n      jump\t// out\n        /* \"#utility.yul\":4528:4654   */\n    tag_132:\n        /* \"#utility.yul\":4578:4587   */\n      0x00\n        /* \"#utility.yul\":4611:4648   */\n      tag_224\n        /* \"#utility.yul\":4642:4647   */\n      dup3\n        /* \"#utility.yul\":4611:4648   */\n      tag_131\n      jump\t// in\n    tag_224:\n        /* \"#utility.yul\":4598:4648   */\n      swap1\n      pop\n        /* \"#utility.yul\":4528:4654   */\n      swap2\n      swap1\n      pop\n      jump\t// out\n        /* \"#utility.yul\":4660:4799   */\n    tag_133:\n        /* \"#utility.yul\":4723:4732   */\n      0x00\n        /* \"#utility.yul\":4756:4793   */\n      tag_226\n        /* \"#utility.yul\":4787:4792   */\n      dup3\n        /* \"#utility.yul\":4756:4793   */\n      tag_132\n      jump\t// in\n    tag_226:\n        /* \"#utility.yul\":4743:4793   */\n      swap1\n      pop\n        /* \"#utility.yul\":4660:4799   */\n      swap2\n      swap1\n      pop\n      jump\t// out\n        /* \"#utility.yul\":4805:4962   */\n    tag_134:\n        /* \"#utility.yul\":4905:4955   */\n      tag_228\n        /* \"#utility.yul\":4949:4954   */\n      dup2\n        /* \"#utility.yul\":4905:4955   */\n      tag_133\n      jump\t// in\n    tag_228:\n        /* \"#utility.yul\":4900:4903   */\n      dup3\n        /* \"#utility.yul\":4893:4956   */\n      mstore\n        /* \"#utility.yul\":4805:4962   */\n      pop\n      pop\n      jump\t// out\n        /* \"#utility.yul\":4968:5216   */\n    tag_40:\n        /* \"#utility.yul\":5074:5078   */\n      0x00\n        /* \"#utility.yul\":5112:5114   */\n      0x20\n        /* \"#utility.yul\":5101:5110   */\n      dup3\n        /* \"#utility.yul\":5097:5115   */\n      add\n        /* \"#utility.yul\":5089:5115   */\n      swap1\n      pop\n        /* \"#utility.yul\":5125:5209   */\n      tag_230\n        /* \"#utility.yul\":5206:5207   */\n      0x00\n        /* \"#utility.yul\":5195:5204   */\n      dup4\n        /* \"#utility.yul\":5191:5208   */\n      add\n        /* \"#utility.yul\":5182:5188   */\n      dup5\n        /* \"#utility.yul\":5125:5209   */\n      tag_134\n      jump\t// in\n    tag_230:\n        /* \"#utility.yul\":4968:5216   */\n      swap3\n      swap2\n      pop\n      pop\n      jump\t// out\n        /* \"#utility.yul\":5222:5696   */\n    tag_43:\n        /* \"#utility.yul\":5290:5296   */\n      0x00\n        /* \"#utility.yul\":5298:5304   */\n      dup1\n        /* \"#utility.yul\":5347:5349   */\n      0x40\n        /* \"#utility.yul\":5335:5344   */\n      dup4\n        /* \"#utility.yul\":5326:5333   */\n      dup6\n        /* \"#utility.yul\":5322:5345   */\n      sub\n        /* \"#utility.yul\":5318:5350   */\n      slt\n        /* \"#utility.yul\":5315:5434   */\n      iszero\n      tag_232\n      jumpi\n        /* \"#utility.yul\":5353:5432   */\n      tag_233\n      tag_116\n      jump\t// in\n    tag_233:\n        /* \"#utility.yul\":5315:5434   */\n    tag_232:\n        /* \"#utility.yul\":5473:5474   */\n      0x00\n        /* \"#utility.yul\":5498:5551   */\n      tag_234\n        /* \"#utility.yul\":5543:5550   */\n      dup6\n        /* \"#utility.yul\":5534:5540   */\n      dup3\n        /* \"#utility.yul\":5523:5532   */\n      dup7\n        /* \"#utility.yul\":5519:5541   */\n      add\n        /* \"#utility.yul\":5498:5551   */\n      tag_119\n      jump\t// in\n    tag_234:\n        /* \"#utility.yul\":5488:5551   */\n      swap3\n      pop\n        /* \"#utility.yul\":5444:5561   */\n      pop\n        /* \"#utility.yul\":5600:5602   */\n      0x20\n        /* \"#utility.yul\":5626:5679   */\n      tag_235\n        /* \"#utility.yul\":5671:5678   */\n      dup6\n        /* \"#utility.yul\":5662:5668   */\n      dup3\n        /* \"#utility.yul\":5651:5660   */\n      dup7\n        /* \"#utility.yul\":5647:5669   */\n      add\n        /* \"#utility.yul\":5626:5679   */\n      tag_119\n      jump\t// in\n    tag_235:\n        /* \"#utility.yul\":5616:5679   */\n      swap2\n      pop\n        /* \"#utility.yul\":5571:5689   */\n      pop\n        /* \"#utility.yul\":5222:5696   */\n      swap3\n      pop\n      swap3\n      swap1\n      pop\n      jump\t// out\n        /* \"#utility.yul\":5702:5871   */\n    tag_135:\n        /* \"#utility.yul\":5786:5797   */\n      0x00\n        /* \"#utility.yul\":5820:5826   */\n      dup3\n        /* \"#utility.yul\":5815:5818   */\n      dup3\n        /* \"#utility.yul\":5808:5827   */\n      mstore\n        /* \"#utility.yul\":5860:5864   */\n      0x20\n        /* \"#utility.yul\":5855:5858   */\n      dup3\n        /* \"#utility.yul\":5851:5865   */\n      add\n        /* \"#utility.yul\":5836:5865   */\n      swap1\n      pop\n        /* \"#utility.yul\":5702:5871   */\n      swap3\n      swap2\n      pop\n      pop\n      jump\t// out\n        /* \"#utility.yul\":5877:6045   */\n    tag_136:\n        /* \"#utility.yul\":6017:6037   */\n      0x43616d706169676e206e6f7420656e6465640000000000000000000000000000\n        /* \"#utility.yul\":6013:6014   */\n      0x00\n        /* \"#utility.yul\":6005:6011   */\n      dup3\n        /* \"#utility.yul\":6001:6015   */\n      add\n        /* \"#utility.yul\":5994:6038   */\n      mstore\n        /* \"#utility.yul\":5877:6045   */\n      pop\n      jump\t// out\n        /* \"#utility.yul\":6051:6417   */\n    tag_137:\n        /* \"#utility.yul\":6193:6196   */\n      0x00\n        /* \"#utility.yul\":6214:6281   */\n      tag_239\n        /* \"#utility.yul\":6278:6280   */\n      0x12\n        /* \"#utility.yul\":6273:6276   */\n      dup4\n        /* \"#utility.yul\":6214:6281   */\n      tag_135\n      jump\t// in\n    tag_239:\n        /* \"#utility.yul\":6207:6281   */\n      swap2\n      pop\n        /* \"#utility.yul\":6290:6383   */\n      tag_240\n        /* \"#utility.yul\":6379:6382   */\n      dup3\n        /* \"#utility.yul\":6290:6383   */\n      tag_136\n      jump\t// in\n    tag_240:\n        /* \"#utility.yul\":6408:6410   */\n      0x20\n        /* \"#utility.yul\":6403:6406   */\n      dup3\n        /* \"#utility.yul\":6399:6411   */\n      add\n        /* \"#utility.yul\":6392:6411   */\n      swap1\n      pop\n        /* \"#utility.yul\":6051:6417   */\n      swap2\n      swap1\n      pop\n      jump\t// out\n        /* \"#utility.yul\":6423:6842   */\n    tag_48:\n        /* \"#utility.yul\":6589:6593   */\n      0x00\n        /* \"#utility.yul\":6627:6629   */\n      0x20\n        /* \"#utility.yul\":6616:6625   */\n      dup3\n        /* \"#utility.yul\":6612:6630   */\n      add\n        /* \"#utility.yul\":6604:6630   */\n      swap1\n      pop\n        /* \"#utility.yul\":6676:6685   */\n      dup2\n        /* \"#utility.yul\":6670:6674   */\n      dup2\n        /* \"#utility.yul\":6666:6686   */\n      sub\n        /* \"#utility.yul\":6662:6663   */\n      0x00\n        /* \"#utility.yul\":6651:6660   */\n      dup4\n        /* \"#utility.yul\":6647:6664   */\n      add\n        /* \"#utility.yul\":6640:6687   */\n      mstore\n        /* \"#utility.yul\":6704:6835   */\n      tag_242\n        /* \"#utility.yul\":6830:6834   */\n      dup2\n        /* \"#utility.yul\":6704:6835   */\n      tag_137\n      jump\t// in\n    tag_242:\n        /* \"#utility.yul\":6696:6835   */\n      swap1\n      pop\n        /* \"#utility.yul\":6423:6842   */\n      swap2\n      swap1\n      pop\n      jump\t// out\n        /* \"#utility.yul\":6848:7079   */\n    tag_138:\n        /* \"#utility.yul\":6988:7022   */\n      0x54686520676f616c20686173206265656e207265616368656420736f20796f75\n        /* \"#utility.yul\":6984:6985   */\n      0x00\n        /* \"#utility.yul\":6976:6982   */\n      dup3\n        /* \"#utility.yul\":6972:6986   */\n      add\n        /* \"#utility.yul\":6965:7023   */\n      mstore\n        /* \"#utility.yul\":7057:7071   */\n      0x2063616e277420636c61696d0000000000000000000000000000000000000000\n        /* \"#utility.yul\":7052:7054   */\n      0x20\n        /* \"#utility.yul\":7044:7050   */\n      dup3\n        /* \"#utility.yul\":7040:7055   */\n      add\n        /* \"#utility.yul\":7033:7072   */\n      mstore\n        /* \"#utility.yul\":6848:7079   */\n      pop\n      jump\t// out\n        /* \"#utility.yul\":7085:7451   */\n    tag_139:\n        /* \"#utility.yul\":7227:7230   */\n      0x00\n        /* \"#utility.yul\":7248:7315   */\n      tag_245\n        /* \"#utility.yul\":7312:7314   */\n      0x2c\n        /* \"#utility.yul\":7307:7310   */\n      dup4\n        /* \"#utility.yul\":7248:7315   */\n      tag_135\n      jump\t// in\n    tag_245:\n        /* \"#utility.yul\":7241:7315   */\n      swap2\n      pop\n        /* \"#utility.yul\":7324:7417   */\n      tag_246\n        /* \"#utility.yul\":7413:7416   */\n      dup3\n        /* \"#utility.yul\":7324:7417   */\n      tag_138\n      jump\t// in\n    tag_246:\n        /* \"#utility.yul\":7442:7444   */\n      0x40\n        /* \"#utility.yul\":7437:7440   */\n      dup3\n        /* \"#utility.yul\":7433:7445   */\n      add\n        /* \"#utility.yul\":7426:7445   */\n      swap1\n      pop\n        /* \"#utility.yul\":7085:7451   */\n      swap2\n      swap1\n      pop\n      jump\t// out\n        /* \"#utility.yul\":7457:7876   */\n    tag_51:\n        /* \"#utility.yul\":7623:7627   */\n      0x00\n        /* \"#utility.yul\":7661:7663   */\n      0x20\n        /* \"#utility.yul\":7650:7659   */\n      dup3\n        /* \"#utility.yul\":7646:7664   */\n      add\n        /* \"#utility.yul\":7638:7664   */\n      swap1\n      pop\n        /* \"#utility.yul\":7710:7719   */\n      dup2\n        /* \"#utility.yul\":7704:7708   */\n      dup2\n        /* \"#utility.yul\":7700:7720   */\n      sub\n        /* \"#utility.yul\":7696:7697   */\n      0x00\n        /* \"#utility.yul\":7685:7694   */\n      dup4\n        /* \"#utility.yul\":7681:7698   */\n      add\n        /* \"#utility.yul\":7674:7721   */\n      mstore\n        /* \"#utility.yul\":7738:7869   */\n      tag_248\n        /* \"#utility.yul\":7864:7868   */\n      dup2\n        /* \"#utility.yul\":7738:7869   */\n      tag_139\n      jump\t// in\n    tag_248:\n        /* \"#utility.yul\":7730:7869   */\n      swap1\n      pop\n        /* \"#utility.yul\":7457:7876   */\n      swap2\n      swap1\n      pop\n      jump\t// out\n        /* \"#utility.yul\":7882:8214   */\n    tag_53:\n        /* \"#utility.yul\":8003:8007   */\n      0x00\n        /* \"#utility.yul\":8041:8043   */\n      0x40\n        /* \"#utility.yul\":8030:8039   */\n      dup3\n        /* \"#utility.yul\":8026:8044   */\n      add\n        /* \"#utility.yul\":8018:8044   */\n      swap1\n      pop\n        /* \"#utility.yul\":8054:8125   */\n      tag_250\n        /* \"#utility.yul\":8122:8123   */\n      0x00\n        /* \"#utility.yul\":8111:8120   */\n      dup4\n        /* \"#utility.yul\":8107:8124   */\n      add\n        /* \"#utility.yul\":8098:8104   */\n      dup6\n        /* \"#utility.yul\":8054:8125   */\n      tag_122\n      jump\t// in\n    tag_250:\n        /* \"#utility.yul\":8135:8207   */\n      tag_251\n        /* \"#utility.yul\":8203:8205   */\n      0x20\n        /* \"#utility.yul\":8192:8201   */\n      dup4\n        /* \"#utility.yul\":8188:8206   */\n      add\n        /* \"#utility.yul\":8179:8185   */\n      dup5\n        /* \"#utility.yul\":8135:8207   */\n      tag_114\n      jump\t// in\n    tag_251:\n        /* \"#utility.yul\":7882:8214   */\n      swap4\n      swap3\n      pop\n      pop\n      pop\n      jump\t// out\n        /* \"#utility.yul\":8220:8336   */\n    tag_140:\n        /* \"#utility.yul\":8290:8311   */\n      tag_253\n        /* \"#utility.yul\":8305:8310   */\n      dup2\n        /* \"#utility.yul\":8290:8311   */\n      tag_123\n      jump\t// in\n    tag_253:\n        /* \"#utility.yul\":8283:8288   */\n      dup2\n        /* \"#utility.yul\":8280:8312   */\n      eq\n        /* \"#utility.yul\":8270:8330   */\n      tag_254\n      jumpi\n        /* \"#utility.yul\":8326:8327   */\n      0x00\n        /* \"#utility.yul\":8323:8324   */\n      dup1\n        /* \"#utility.yul\":8316:8328   */\n      revert\n        /* \"#utility.yul\":8270:8330   */\n    tag_254:\n        /* \"#utility.yul\":8220:8336   */\n      pop\n      jump\t// out\n        /* \"#utility.yul\":8342:8479   */\n    tag_141:\n        /* \"#utility.yul\":8396:8401   */\n      0x00\n        /* \"#utility.yul\":8427:8433   */\n      dup2\n        /* \"#utility.yul\":8421:8434   */\n      mload\n        /* \"#utility.yul\":8412:8434   */\n      swap1\n      pop\n        /* \"#utility.yul\":8443:8473   */\n      tag_256\n        /* \"#utility.yul\":8467:8472   */\n      dup2\n        /* \"#utility.yul\":8443:8473   */\n      tag_140\n      jump\t// in\n    tag_256:\n        /* \"#utility.yul\":8342:8479   */\n      swap3\n      swap2\n      pop\n      pop\n      jump\t// out\n        /* \"#utility.yul\":8485:8830   */\n    tag_57:\n        /* \"#utility.yul\":8552:8558   */\n      0x00\n        /* \"#utility.yul\":8601:8603   */\n      0x20\n        /* \"#utility.yul\":8589:8598   */\n      dup3\n        /* \"#utility.yul\":8580:8587   */\n      dup5\n        /* \"#utility.yul\":8576:8599   */\n      sub\n        /* \"#utility.yul\":8572:8604   */\n      slt\n        /* \"#utility.yul\":8569:8688   */\n      iszero\n      tag_258\n      jumpi\n        /* \"#utility.yul\":8607:8686   */\n      tag_259\n      tag_116\n      jump\t// in\n    tag_259:\n        /* \"#utility.yul\":8569:8688   */\n    tag_258:\n        /* \"#utility.yul\":8727:8728   */\n      0x00\n        /* \"#utility.yul\":8752:8813   */\n      tag_260\n        /* \"#utility.yul\":8805:8812   */\n      dup5\n        /* \"#utility.yul\":8796:8802   */\n      dup3\n        /* \"#utility.yul\":8785:8794   */\n      dup6\n        /* \"#utility.yul\":8781:8803   */\n      add\n        /* \"#utility.yul\":8752:8813   */\n      tag_141\n      jump\t// in\n    tag_260:\n        /* \"#utility.yul\":8742:8813   */\n      swap2\n      pop\n        /* \"#utility.yul\":8698:8823   */\n      pop\n        /* \"#utility.yul\":8485:8830   */\n      swap3\n      swap2\n      pop\n      pop\n      jump\t// out\n        /* \"#utility.yul\":8836:9168   */\n    tag_59:\n        /* \"#utility.yul\":8957:8961   */\n      0x00\n        /* \"#utility.yul\":8995:8997   */\n      0x40\n        /* \"#utility.yul\":8984:8993   */\n      dup3\n        /* \"#utility.yul\":8980:8998   */\n      add\n        /* \"#utility.yul\":8972:8998   */\n      swap1\n      pop\n        /* \"#utility.yul\":9008:9079   */\n      tag_262\n        /* \"#utility.yul\":9076:9077   */\n      0x00\n        /* \"#utility.yul\":9065:9074   */\n      dup4\n        /* \"#utility.yul\":9061:9078   */\n      add\n        /* \"#utility.yul\":9052:9058   */\n      dup6\n        /* \"#utility.yul\":9008:9079   */\n      tag_114\n      jump\t// in\n    tag_262:\n        /* \"#utility.yul\":9089:9161   */\n      tag_263\n        /* \"#utility.yul\":9157:9159   */\n      0x20\n        /* \"#utility.yul\":9146:9155   */\n      dup4\n        /* \"#utility.yul\":9142:9160   */\n      add\n        /* \"#utility.yul\":9133:9139   */\n      dup5\n        /* \"#utility.yul\":9089:9161   */\n      tag_114\n      jump\t// in\n    tag_263:\n        /* \"#utility.yul\":8836:9168   */\n      swap4\n      swap3\n      pop\n      pop\n      pop\n      jump\t// out\n        /* \"#utility.yul\":9174:9399   */\n    tag_142:\n        /* \"#utility.yul\":9314:9348   */\n      0x596f75277265206e6f74207468652063726561746f72206f6620746865206361\n        /* \"#utility.yul\":9310:9311   */\n      0x00\n        /* \"#utility.yul\":9302:9308   */\n      dup3\n        /* \"#utility.yul\":9298:9312   */\n      add\n        /* \"#utility.yul\":9291:9349   */\n      mstore\n        /* \"#utility.yul\":9383:9391   */\n      0x6d706169676e0000000000000000000000000000000000000000000000000000\n        /* \"#utility.yul\":9378:9380   */\n      0x20\n        /* \"#utility.yul\":9370:9376   */\n      dup3\n        /* \"#utility.yul\":9366:9381   */\n      add\n        /* \"#utility.yul\":9359:9392   */\n      mstore\n        /* \"#utility.yul\":9174:9399   */\n      pop\n      jump\t// out\n        /* \"#utility.yul\":9405:9771   */\n    tag_143:\n        /* \"#utility.yul\":9547:9550   */\n      0x00\n        /* \"#utility.yul\":9568:9635   */\n      tag_266\n        /* \"#utility.yul\":9632:9634   */\n      0x26\n        /* \"#utility.yul\":9627:9630   */\n      dup4\n        /* \"#utility.yul\":9568:9635   */\n      tag_135\n      jump\t// in\n    tag_266:\n        /* \"#utility.yul\":9561:9635   */\n      swap2\n      pop\n        /* \"#utility.yul\":9644:9737   */\n      tag_267\n        /* \"#utility.yul\":9733:9736   */\n      dup3\n        /* \"#utility.yul\":9644:9737   */\n      tag_142\n      jump\t// in\n    tag_267:\n        /* \"#utility.yul\":9762:9764   */\n      0x40\n        /* \"#utility.yul\":9757:9760   */\n      dup3\n        /* \"#utility.yul\":9753:9765   */\n      add\n        /* \"#utility.yul\":9746:9765   */\n      swap1\n      pop\n        /* \"#utility.yul\":9405:9771   */\n      swap2\n      swap1\n      pop\n      jump\t// out\n        /* \"#utility.yul\":9777:10196   */\n    tag_63:\n        /* \"#utility.yul\":9943:9947   */\n      0x00\n        /* \"#utility.yul\":9981:9983   */\n      0x20\n        /* \"#utility.yul\":9970:9979   */\n      dup3\n        /* \"#utility.yul\":9966:9984   */\n      add\n        /* \"#utility.yul\":9958:9984   */\n      swap1\n      pop\n        /* \"#utility.yul\":10030:10039   */\n      dup2\n        /* \"#utility.yul\":10024:10028   */\n      dup2\n        /* \"#utility.yul\":10020:10040   */\n      sub\n        /* \"#utility.yul\":10016:10017   */\n      0x00\n        /* \"#utility.yul\":10005:10014   */\n      dup4\n        /* \"#utility.yul\":10001:10018   */\n      add\n        /* \"#utility.yul\":9994:10041   */\n      mstore\n        /* \"#utility.yul\":10058:10189   */\n      tag_269\n        /* \"#utility.yul\":10184:10188   */\n      dup2\n        /* \"#utility.yul\":10058:10189   */\n      tag_143\n      jump\t// in\n    tag_269:\n        /* \"#utility.yul\":10050:10189   */\n      swap1\n      pop\n        /* \"#utility.yul\":9777:10196   */\n      swap2\n      swap1\n      pop\n      jump\t// out\n        /* \"#utility.yul\":10202:10381   */\n    tag_144:\n        /* \"#utility.yul\":10342:10373   */\n      0x54686520676f616c20686173206e6f74206265656e2072656163686564000000\n        /* \"#utility.yul\":10338:10339   */\n      0x00\n        /* \"#utility.yul\":10330:10336   */\n      dup3\n        /* \"#utility.yul\":10326:10340   */\n      add\n        /* \"#utility.yul\":10319:10374   */\n      mstore\n        /* \"#utility.yul\":10202:10381   */\n      pop\n      jump\t// out\n        /* \"#utility.yul\":10387:10753   */\n    tag_145:\n        /* \"#utility.yul\":10529:10532   */\n      0x00\n        /* \"#utility.yul\":10550:10617   */\n      tag_272\n        /* \"#utility.yul\":10614:10616   */\n      0x1d\n        /* \"#utility.yul\":10609:10612   */\n      dup4\n        /* \"#utility.yul\":10550:10617   */\n      tag_135\n      jump\t// in\n    tag_272:\n        /* \"#utility.yul\":10543:10617   */\n      swap2\n      pop\n        /* \"#utility.yul\":10626:10719   */\n      tag_273\n        /* \"#utility.yul\":10715:10718   */\n      dup3\n        /* \"#utility.yul\":10626:10719   */\n      tag_144\n      jump\t// in\n    tag_273:\n        /* \"#utility.yul\":10744:10746   */\n      0x20\n        /* \"#utility.yul\":10739:10742   */\n      dup3\n        /* \"#utility.yul\":10735:10747   */\n      add\n        /* \"#utility.yul\":10728:10747   */\n      swap1\n      pop\n        /* \"#utility.yul\":10387:10753   */\n      swap2\n      swap1\n      pop\n      jump\t// out\n        /* \"#utility.yul\":10759:11178   */\n    tag_68:\n        /* \"#utility.yul\":10925:10929   */\n      0x00\n        /* \"#utility.yul\":10963:10965   */\n      0x20\n        /* \"#utility.yul\":10952:10961   */\n      dup3\n        /* \"#utility.yul\":10948:10966   */\n      add\n        /* \"#utility.yul\":10940:10966   */\n      swap1\n      pop\n        /* \"#utility.yul\":11012:11021   */\n      dup2\n        /* \"#utility.yul\":11006:11010   */\n      dup2\n        /* \"#utility.yul\":11002:11022   */\n      sub\n        /* \"#utility.yul\":10998:10999   */\n      0x00\n        /* \"#utility.yul\":10987:10996   */\n      dup4\n        /* \"#utility.yul\":10983:11000   */\n      add\n        /* \"#utility.yul\":10976:11023   */\n      mstore\n        /* \"#utility.yul\":11040:11171   */\n      tag_275\n        /* \"#utility.yul\":11166:11170   */\n      dup2\n        /* \"#utility.yul\":11040:11171   */\n      tag_145\n      jump\t// in\n    tag_275:\n        /* \"#utility.yul\":11032:11171   */\n      swap1\n      pop\n        /* \"#utility.yul\":10759:11178   */\n      swap2\n      swap1\n      pop\n      jump\t// out\n        /* \"#utility.yul\":11184:11358   */\n    tag_146:\n        /* \"#utility.yul\":11324:11350   */\n      0x43616d706169676e20616c726561647920636c61696d65640000000000000000\n        /* \"#utility.yul\":11320:11321   */\n      0x00\n        /* \"#utility.yul\":11312:11318   */\n      dup3\n        /* \"#utility.yul\":11308:11322   */\n      add\n        /* \"#utility.yul\":11301:11351   */\n      mstore\n        /* \"#utility.yul\":11184:11358   */\n      pop\n      jump\t// out\n        /* \"#utility.yul\":11364:11730   */\n    tag_147:\n        /* \"#utility.yul\":11506:11509   */\n      0x00\n        /* \"#utility.yul\":11527:11594   */\n      tag_278\n        /* \"#utility.yul\":11591:11593   */\n      0x18\n        /* \"#utility.yul\":11586:11589   */\n      dup4\n        /* \"#utility.yul\":11527:11594   */\n      tag_135\n      jump\t// in\n    tag_278:\n        /* \"#utility.yul\":11520:11594   */\n      swap2\n      pop\n        /* \"#utility.yul\":11603:11696   */\n      tag_279\n        /* \"#utility.yul\":11692:11695   */\n      dup3\n        /* \"#utility.yul\":11603:11696   */\n      tag_146\n      jump\t// in\n    tag_279:\n        /* \"#utility.yul\":11721:11723   */\n      0x20\n        /* \"#utility.yul\":11716:11719   */\n      dup3\n        /* \"#utility.yul\":11712:11724   */\n      add\n        /* \"#utility.yul\":11705:11724   */\n      swap1\n      pop\n        /* \"#utility.yul\":11364:11730   */\n      swap2\n      swap1\n      pop\n      jump\t// out\n        /* \"#utility.yul\":11736:12155   */\n    tag_71:\n        /* \"#utility.yul\":11902:11906   */\n      0x00\n        /* \"#utility.yul\":11940:11942   */\n      0x20\n        /* \"#utility.yul\":11929:11938   */\n      dup3\n        /* \"#utility.yul\":11925:11943   */\n      add\n        /* \"#utility.yul\":11917:11943   */\n      swap1\n      pop\n        /* \"#utility.yul\":11989:11998   */\n      dup2\n        /* \"#utility.yul\":11983:11987   */\n      dup2\n        /* \"#utility.yul\":11979:11999   */\n      sub\n        /* \"#utility.yul\":11975:11976   */\n      0x00\n        /* \"#utility.yul\":11964:11973   */\n      dup4\n        /* \"#utility.yul\":11960:11977   */\n      add\n        /* \"#utility.yul\":11953:12000   */\n      mstore\n        /* \"#utility.yul\":12017:12148   */\n      tag_281\n        /* \"#utility.yul\":12143:12147   */\n      dup2\n        /* \"#utility.yul\":12017:12148   */\n      tag_147\n      jump\t// in\n    tag_281:\n        /* \"#utility.yul\":12009:12148   */\n      swap1\n      pop\n        /* \"#utility.yul\":11736:12155   */\n      swap2\n      swap1\n      pop\n      jump\t// out\n        /* \"#utility.yul\":12161:12341   */\n    tag_148:\n        /* \"#utility.yul\":12209:12286   */\n      0x4e487b7100000000000000000000000000000000000000000000000000000000\n        /* \"#utility.yul\":12206:12207   */\n      0x00\n        /* \"#utility.yul\":12199:12287   */\n      mstore\n        /* \"#utility.yul\":12306:12310   */\n      0x11\n        /* \"#utility.yul\":12303:12304   */\n      0x04\n        /* \"#utility.yul\":12296:12311   */\n      mstore\n        /* \"#utility.yul\":12330:12334   */\n      0x24\n        /* \"#utility.yul\":12327:12328   */\n      0x00\n        /* \"#utility.yul\":12320:12335   */\n      revert\n        /* \"#utility.yul\":12347:12538   */\n    tag_79:\n        /* \"#utility.yul\":12387:12390   */\n      0x00\n        /* \"#utility.yul\":12406:12426   */\n      tag_284\n        /* \"#utility.yul\":12424:12425   */\n      dup3\n        /* \"#utility.yul\":12406:12426   */\n      tag_113\n      jump\t// in\n    tag_284:\n        /* \"#utility.yul\":12401:12426   */\n      swap2\n      pop\n        /* \"#utility.yul\":12440:12460   */\n      tag_285\n        /* \"#utility.yul\":12458:12459   */\n      dup4\n        /* \"#utility.yul\":12440:12460   */\n      tag_113\n      jump\t// in\n    tag_285:\n        /* \"#utility.yul\":12435:12460   */\n      swap3\n      pop\n        /* \"#utility.yul\":12483:12484   */\n      dup3\n        /* \"#utility.yul\":12480:12481   */\n      dup3\n        /* \"#utility.yul\":12476:12485   */\n      add\n        /* \"#utility.yul\":12469:12485   */\n      swap1\n      pop\n        /* \"#utility.yul\":12504:12507   */\n      dup1\n        /* \"#utility.yul\":12501:12502   */\n      dup3\n        /* \"#utility.yul\":12498:12508   */\n      gt\n        /* \"#utility.yul\":12495:12531   */\n      iszero\n      tag_286\n      jumpi\n        /* \"#utility.yul\":12511:12529   */\n      tag_287\n      tag_148\n      jump\t// in\n    tag_287:\n        /* \"#utility.yul\":12495:12531   */\n    tag_286:\n        /* \"#utility.yul\":12347:12538   */\n      swap3\n      swap2\n      pop\n      pop\n      jump\t// out\n        /* \"#utility.yul\":12544:12659   */\n    tag_149:\n        /* \"#utility.yul\":12629:12652   */\n      tag_289\n        /* \"#utility.yul\":12646:12651   */\n      dup2\n        /* \"#utility.yul\":12629:12652   */\n      tag_125\n      jump\t// in\n    tag_289:\n        /* \"#utility.yul\":12624:12627   */\n      dup3\n        /* \"#utility.yul\":12617:12653   */\n      mstore\n        /* \"#utility.yul\":12544:12659   */\n      pop\n      pop\n      jump\t// out\n        /* \"#utility.yul\":12665:13103   */\n    tag_82:\n        /* \"#utility.yul\":12812:12816   */\n      0x00\n        /* \"#utility.yul\":12850:12852   */\n      0x60\n        /* \"#utility.yul\":12839:12848   */\n      dup3\n        /* \"#utility.yul\":12835:12853   */\n      add\n        /* \"#utility.yul\":12827:12853   */\n      swap1\n      pop\n        /* \"#utility.yul\":12863:12934   */\n      tag_291\n        /* \"#utility.yul\":12931:12932   */\n      0x00\n        /* \"#utility.yul\":12920:12929   */\n      dup4\n        /* \"#utility.yul\":12916:12933   */\n      add\n        /* \"#utility.yul\":12907:12913   */\n      dup7\n        /* \"#utility.yul\":12863:12934   */\n      tag_114\n      jump\t// in\n    tag_291:\n        /* \"#utility.yul\":12944:13016   */\n      tag_292\n        /* \"#utility.yul\":13012:13014   */\n      0x20\n        /* \"#utility.yul\":13001:13010   */\n      dup4\n        /* \"#utility.yul\":12997:13015   */\n      add\n        /* \"#utility.yul\":12988:12994   */\n      dup6\n        /* \"#utility.yul\":12944:13016   */\n      tag_114\n      jump\t// in\n    tag_292:\n        /* \"#utility.yul\":13026:13096   */\n      tag_293\n        /* \"#utility.yul\":13092:13094   */\n      0x40\n        /* \"#utility.yul\":13081:13090   */\n      dup4\n        /* \"#utility.yul\":13077:13095   */\n      add\n        /* \"#utility.yul\":13068:13074   */\n      dup5\n        /* \"#utility.yul\":13026:13096   */\n      tag_149\n      jump\t// in\n    tag_293:\n        /* \"#utility.yul\":12665:13103   */\n      swap5\n      swap4\n      pop\n      pop\n      pop\n      pop\n      jump\t// out\n        /* \"#utility.yul\":13109:13279   */\n    tag_150:\n        /* \"#utility.yul\":13249:13271   */\n      0x43616d706169676e206e6f742073746172746564000000000000000000000000\n        /* \"#utility.yul\":13245:13246   */\n      0x00\n        /* \"#utility.yul\":13237:13243   */\n      dup3\n        /* \"#utility.yul\":13233:13247   */\n      add\n        /* \"#utility.yul\":13226:13272   */\n      mstore\n        /* \"#utility.yul\":13109:13279   */\n      pop\n      jump\t// out\n        /* \"#utility.yul\":13285:13651   */\n    tag_151:\n        /* \"#utility.yul\":13427:13430   */\n      0x00\n        /* \"#utility.yul\":13448:13515   */\n      tag_296\n        /* \"#utility.yul\":13512:13514   */\n      0x14\n        /* \"#utility.yul\":13507:13510   */\n      dup4\n        /* \"#utility.yul\":13448:13515   */\n      tag_135\n      jump\t// in\n    tag_296:\n        /* \"#utility.yul\":13441:13515   */\n      swap2\n      pop\n        /* \"#utility.yul\":13524:13617   */\n      tag_297\n        /* \"#utility.yul\":13613:13616   */\n      dup3\n        /* \"#utility.yul\":13524:13617   */\n      tag_150\n      jump\t// in\n    tag_297:\n        /* \"#utility.yul\":13642:13644   */\n      0x20\n        /* \"#utility.yul\":13637:13640   */\n      dup3\n        /* \"#utility.yul\":13633:13645   */\n      add\n        /* \"#utility.yul\":13626:13645   */\n      swap1\n      pop\n        /* \"#utility.yul\":13285:13651   */\n      swap2\n      swap1\n      pop\n      jump\t// out\n        /* \"#utility.yul\":13657:14076   */\n    tag_86:\n        /* \"#utility.yul\":13823:13827   */\n      0x00\n        /* \"#utility.yul\":13861:13863   */\n      0x20\n        /* \"#utility.yul\":13850:13859   */\n      dup3\n        /* \"#utility.yul\":13846:13864   */\n      add\n        /* \"#utility.yul\":13838:13864   */\n      swap1\n      pop\n        /* \"#utility.yul\":13910:13919   */\n      dup2\n        /* \"#utility.yul\":13904:13908   */\n      dup2\n        /* \"#utility.yul\":13900:13920   */\n      sub\n        /* \"#utility.yul\":13896:13897   */\n      0x00\n        /* \"#utility.yul\":13885:13894   */\n      dup4\n        /* \"#utility.yul\":13881:13898   */\n      add\n        /* \"#utility.yul\":13874:13921   */\n      mstore\n        /* \"#utility.yul\":13938:14069   */\n      tag_299\n        /* \"#utility.yul\":14064:14068   */\n      dup2\n        /* \"#utility.yul\":13938:14069   */\n      tag_151\n      jump\t// in\n    tag_299:\n        /* \"#utility.yul\":13930:14069   */\n      swap1\n      pop\n        /* \"#utility.yul\":13657:14076   */\n      swap2\n      swap1\n      pop\n      jump\t// out\n        /* \"#utility.yul\":14082:14246   */\n    tag_152:\n        /* \"#utility.yul\":14222:14238   */\n      0x43616d706169676e20656e646564000000000000000000000000000000000000\n        /* \"#utility.yul\":14218:14219   */\n      0x00\n        /* \"#utility.yul\":14210:14216   */\n      dup3\n        /* \"#utility.yul\":14206:14220   */\n      add\n        /* \"#utility.yul\":14199:14239   */\n      mstore\n        /* \"#utility.yul\":14082:14246   */\n      pop\n      jump\t// out\n        /* \"#utility.yul\":14252:14618   */\n    tag_153:\n        /* \"#utility.yul\":14394:14397   */\n      0x00\n        /* \"#utility.yul\":14415:14482   */\n      tag_302\n        /* \"#utility.yul\":14479:14481   */\n      0x0e\n        /* \"#utility.yul\":14474:14477   */\n      dup4\n        /* \"#utility.yul\":14415:14482   */\n      tag_135\n      jump\t// in\n    tag_302:\n        /* \"#utility.yul\":14408:14482   */\n      swap2\n      pop\n        /* \"#utility.yul\":14491:14584   */\n      tag_303\n        /* \"#utility.yul\":14580:14583   */\n      dup3\n        /* \"#utility.yul\":14491:14584   */\n      tag_152\n      jump\t// in\n    tag_303:\n        /* \"#utility.yul\":14609:14611   */\n      0x20\n        /* \"#utility.yul\":14604:14607   */\n      dup3\n        /* \"#utility.yul\":14600:14612   */\n      add\n        /* \"#utility.yul\":14593:14612   */\n      swap1\n      pop\n        /* \"#utility.yul\":14252:14618   */\n      swap2\n      swap1\n      pop\n      jump\t// out\n        /* \"#utility.yul\":14624:15043   */\n    tag_89:\n        /* \"#utility.yul\":14790:14794   */\n      0x00\n        /* \"#utility.yul\":14828:14830   */\n      0x20\n        /* \"#utility.yul\":14817:14826   */\n      dup3\n        /* \"#utility.yul\":14813:14831   */\n      add\n        /* \"#utility.yul\":14805:14831   */\n      swap1\n      pop\n        /* \"#utility.yul\":14877:14886   */\n      dup2\n        /* \"#utility.yul\":14871:14875   */\n      dup2\n        /* \"#utility.yul\":14867:14887   */\n      sub\n        /* \"#utility.yul\":14863:14864   */\n      0x00\n        /* \"#utility.yul\":14852:14861   */\n      dup4\n        /* \"#utility.yul\":14848:14865   */\n      add\n        /* \"#utility.yul\":14841:14888   */\n      mstore\n        /* \"#utility.yul\":14905:15036   */\n      tag_305\n        /* \"#utility.yul\":15031:15035   */\n      dup2\n        /* \"#utility.yul\":14905:15036   */\n      tag_153\n      jump\t// in\n    tag_305:\n        /* \"#utility.yul\":14897:15036   */\n      swap1\n      pop\n        /* \"#utility.yul\":14624:15043   */\n      swap2\n      swap1\n      pop\n      jump\t// out\n        /* \"#utility.yul\":15049:15491   */\n    tag_93:\n        /* \"#utility.yul\":15198:15202   */\n      0x00\n        /* \"#utility.yul\":15236:15238   */\n      0x60\n        /* \"#utility.yul\":15225:15234   */\n      dup3\n        /* \"#utility.yul\":15221:15239   */\n      add\n        /* \"#utility.yul\":15213:15239   */\n      swap1\n      pop\n        /* \"#utility.yul\":15249:15320   */\n      tag_307\n        /* \"#utility.yul\":15317:15318   */\n      0x00\n        /* \"#utility.yul\":15306:15315   */\n      dup4\n        /* \"#utility.yul\":15302:15319   */\n      add\n        /* \"#utility.yul\":15293:15299   */\n      dup7\n        /* \"#utility.yul\":15249:15320   */\n      tag_122\n      jump\t// in\n    tag_307:\n        /* \"#utility.yul\":15330:15402   */\n      tag_308\n        /* \"#utility.yul\":15398:15400   */\n      0x20\n        /* \"#utility.yul\":15387:15396   */\n      dup4\n        /* \"#utility.yul\":15383:15401   */\n      add\n        /* \"#utility.yul\":15374:15380   */\n      dup6\n        /* \"#utility.yul\":15330:15402   */\n      tag_122\n      jump\t// in\n    tag_308:\n        /* \"#utility.yul\":15412:15484   */\n      tag_309\n        /* \"#utility.yul\":15480:15482   */\n      0x40\n        /* \"#utility.yul\":15469:15478   */\n      dup4\n        /* \"#utility.yul\":15465:15483   */\n      add\n        /* \"#utility.yul\":15456:15462   */\n      dup5\n        /* \"#utility.yul\":15412:15484   */\n      tag_114\n      jump\t// in\n    tag_309:\n        /* \"#utility.yul\":15049:15491   */\n      swap5\n      swap4\n      pop\n      pop\n      pop\n      pop\n      jump\t// out\n        /* \"#utility.yul\":15497:15730   */\n    tag_99:\n        /* \"#utility.yul\":15536:15539   */\n      0x00\n        /* \"#utility.yul\":15559:15583   */\n      tag_311\n        /* \"#utility.yul\":15577:15582   */\n      dup3\n        /* \"#utility.yul\":15559:15583   */\n      tag_113\n      jump\t// in\n    tag_311:\n        /* \"#utility.yul\":15550:15583   */\n      swap2\n      pop\n        /* \"#utility.yul\":15605:15671   */\n      0xffffffffffffffffffffffffffffffffffffffffffffffffffffffffffffffff\n        /* \"#utility.yul\":15598:15603   */\n      dup3\n        /* \"#utility.yul\":15595:15672   */\n      sub\n        /* \"#utility.yul\":15592:15695   */\n      tag_312\n      jumpi\n        /* \"#utility.yul\":15675:15693   */\n      tag_313\n      tag_148\n      jump\t// in\n    tag_313:\n        /* \"#utility.yul\":15592:15695   */\n    tag_312:\n        /* \"#utility.yul\":15722:15723   */\n      0x01\n        /* \"#utility.yul\":15715:15720   */\n      dup3\n        /* \"#utility.yul\":15711:15724   */\n      add\n        /* \"#utility.yul\":15704:15724   */\n      swap1\n      pop\n        /* \"#utility.yul\":15497:15730   */\n      swap2\n      swap1\n      pop\n      jump\t// out\n        /* \"#utility.yul\":15736:15815   */\n    tag_154:\n        /* \"#utility.yul\":15775:15782   */\n      0x00\n        /* \"#utility.yul\":15804:15809   */\n      dup2\n        /* \"#utility.yul\":15793:15809   */\n      swap1\n      pop\n        /* \"#utility.yul\":15736:15815   */\n      swap2\n      swap1\n      pop\n      jump\t// out\n        /* \"#utility.yul\":15821:15978   */\n    tag_155:\n        /* \"#utility.yul\":15926:15971   */\n      tag_316\n        /* \"#utility.yul\":15946:15970   */\n      tag_317\n        /* \"#utility.yul\":15964:15969   */\n      dup3\n        /* \"#utility.yul\":15946:15970   */\n      tag_113\n      jump\t// in\n    tag_317:\n        /* \"#utility.yul\":15926:15971   */\n      tag_154\n      jump\t// in\n    tag_316:\n        /* \"#utility.yul\":15921:15924   */\n      dup3\n        /* \"#utility.yul\":15914:15972   */\n      mstore\n        /* \"#utility.yul\":15821:15978   */\n      pop\n      pop\n      jump\t// out\n        /* \"#utility.yul\":15984:16078   */\n    tag_156:\n        /* \"#utility.yul\":16017:16025   */\n      0x00\n        /* \"#utility.yul\":16065:16070   */\n      dup2\n        /* \"#utility.yul\":16061:16063   */\n      0x60\n        /* \"#utility.yul\":16057:16071   */\n      shl\n        /* \"#utility.yul\":16036:16071   */\n      swap1\n      pop\n        /* \"#utility.yul\":15984:16078   */\n      swap2\n      swap1\n      pop\n      jump\t// out\n        /* \"#utility.yul\":16084:16178   */\n    tag_157:\n        /* \"#utility.yul\":16123:16130   */\n      0x00\n        /* \"#utility.yul\":16152:16172   */\n      tag_320\n        /* \"#utility.yul\":16166:16171   */\n      dup3\n        /* \"#utility.yul\":16152:16172   */\n      tag_156\n      jump\t// in\n    tag_320:\n        /* \"#utility.yul\":16141:16172   */\n      swap1\n      pop\n        /* \"#utility.yul\":16084:16178   */\n      swap2\n      swap1\n      pop\n      jump\t// out\n        /* \"#utility.yul\":16184:16284   */\n    tag_158:\n        /* \"#utility.yul\":16223:16230   */\n      0x00\n        /* \"#utility.yul\":16252:16278   */\n      tag_322\n        /* \"#utility.yul\":16272:16277   */\n      dup3\n        /* \"#utility.yul\":16252:16278   */\n      tag_157\n      jump\t// in\n    tag_322:\n        /* \"#utility.yul\":16241:16278   */\n      swap1\n      pop\n        /* \"#utility.yul\":16184:16284   */\n      swap2\n      swap1\n      pop\n      jump\t// out\n        /* \"#utility.yul\":16290:16447   */\n    tag_159:\n        /* \"#utility.yul\":16395:16440   */\n      tag_324\n        /* \"#utility.yul\":16415:16439   */\n      tag_325\n        /* \"#utility.yul\":16433:16438   */\n      dup3\n        /* \"#utility.yul\":16415:16439   */\n      tag_121\n      jump\t// in\n    tag_325:\n        /* \"#utility.yul\":16395:16440   */\n      tag_158\n      jump\t// in\n    tag_324:\n        /* \"#utility.yul\":16390:16393   */\n      dup3\n        /* \"#utility.yul\":16383:16441   */\n      mstore\n        /* \"#utility.yul\":16290:16447   */\n      pop\n      pop\n      jump\t// out\n        /* \"#utility.yul\":16453:16991   */\n    tag_101:\n        /* \"#utility.yul\":16621:16624   */\n      0x00\n        /* \"#utility.yul\":16636:16711   */\n      tag_327\n        /* \"#utility.yul\":16707:16710   */\n      dup3\n        /* \"#utility.yul\":16698:16704   */\n      dup7\n        /* \"#utility.yul\":16636:16711   */\n      tag_155\n      jump\t// in\n    tag_327:\n        /* \"#utility.yul\":16736:16738   */\n      0x20\n        /* \"#utility.yul\":16731:16734   */\n      dup3\n        /* \"#utility.yul\":16727:16739   */\n      add\n        /* \"#utility.yul\":16720:16739   */\n      swap2\n      pop\n        /* \"#utility.yul\":16749:16824   */\n      tag_328\n        /* \"#utility.yul\":16820:16823   */\n      dup3\n        /* \"#utility.yul\":16811:16817   */\n      dup6\n        /* \"#utility.yul\":16749:16824   */\n      tag_159\n      jump\t// in\n    tag_328:\n        /* \"#utility.yul\":16849:16851   */\n      0x14\n        /* \"#utility.yul\":16844:16847   */\n      dup3\n        /* \"#utility.yul\":16840:16852   */\n      add\n        /* \"#utility.yul\":16833:16852   */\n      swap2\n      pop\n        /* \"#utility.yul\":16862:16937   */\n      tag_329\n        /* \"#utility.yul\":16933:16936   */\n      dup3\n        /* \"#utility.yul\":16924:16930   */\n      dup5\n        /* \"#utility.yul\":16862:16937   */\n      tag_155\n      jump\t// in\n    tag_329:\n        /* \"#utility.yul\":16962:16964   */\n      0x20\n        /* \"#utility.yul\":16957:16960   */\n      dup3\n        /* \"#utility.yul\":16953:16965   */\n      add\n        /* \"#utility.yul\":16946:16965   */\n      swap2\n      pop\n        /* \"#utility.yul\":16982:16985   */\n      dup2\n        /* \"#utility.yul\":16975:16985   */\n      swap1\n      pop\n        /* \"#utility.yul\":16453:16991   */\n      swap5\n      swap4\n      pop\n      pop\n      pop\n      pop\n      jump\t// out\n        /* \"#utility.yul\":16997:17177   */\n    tag_160:\n        /* \"#utility.yul\":17045:17122   */\n      0x4e487b7100000000000000000000000000000000000000000000000000000000\n        /* \"#utility.yul\":17042:17043   */\n      0x00\n        /* \"#utility.yul\":17035:17123   */\n      mstore\n        /* \"#utility.yul\":17142:17146   */\n      0x12\n        /* \"#utility.yul\":17139:17140   */\n      0x04\n        /* \"#utility.yul\":17132:17147   */\n      mstore\n        /* \"#utility.yul\":17166:17170   */\n      0x24\n        /* \"#utility.yul\":17163:17164   */\n      0x00\n        /* \"#utility.yul\":17156:17171   */\n      revert\n        /* \"#utility.yul\":17183:17359   */\n    tag_103:\n        /* \"#utility.yul\":17215:17216   */\n      0x00\n        /* \"#utility.yul\":17232:17252   */\n      tag_332\n        /* \"#utility.yul\":17250:17251   */\n      dup3\n        /* \"#utility.yul\":17232:17252   */\n      tag_113\n      jump\t// in\n    tag_332:\n        /* \"#utility.yul\":17227:17252   */\n      swap2\n      pop\n        /* \"#utility.yul\":17266:17286   */\n      tag_333\n        /* \"#utility.yul\":17284:17285   */\n      dup4\n        /* \"#utility.yul\":17266:17286   */\n      tag_113\n      jump\t// in\n    tag_333:\n        /* \"#utility.yul\":17261:17286   */\n      swap3\n      pop\n        /* \"#utility.yul\":17305:17306   */\n      dup3\n        /* \"#utility.yul\":17295:17330   */\n      tag_334\n      jumpi\n        /* \"#utility.yul\":17310:17328   */\n      tag_335\n      tag_160\n      jump\t// in\n    tag_335:\n        /* \"#utility.yul\":17295:17330   */\n    tag_334:\n        /* \"#utility.yul\":17351:17352   */\n      dup3\n        /* \"#utility.yul\":17348:17349   */\n      dup3\n        /* \"#utility.yul\":17344:17353   */\n      mod\n        /* \"#utility.yul\":17339:17353   */\n      swap1\n      pop\n        /* \"#utility.yul\":17183:17359   */\n      swap3\n      swap2\n      pop\n      pop\n      jump\t// out\n        /* \"#utility.yul\":17365:17450   */\n    tag_161:\n        /* \"#utility.yul\":17410:17417   */\n      0x00\n        /* \"#utility.yul\":17439:17444   */\n      dup2\n        /* \"#utility.yul\":17428:17444   */\n      swap1\n      pop\n        /* \"#utility.yul\":17365:17450   */\n      swap2\n      swap1\n      pop\n      jump\t// out\n        /* \"#utility.yul\":17456:17614   */\n    tag_162:\n        /* \"#utility.yul\":17514:17523   */\n      0x00\n        /* \"#utility.yul\":17547:17608   */\n      tag_338\n        /* \"#utility.yul\":17565:17607   */\n      tag_339\n        /* \"#utility.yul\":17574:17606   */\n      tag_340\n        /* \"#utility.yul\":17600:17605   */\n      dup5\n        /* \"#utility.yul\":17574:17606   */\n      tag_161\n      jump\t// in\n    tag_340:\n        /* \"#utility.yul\":17565:17607   */\n      tag_130\n      jump\t// in\n    tag_339:\n        /* \"#utility.yul\":17547:17608   */\n      tag_113\n      jump\t// in\n    tag_338:\n        /* \"#utility.yul\":17534:17608   */\n      swap1\n      pop\n        /* \"#utility.yul\":17456:17614   */\n      swap2\n      swap1\n      pop\n      jump\t// out\n        /* \"#utility.yul\":17620:17767   */\n    tag_163:\n        /* \"#utility.yul\":17715:17760   */\n      tag_342\n        /* \"#utility.yul\":17754:17759   */\n      dup2\n        /* \"#utility.yul\":17715:17760   */\n      tag_162\n      jump\t// in\n    tag_342:\n        /* \"#utility.yul\":17710:17713   */\n      dup3\n        /* \"#utility.yul\":17703:17761   */\n      mstore\n        /* \"#utility.yul\":17620:17767   */\n      pop\n      pop\n      jump\t// out\n        /* \"#utility.yul\":17773:18231   */\n    tag_106:\n        /* \"#utility.yul\":17930:17934   */\n      0x00\n        /* \"#utility.yul\":17968:17970   */\n      0x60\n        /* \"#utility.yul\":17957:17966   */\n      dup3\n        /* \"#utility.yul\":17953:17971   */\n      add\n        /* \"#utility.yul\":17945:17971   */\n      swap1\n      pop\n        /* \"#utility.yul\":17981:18052   */\n      tag_344\n        /* \"#utility.yul\":18049:18050   */\n      0x00\n        /* \"#utility.yul\":18038:18047   */\n      dup4\n        /* \"#utility.yul\":18034:18051   */\n      add\n        /* \"#utility.yul\":18025:18031   */\n      dup7\n        /* \"#utility.yul\":17981:18052   */\n      tag_122\n      jump\t// in\n    tag_344:\n        /* \"#utility.yul\":18062:18134   */\n      tag_345\n        /* \"#utility.yul\":18130:18132   */\n      0x20\n        /* \"#utility.yul\":18119:18128   */\n      dup4\n        /* \"#utility.yul\":18115:18133   */\n      add\n        /* \"#utility.yul\":18106:18112   */\n      dup6\n        /* \"#utility.yul\":18062:18134   */\n      tag_122\n      jump\t// in\n    tag_345:\n        /* \"#utility.yul\":18144:18224   */\n      tag_346\n        /* \"#utility.yul\":18220:18222   */\n      0x40\n        /* \"#utility.yul\":18209:18218   */\n      dup4\n        /* \"#utility.yul\":18205:18223   */\n      add\n        /* \"#utility.yul\":18196:18202   */\n      dup5\n        /* \"#utility.yul\":18144:18224   */\n      tag_163\n      jump\t// in\n    tag_346:\n        /* \"#utility.yul\":17773:18231   */\n      swap5\n      swap4\n      pop\n      pop\n      pop\n      pop\n      jump\t// out\n        /* \"#utility.yul\":18237:18585   */\n    tag_111:\n        /* \"#utility.yul\":18366:18370   */\n      0x00\n        /* \"#utility.yul\":18404:18406   */\n      0x40\n        /* \"#utility.yul\":18393:18402   */\n      dup3\n        /* \"#utility.yul\":18389:18407   */\n      add\n        /* \"#utility.yul\":18381:18407   */\n      swap1\n      pop\n        /* \"#utility.yul\":18417:18488   */\n      tag_348\n        /* \"#utility.yul\":18485:18486   */\n      0x00\n        /* \"#utility.yul\":18474:18483   */\n      dup4\n        /* \"#utility.yul\":18470:18487   */\n      add\n        /* \"#utility.yul\":18461:18467   */\n      dup6\n        /* \"#utility.yul\":18417:18488   */\n      tag_114\n      jump\t// in\n    tag_348:\n        /* \"#utility.yul\":18498:18578   */\n      tag_349\n        /* \"#utility.yul\":18574:18576   */\n      0x20\n        /* \"#utility.yul\":18563:18572   */\n      dup4\n        /* \"#utility.yul\":18559:18577   */\n      add\n        /* \"#utility.yul\":18550:18556   */\n      dup5\n        /* \"#utility.yul\":18498:18578   */\n      tag_163\n      jump\t// in\n    tag_349:\n        /* \"#utility.yul\":18237:18585   */\n      swap4\n      swap3\n      pop\n      pop\n      pop\n      jump\t// out\n\n    auxdata: 0xa26469706673582212202f4c2eaf6bd2df33a2474daa04e60de522df646c574ec9cfea4a240c603be55864736f6c63430008110033\n}\n",
				"bytecode": {
					"linkReferences": {},
					"object": "60a060405260006003553480156200001657600080fd5b506040516200182f3803806200182f83398181016040528101906200003c9190620000e1565b8073ffffffffffffffffffffffffffffffffffffffff1660808173ffffffffffffffffffffffffffffffffffffffff16815250505062000113565b600080fd5b600073ffffffffffffffffffffffffffffffffffffffff82169050919050565b6000620000a9826200007c565b9050919050565b620000bb816200009c565b8114620000c757600080fd5b50565b600081519050620000db81620000b0565b92915050565b600060208284031215620000fa57620000f962000077565b5b60006200010a84828501620000ca565b91505092915050565b6080516116e46200014b60003960008181610405015281816106a20152818161093801528181610a830152610b8c01526116e46000f3fe608060405234801561001057600080fd5b50600436106100885760003560e01c8063941e95521161005b578063941e955214610118578063aa4fb63a14610134578063fc0c546a14610164578063fde327be1461018257610088565b806306661abd1461008d578063141961bc146100ab578063278ecde1146100e0578063379607f5146100fc575b600080fd5b61009561019e565b6040516100a29190610d11565b60405180910390f35b6100c560048036038101906100c09190610d5d565b6101a4565b6040516100d796959493929190610de6565b60405180910390f35b6100fa60048036038101906100f59190610d5d565b61020d565b005b61011660048036038101906101119190610d5d565b6104f7565b005b610132600480360381019061012d9190610e83565b6107a2565b005b61014e60048036038101906101499190610eef565b610911565b60405161015b9190610d11565b60405180910390f35b61016c610936565b6040516101799190610f8e565b60405180910390f35b61019c60048036038101906101979190610fa9565b61095a565b005b60005481565b60016020528060005260406000206000915090508060000160009054906101000a900473ffffffffffffffffffffffffffffffffffffffff16908060010154908060020154908060030154908060040154908060050160009054906101000a900460ff16905086565b6000600160008381526020019081526020016000206040518060c00160405290816000820160009054906101000a900473ffffffffffffffffffffffffffffffffffffffff1673ffffffffffffffffffffffffffffffffffffffff1673ffffffffffffffffffffffffffffffffffffffff168152602001600182015481526020016002820154815260200160038201548152602001600482015481526020016005820160009054906101000a900460ff16151515158152505090508060800151421161030e576040517f08c379a000000000000000000000000000000000000000000000000000000000815260040161030590611046565b60405180910390fd5b8060200151816040015110610358576040517f08c379a000000000000000000000000000000000000000000000000000000000815260040161034f906110d8565b60405180910390fd5b60006002600084815260200190815260200160002060003373ffffffffffffffffffffffffffffffffffffffff1673ffffffffffffffffffffffffffffffffffffffff16815260200190815260200160002054905060006002600085815260200190815260200160002060003373ffffffffffffffffffffffffffffffffffffffff1673ffffffffffffffffffffffffffffffffffffffff168152602001908152602001600020819055507f000000000000000000000000000000000000000000000000000000000000000073ffffffffffffffffffffffffffffffffffffffff1663a9059cbb33836040518363ffffffff1660e01b815260040161045e9291906110f8565b6020604051808303816000875af115801561047d573d6000803e3d6000fd5b505050506040513d601f19601f820116820180604052508101906104a1919061114d565b503373ffffffffffffffffffffffffffffffffffffffff167f21e12a7cad0da5928167e1084ea4d5fdf8d9af66657a2543a9ac76a0ca08147784836040516104ea92919061117a565b60405180910390a2505050565b60006001600083815260200190815260200160002090503373ffffffffffffffffffffffffffffffffffffffff168160000160009054906101000a900473ffffffffffffffffffffffffffffffffffffffff1673ffffffffffffffffffffffffffffffffffffffff16146105a0576040517f08c379a000000000000000000000000000000000000000000000000000000000815260040161059790611215565b60405180910390fd5b806004015442116105e6576040517f08c379a00000000000000000000000000000000000000000000000000000000081526004016105dd90611046565b60405180910390fd5b806001015481600201541015610631576040517f08c379a000000000000000000000000000000000000000000000000000000000815260040161062890611281565b60405180910390fd5b8060050160009054906101000a900460ff1615610683576040517f08c379a000000000000000000000000000000000000000000000000000000000815260040161067a906112ed565b60405180910390fd5b60018160050160006101000a81548160ff0219169083151502179055507f000000000000000000000000000000000000000000000000000000000000000073ffffffffffffffffffffffffffffffffffffffff1663a9059cbb8260000160009054906101000a900473ffffffffffffffffffffffffffffffffffffffff1683600201546040518363ffffffff1660e01b81526004016107239291906110f8565b6020604051808303816000875af1158015610742573d6000803e3d6000fd5b505050506040513d601f19601f82011682018060405250810190610766919061114d565b507f7bb2b3c10797baccb6f8c4791f1edd6ca2f0d028ee0eda64b01a9a57e3a653f7826040516107969190610d11565b60405180910390a15050565b60016000808282546107b4919061133c565b925050819055506040518060c001604052803373ffffffffffffffffffffffffffffffffffffffff168152602001838152602001600081526020014281526020018263ffffffff1642610807919061133c565b815260200160001515815250600160008054815260200190815260200160002060008201518160000160006101000a81548173ffffffffffffffffffffffffffffffffffffffff021916908373ffffffffffffffffffffffffffffffffffffffff1602179055506020820151816001015560408201518160020155606082015181600301556080820151816004015560a08201518160050160006101000a81548160ff0219169083151502179055509050503373ffffffffffffffffffffffffffffffffffffffff167f7bd7e1ede4ce27a61039c25f909f871ab820f6d4b91f1ceb1330ee2ba499aef360005484846040516109059392919061137f565b60405180910390a25050565b6002602052816000526040600020602052806000526040600020600091509150505481565b7f000000000000000000000000000000000000000000000000000000000000000081565b600060016000848152602001908152602001600020905080600301544210156109b8576040517f08c379a00000000000000000000000000000000000000000000000000000000081526004016109af90611402565b60405180910390fd5b80600401544211156109ff576040517f08c379a00000000000000000000000000000000000000000000000000000000081526004016109f69061146e565b60405180910390fd5b81816002016000828254610a13919061133c565b92505081905550816002600085815260200190815260200160002060003373ffffffffffffffffffffffffffffffffffffffff1673ffffffffffffffffffffffffffffffffffffffff1681526020019081526020016000206000828254610a7a919061133c565b925050819055507f000000000000000000000000000000000000000000000000000000000000000073ffffffffffffffffffffffffffffffffffffffff166323b872dd3330856040518463ffffffff1660e01b8152600401610ade9392919061148e565b6020604051808303816000875af1158015610afd573d6000803e3d6000fd5b505050506040513d601f19601f82011682018060405250810190610b21919061114d565b5060328210610ca45760036000815480929190610b3d906114c5565b9190505550600060024233600354604051602001610b5d93929190611576565b6040516020818303038152906040528051906020012060001c610b8091906115e2565b905060018103610ca2577f000000000000000000000000000000000000000000000000000000000000000073ffffffffffffffffffffffffffffffffffffffff166323b872dd8360000160009054906101000a900473ffffffffffffffffffffffffffffffffffffffff163360056040518463ffffffff1660e01b8152600401610c0c9392919061164e565b6020604051808303816000875af1158015610c2b573d6000803e3d6000fd5b505050506040513d601f19601f82011682018060405250810190610c4f919061114d565b503373ffffffffffffffffffffffffffffffffffffffff167f02a6a2be713fedf52f113c0a759f1c1a23a113476d9b1b1a2a453c910660de4e826005604051610c99929190611685565b60405180910390a25b505b3373ffffffffffffffffffffffffffffffffffffffff16837f06bdb975df800a73232998e71ed585d536222f1dfeaa622d7f62a23ada686c8284604051610ceb9190610d11565b60405180910390a3505050565b6000819050919050565b610d0b81610cf8565b82525050565b6000602082019050610d266000830184610d02565b92915050565b600080fd5b610d3a81610cf8565b8114610d4557600080fd5b50565b600081359050610d5781610d31565b92915050565b600060208284031215610d7357610d72610d2c565b5b6000610d8184828501610d48565b91505092915050565b600073ffffffffffffffffffffffffffffffffffffffff82169050919050565b6000610db582610d8a565b9050919050565b610dc581610daa565b82525050565b60008115159050919050565b610de081610dcb565b82525050565b600060c082019050610dfb6000830189610dbc565b610e086020830188610d02565b610e156040830187610d02565b610e226060830186610d02565b610e2f6080830185610d02565b610e3c60a0830184610dd7565b979650505050505050565b600063ffffffff82169050919050565b610e6081610e47565b8114610e6b57600080fd5b50565b600081359050610e7d81610e57565b92915050565b60008060408385031215610e9a57610e99610d2c565b5b6000610ea885828601610d48565b9250506020610eb985828601610e6e565b9150509250929050565b610ecc81610daa565b8114610ed757600080fd5b50565b600081359050610ee981610ec3565b92915050565b60008060408385031215610f0657610f05610d2c565b5b6000610f1485828601610d48565b9250506020610f2585828601610eda565b9150509250929050565b6000819050919050565b6000610f54610f4f610f4a84610d8a565b610f2f565b610d8a565b9050919050565b6000610f6682610f39565b9050919050565b6000610f7882610f5b565b9050919050565b610f8881610f6d565b82525050565b6000602082019050610fa36000830184610f7f565b92915050565b60008060408385031215610fc057610fbf610d2c565b5b6000610fce85828601610d48565b9250506020610fdf85828601610d48565b9150509250929050565b600082825260208201905092915050565b7f43616d706169676e206e6f7420656e6465640000000000000000000000000000600082015250565b6000611030601283610fe9565b915061103b82610ffa565b602082019050919050565b6000602082019050818103600083015261105f81611023565b9050919050565b7f54686520676f616c20686173206265656e207265616368656420736f20796f7560008201527f2063616e277420636c61696d0000000000000000000000000000000000000000602082015250565b60006110c2602c83610fe9565b91506110cd82611066565b604082019050919050565b600060208201905081810360008301526110f1816110b5565b9050919050565b600060408201905061110d6000830185610dbc565b61111a6020830184610d02565b9392505050565b61112a81610dcb565b811461113557600080fd5b50565b60008151905061114781611121565b92915050565b60006020828403121561116357611162610d2c565b5b600061117184828501611138565b91505092915050565b600060408201905061118f6000830185610d02565b61119c6020830184610d02565b9392505050565b7f596f75277265206e6f74207468652063726561746f72206f662074686520636160008201527f6d706169676e0000000000000000000000000000000000000000000000000000602082015250565b60006111ff602683610fe9565b915061120a826111a3565b604082019050919050565b6000602082019050818103600083015261122e816111f2565b9050919050565b7f54686520676f616c20686173206e6f74206265656e2072656163686564000000600082015250565b600061126b601d83610fe9565b915061127682611235565b602082019050919050565b6000602082019050818103600083015261129a8161125e565b9050919050565b7f43616d706169676e20616c726561647920636c61696d65640000000000000000600082015250565b60006112d7601883610fe9565b91506112e2826112a1565b602082019050919050565b60006020820190508181036000830152611306816112ca565b9050919050565b7f4e487b7100000000000000000000000000000000000000000000000000000000600052601160045260246000fd5b600061134782610cf8565b915061135283610cf8565b925082820190508082111561136a5761136961130d565b5b92915050565b61137981610e47565b82525050565b60006060820190506113946000830186610d02565b6113a16020830185610d02565b6113ae6040830184611370565b949350505050565b7f43616d706169676e206e6f742073746172746564000000000000000000000000600082015250565b60006113ec601483610fe9565b91506113f7826113b6565b602082019050919050565b6000602082019050818103600083015261141b816113df565b9050919050565b7f43616d706169676e20656e646564000000000000000000000000000000000000600082015250565b6000611458600e83610fe9565b915061146382611422565b602082019050919050565b600060208201905081810360008301526114878161144b565b9050919050565b60006060820190506114a36000830186610dbc565b6114b06020830185610dbc565b6114bd6040830184610d02565b949350505050565b60006114d082610cf8565b91507fffffffffffffffffffffffffffffffffffffffffffffffffffffffffffffffff82036115025761150161130d565b5b600182019050919050565b6000819050919050565b61152861152382610cf8565b61150d565b82525050565b60008160601b9050919050565b60006115468261152e565b9050919050565b60006115588261153b565b9050919050565b61157061156b82610daa565b61154d565b82525050565b60006115828286611517565b602082019150611592828561155f565b6014820191506115a28284611517565b602082019150819050949350505050565b7f4e487b7100000000000000000000000000000000000000000000000000000000600052601260045260246000fd5b60006115ed82610cf8565b91506115f883610cf8565b925082611608576116076115b3565b5b828206905092915050565b6000819050919050565b600061163861163361162e84611613565b610f2f565b610cf8565b9050919050565b6116488161161d565b82525050565b60006060820190506116636000830186610dbc565b6116706020830185610dbc565b61167d604083018461163f565b949350505050565b600060408201905061169a6000830185610d02565b6116a7602083018461163f565b939250505056fea26469706673582212202f4c2eaf6bd2df33a2474daa04e60de522df646c574ec9cfea4a240c603be55864736f6c63430008110033",
					"opcodes": "PUSH1 0xA0 PUSH1 0x40 MSTORE PUSH1 0x0 PUSH1 0x3 SSTORE CALLVALUE DUP1 ISZERO PUSH3 0x16 JUMPI PUSH1 0x0 DUP1 REVERT JUMPDEST POP PUSH1 0x40 MLOAD PUSH3 0x182F CODESIZE SUB DUP1 PUSH3 0x182F DUP4 CODECOPY DUP2 DUP2 ADD PUSH1 0x40 MSTORE DUP2 ADD SWAP1 PUSH3 0x3C SWAP2 SWAP1 PUSH3 0xE1 JUMP JUMPDEST DUP1 PUSH20 0xFFFFFFFFFFFFFFFFFFFFFFFFFFFFFFFFFFFFFFFF AND PUSH1 0x80 DUP2 PUSH20 0xFFFFFFFFFFFFFFFFFFFFFFFFFFFFFFFFFFFFFFFF AND DUP2 MSTORE POP POP POP PUSH3 0x113 JUMP JUMPDEST PUSH1 0x0 DUP1 REVERT JUMPDEST PUSH1 0x0 PUSH20 0xFFFFFFFFFFFFFFFFFFFFFFFFFFFFFFFFFFFFFFFF DUP3 AND SWAP1 POP SWAP2 SWAP1 POP JUMP JUMPDEST PUSH1 0x0 PUSH3 0xA9 DUP3 PUSH3 0x7C JUMP JUMPDEST SWAP1 POP SWAP2 SWAP1 POP JUMP JUMPDEST PUSH3 0xBB DUP2 PUSH3 0x9C JUMP JUMPDEST DUP2 EQ PUSH3 0xC7 JUMPI PUSH1 0x0 DUP1 REVERT JUMPDEST POP JUMP JUMPDEST PUSH1 0x0 DUP2 MLOAD SWAP1 POP PUSH3 0xDB DUP2 PUSH3 0xB0 JUMP JUMPDEST SWAP3 SWAP2 POP POP JUMP JUMPDEST PUSH1 0x0 PUSH1 0x20 DUP3 DUP5 SUB SLT ISZERO PUSH3 0xFA JUMPI PUSH3 0xF9 PUSH3 0x77 JUMP JUMPDEST JUMPDEST PUSH1 0x0 PUSH3 0x10A DUP5 DUP3 DUP6 ADD PUSH3 0xCA JUMP JUMPDEST SWAP2 POP POP SWAP3 SWAP2 POP POP JUMP JUMPDEST PUSH1 0x80 MLOAD PUSH2 0x16E4 PUSH3 0x14B PUSH1 0x0 CODECOPY PUSH1 0x0 DUP2 DUP2 PUSH2 0x405 ADD MSTORE DUP2 DUP2 PUSH2 0x6A2 ADD MSTORE DUP2 DUP2 PUSH2 0x938 ADD MSTORE DUP2 DUP2 PUSH2 0xA83 ADD MSTORE PUSH2 0xB8C ADD MSTORE PUSH2 0x16E4 PUSH1 0x0 RETURN INVALID PUSH1 0x80 PUSH1 0x40 MSTORE CALLVALUE DUP1 ISZERO PUSH2 0x10 JUMPI PUSH1 0x0 DUP1 REVERT JUMPDEST POP PUSH1 0x4 CALLDATASIZE LT PUSH2 0x88 JUMPI PUSH1 0x0 CALLDATALOAD PUSH1 0xE0 SHR DUP1 PUSH4 0x941E9552 GT PUSH2 0x5B JUMPI DUP1 PUSH4 0x941E9552 EQ PUSH2 0x118 JUMPI DUP1 PUSH4 0xAA4FB63A EQ PUSH2 0x134 JUMPI DUP1 PUSH4 0xFC0C546A EQ PUSH2 0x164 JUMPI DUP1 PUSH4 0xFDE327BE EQ PUSH2 0x182 JUMPI PUSH2 0x88 JUMP JUMPDEST DUP1 PUSH4 0x6661ABD EQ PUSH2 0x8D JUMPI DUP1 PUSH4 0x141961BC EQ PUSH2 0xAB JUMPI DUP1 PUSH4 0x278ECDE1 EQ PUSH2 0xE0 JUMPI DUP1 PUSH4 0x379607F5 EQ PUSH2 0xFC JUMPI JUMPDEST PUSH1 0x0 DUP1 REVERT JUMPDEST PUSH2 0x95 PUSH2 0x19E JUMP JUMPDEST PUSH1 0x40 MLOAD PUSH2 0xA2 SWAP2 SWAP1 PUSH2 0xD11 JUMP JUMPDEST PUSH1 0x40 MLOAD DUP1 SWAP2 SUB SWAP1 RETURN JUMPDEST PUSH2 0xC5 PUSH1 0x4 DUP1 CALLDATASIZE SUB DUP2 ADD SWAP1 PUSH2 0xC0 SWAP2 SWAP1 PUSH2 0xD5D JUMP JUMPDEST PUSH2 0x1A4 JUMP JUMPDEST PUSH1 0x40 MLOAD PUSH2 0xD7 SWAP7 SWAP6 SWAP5 SWAP4 SWAP3 SWAP2 SWAP1 PUSH2 0xDE6 JUMP JUMPDEST PUSH1 0x40 MLOAD DUP1 SWAP2 SUB SWAP1 RETURN JUMPDEST PUSH2 0xFA PUSH1 0x4 DUP1 CALLDATASIZE SUB DUP2 ADD SWAP1 PUSH2 0xF5 SWAP2 SWAP1 PUSH2 0xD5D JUMP JUMPDEST PUSH2 0x20D JUMP JUMPDEST STOP JUMPDEST PUSH2 0x116 PUSH1 0x4 DUP1 CALLDATASIZE SUB DUP2 ADD SWAP1 PUSH2 0x111 SWAP2 SWAP1 PUSH2 0xD5D JUMP JUMPDEST PUSH2 0x4F7 JUMP JUMPDEST STOP JUMPDEST PUSH2 0x132 PUSH1 0x4 DUP1 CALLDATASIZE SUB DUP2 ADD SWAP1 PUSH2 0x12D SWAP2 SWAP1 PUSH2 0xE83 JUMP JUMPDEST PUSH2 0x7A2 JUMP JUMPDEST STOP JUMPDEST PUSH2 0x14E PUSH1 0x4 DUP1 CALLDATASIZE SUB DUP2 ADD SWAP1 PUSH2 0x149 SWAP2 SWAP1 PUSH2 0xEEF JUMP JUMPDEST PUSH2 0x911 JUMP JUMPDEST PUSH1 0x40 MLOAD PUSH2 0x15B SWAP2 SWAP1 PUSH2 0xD11 JUMP JUMPDEST PUSH1 0x40 MLOAD DUP1 SWAP2 SUB SWAP1 RETURN JUMPDEST PUSH2 0x16C PUSH2 0x936 JUMP JUMPDEST PUSH1 0x40 MLOAD PUSH2 0x179 SWAP2 SWAP1 PUSH2 0xF8E JUMP JUMPDEST PUSH1 0x40 MLOAD DUP1 SWAP2 SUB SWAP1 RETURN JUMPDEST PUSH2 0x19C PUSH1 0x4 DUP1 CALLDATASIZE SUB DUP2 ADD SWAP1 PUSH2 0x197 SWAP2 SWAP1 PUSH2 0xFA9 JUMP JUMPDEST PUSH2 0x95A JUMP JUMPDEST STOP JUMPDEST PUSH1 0x0 SLOAD DUP2 JUMP JUMPDEST PUSH1 0x1 PUSH1 0x20 MSTORE DUP1 PUSH1 0x0 MSTORE PUSH1 0x40 PUSH1 0x0 KECCAK256 PUSH1 0x0 SWAP2 POP SWAP1 POP DUP1 PUSH1 0x0 ADD PUSH1 0x0 SWAP1 SLOAD SWAP1 PUSH2 0x100 EXP SWAP1 DIV PUSH20 0xFFFFFFFFFFFFFFFFFFFFFFFFFFFFFFFFFFFFFFFF AND SWAP1 DUP1 PUSH1 0x1 ADD SLOAD SWAP1 DUP1 PUSH1 0x2 ADD SLOAD SWAP1 DUP1 PUSH1 0x3 ADD SLOAD SWAP1 DUP1 PUSH1 0x4 ADD SLOAD SWAP1 DUP1 PUSH1 0x5 ADD PUSH1 0x0 SWAP1 SLOAD SWAP1 PUSH2 0x100 EXP SWAP1 DIV PUSH1 0xFF AND SWAP1 POP DUP7 JUMP JUMPDEST PUSH1 0x0 PUSH1 0x1 PUSH1 0x0 DUP4 DUP2 MSTORE PUSH1 0x20 ADD SWAP1 DUP2 MSTORE PUSH1 0x20 ADD PUSH1 0x0 KECCAK256 PUSH1 0x40 MLOAD DUP1 PUSH1 0xC0 ADD PUSH1 0x40 MSTORE SWAP1 DUP2 PUSH1 0x0 DUP3 ADD PUSH1 0x0 SWAP1 SLOAD SWAP1 PUSH2 0x100 EXP SWAP1 DIV PUSH20 0xFFFFFFFFFFFFFFFFFFFFFFFFFFFFFFFFFFFFFFFF AND PUSH20 0xFFFFFFFFFFFFFFFFFFFFFFFFFFFFFFFFFFFFFFFF AND PUSH20 0xFFFFFFFFFFFFFFFFFFFFFFFFFFFFFFFFFFFFFFFF AND DUP2 MSTORE PUSH1 0x20 ADD PUSH1 0x1 DUP3 ADD SLOAD DUP2 MSTORE PUSH1 0x20 ADD PUSH1 0x2 DUP3 ADD SLOAD DUP2 MSTORE PUSH1 0x20 ADD PUSH1 0x3 DUP3 ADD SLOAD DUP2 MSTORE PUSH1 0x20 ADD PUSH1 0x4 DUP3 ADD SLOAD DUP2 MSTORE PUSH1 0x20 ADD PUSH1 0x5 DUP3 ADD PUSH1 0x0 SWAP1 SLOAD SWAP1 PUSH2 0x100 EXP SWAP1 DIV PUSH1 0xFF AND ISZERO ISZERO ISZERO ISZERO DUP2 MSTORE POP POP SWAP1 POP DUP1 PUSH1 0x80 ADD MLOAD TIMESTAMP GT PUSH2 0x30E JUMPI PUSH1 0x40 MLOAD PUSH32 0x8C379A000000000000000000000000000000000000000000000000000000000 DUP2 MSTORE PUSH1 0x4 ADD PUSH2 0x305 SWAP1 PUSH2 0x1046 JUMP JUMPDEST PUSH1 0x40 MLOAD DUP1 SWAP2 SUB SWAP1 REVERT JUMPDEST DUP1 PUSH1 0x20 ADD MLOAD DUP2 PUSH1 0x40 ADD MLOAD LT PUSH2 0x358 JUMPI PUSH1 0x40 MLOAD PUSH32 0x8C379A000000000000000000000000000000000000000000000000000000000 DUP2 MSTORE PUSH1 0x4 ADD PUSH2 0x34F SWAP1 PUSH2 0x10D8 JUMP JUMPDEST PUSH1 0x40 MLOAD DUP1 SWAP2 SUB SWAP1 REVERT JUMPDEST PUSH1 0x0 PUSH1 0x2 PUSH1 0x0 DUP5 DUP2 MSTORE PUSH1 0x20 ADD SWAP1 DUP2 MSTORE PUSH1 0x20 ADD PUSH1 0x0 KECCAK256 PUSH1 0x0 CALLER PUSH20 0xFFFFFFFFFFFFFFFFFFFFFFFFFFFFFFFFFFFFFFFF AND PUSH20 0xFFFFFFFFFFFFFFFFFFFFFFFFFFFFFFFFFFFFFFFF AND DUP2 MSTORE PUSH1 0x20 ADD SWAP1 DUP2 MSTORE PUSH1 0x20 ADD PUSH1 0x0 KECCAK256 SLOAD SWAP1 POP PUSH1 0x0 PUSH1 0x2 PUSH1 0x0 DUP6 DUP2 MSTORE PUSH1 0x20 ADD SWAP1 DUP2 MSTORE PUSH1 0x20 ADD PUSH1 0x0 KECCAK256 PUSH1 0x0 CALLER PUSH20 0xFFFFFFFFFFFFFFFFFFFFFFFFFFFFFFFFFFFFFFFF AND PUSH20 0xFFFFFFFFFFFFFFFFFFFFFFFFFFFFFFFFFFFFFFFF AND DUP2 MSTORE PUSH1 0x20 ADD SWAP1 DUP2 MSTORE PUSH1 0x20 ADD PUSH1 0x0 KECCAK256 DUP2 SWAP1 SSTORE POP PUSH32 0x0 PUSH20 0xFFFFFFFFFFFFFFFFFFFFFFFFFFFFFFFFFFFFFFFF AND PUSH4 0xA9059CBB CALLER DUP4 PUSH1 0x40 MLOAD DUP4 PUSH4 0xFFFFFFFF AND PUSH1 0xE0 SHL DUP2 MSTORE PUSH1 0x4 ADD PUSH2 0x45E SWAP3 SWAP2 SWAP1 PUSH2 0x10F8 JUMP JUMPDEST PUSH1 0x20 PUSH1 0x40 MLOAD DUP1 DUP4 SUB DUP2 PUSH1 0x0 DUP8 GAS CALL ISZERO DUP1 ISZERO PUSH2 0x47D JUMPI RETURNDATASIZE PUSH1 0x0 DUP1 RETURNDATACOPY RETURNDATASIZE PUSH1 0x0 REVERT JUMPDEST POP POP POP POP PUSH1 0x40 MLOAD RETURNDATASIZE PUSH1 0x1F NOT PUSH1 0x1F DUP3 ADD AND DUP3 ADD DUP1 PUSH1 0x40 MSTORE POP DUP2 ADD SWAP1 PUSH2 0x4A1 SWAP2 SWAP1 PUSH2 0x114D JUMP JUMPDEST POP CALLER PUSH20 0xFFFFFFFFFFFFFFFFFFFFFFFFFFFFFFFFFFFFFFFF AND PUSH32 0x21E12A7CAD0DA5928167E1084EA4D5FDF8D9AF66657A2543A9AC76A0CA081477 DUP5 DUP4 PUSH1 0x40 MLOAD PUSH2 0x4EA SWAP3 SWAP2 SWAP1 PUSH2 0x117A JUMP JUMPDEST PUSH1 0x40 MLOAD DUP1 SWAP2 SUB SWAP1 LOG2 POP POP POP JUMP JUMPDEST PUSH1 0x0 PUSH1 0x1 PUSH1 0x0 DUP4 DUP2 MSTORE PUSH1 0x20 ADD SWAP1 DUP2 MSTORE PUSH1 0x20 ADD PUSH1 0x0 KECCAK256 SWAP1 POP CALLER PUSH20 0xFFFFFFFFFFFFFFFFFFFFFFFFFFFFFFFFFFFFFFFF AND DUP2 PUSH1 0x0 ADD PUSH1 0x0 SWAP1 SLOAD SWAP1 PUSH2 0x100 EXP SWAP1 DIV PUSH20 0xFFFFFFFFFFFFFFFFFFFFFFFFFFFFFFFFFFFFFFFF AND PUSH20 0xFFFFFFFFFFFFFFFFFFFFFFFFFFFFFFFFFFFFFFFF AND EQ PUSH2 0x5A0 JUMPI PUSH1 0x40 MLOAD PUSH32 0x8C379A000000000000000000000000000000000000000000000000000000000 DUP2 MSTORE PUSH1 0x4 ADD PUSH2 0x597 SWAP1 PUSH2 0x1215 JUMP JUMPDEST PUSH1 0x40 MLOAD DUP1 SWAP2 SUB SWAP1 REVERT JUMPDEST DUP1 PUSH1 0x4 ADD SLOAD TIMESTAMP GT PUSH2 0x5E6 JUMPI PUSH1 0x40 MLOAD PUSH32 0x8C379A000000000000000000000000000000000000000000000000000000000 DUP2 MSTORE PUSH1 0x4 ADD PUSH2 0x5DD SWAP1 PUSH2 0x1046 JUMP JUMPDEST PUSH1 0x40 MLOAD DUP1 SWAP2 SUB SWAP1 REVERT JUMPDEST DUP1 PUSH1 0x1 ADD SLOAD DUP2 PUSH1 0x2 ADD SLOAD LT ISZERO PUSH2 0x631 JUMPI PUSH1 0x40 MLOAD PUSH32 0x8C379A000000000000000000000000000000000000000000000000000000000 DUP2 MSTORE PUSH1 0x4 ADD PUSH2 0x628 SWAP1 PUSH2 0x1281 JUMP JUMPDEST PUSH1 0x40 MLOAD DUP1 SWAP2 SUB SWAP1 REVERT JUMPDEST DUP1 PUSH1 0x5 ADD PUSH1 0x0 SWAP1 SLOAD SWAP1 PUSH2 0x100 EXP SWAP1 DIV PUSH1 0xFF AND ISZERO PUSH2 0x683 JUMPI PUSH1 0x40 MLOAD PUSH32 0x8C379A000000000000000000000000000000000000000000000000000000000 DUP2 MSTORE PUSH1 0x4 ADD PUSH2 0x67A SWAP1 PUSH2 0x12ED JUMP JUMPDEST PUSH1 0x40 MLOAD DUP1 SWAP2 SUB SWAP1 REVERT JUMPDEST PUSH1 0x1 DUP2 PUSH1 0x5 ADD PUSH1 0x0 PUSH2 0x100 EXP DUP2 SLOAD DUP2 PUSH1 0xFF MUL NOT AND SWAP1 DUP4 ISZERO ISZERO MUL OR SWAP1 SSTORE POP PUSH32 0x0 PUSH20 0xFFFFFFFFFFFFFFFFFFFFFFFFFFFFFFFFFFFFFFFF AND PUSH4 0xA9059CBB DUP3 PUSH1 0x0 ADD PUSH1 0x0 SWAP1 SLOAD SWAP1 PUSH2 0x100 EXP SWAP1 DIV PUSH20 0xFFFFFFFFFFFFFFFFFFFFFFFFFFFFFFFFFFFFFFFF AND DUP4 PUSH1 0x2 ADD SLOAD PUSH1 0x40 MLOAD DUP4 PUSH4 0xFFFFFFFF AND PUSH1 0xE0 SHL DUP2 MSTORE PUSH1 0x4 ADD PUSH2 0x723 SWAP3 SWAP2 SWAP1 PUSH2 0x10F8 JUMP JUMPDEST PUSH1 0x20 PUSH1 0x40 MLOAD DUP1 DUP4 SUB DUP2 PUSH1 0x0 DUP8 GAS CALL ISZERO DUP1 ISZERO PUSH2 0x742 JUMPI RETURNDATASIZE PUSH1 0x0 DUP1 RETURNDATACOPY RETURNDATASIZE PUSH1 0x0 REVERT JUMPDEST POP POP POP POP PUSH1 0x40 MLOAD RETURNDATASIZE PUSH1 0x1F NOT PUSH1 0x1F DUP3 ADD AND DUP3 ADD DUP1 PUSH1 0x40 MSTORE POP DUP2 ADD SWAP1 PUSH2 0x766 SWAP2 SWAP1 PUSH2 0x114D JUMP JUMPDEST POP PUSH32 0x7BB2B3C10797BACCB6F8C4791F1EDD6CA2F0D028EE0EDA64B01A9A57E3A653F7 DUP3 PUSH1 0x40 MLOAD PUSH2 0x796 SWAP2 SWAP1 PUSH2 0xD11 JUMP JUMPDEST PUSH1 0x40 MLOAD DUP1 SWAP2 SUB SWAP1 LOG1 POP POP JUMP JUMPDEST PUSH1 0x1 PUSH1 0x0 DUP1 DUP3 DUP3 SLOAD PUSH2 0x7B4 SWAP2 SWAP1 PUSH2 0x133C JUMP JUMPDEST SWAP3 POP POP DUP2 SWAP1 SSTORE POP PUSH1 0x40 MLOAD DUP1 PUSH1 0xC0 ADD PUSH1 0x40 MSTORE DUP1 CALLER PUSH20 0xFFFFFFFFFFFFFFFFFFFFFFFFFFFFFFFFFFFFFFFF AND DUP2 MSTORE PUSH1 0x20 ADD DUP4 DUP2 MSTORE PUSH1 0x20 ADD PUSH1 0x0 DUP2 MSTORE PUSH1 0x20 ADD TIMESTAMP DUP2 MSTORE PUSH1 0x20 ADD DUP3 PUSH4 0xFFFFFFFF AND TIMESTAMP PUSH2 0x807 SWAP2 SWAP1 PUSH2 0x133C JUMP JUMPDEST DUP2 MSTORE PUSH1 0x20 ADD PUSH1 0x0 ISZERO ISZERO DUP2 MSTORE POP PUSH1 0x1 PUSH1 0x0 DUP1 SLOAD DUP2 MSTORE PUSH1 0x20 ADD SWAP1 DUP2 MSTORE PUSH1 0x20 ADD PUSH1 0x0 KECCAK256 PUSH1 0x0 DUP3 ADD MLOAD DUP2 PUSH1 0x0 ADD PUSH1 0x0 PUSH2 0x100 EXP DUP2 SLOAD DUP2 PUSH20 0xFFFFFFFFFFFFFFFFFFFFFFFFFFFFFFFFFFFFFFFF MUL NOT AND SWAP1 DUP4 PUSH20 0xFFFFFFFFFFFFFFFFFFFFFFFFFFFFFFFFFFFFFFFF AND MUL OR SWAP1 SSTORE POP PUSH1 0x20 DUP3 ADD MLOAD DUP2 PUSH1 0x1 ADD SSTORE PUSH1 0x40 DUP3 ADD MLOAD DUP2 PUSH1 0x2 ADD SSTORE PUSH1 0x60 DUP3 ADD MLOAD DUP2 PUSH1 0x3 ADD SSTORE PUSH1 0x80 DUP3 ADD MLOAD DUP2 PUSH1 0x4 ADD SSTORE PUSH1 0xA0 DUP3 ADD MLOAD DUP2 PUSH1 0x5 ADD PUSH1 0x0 PUSH2 0x100 EXP DUP2 SLOAD DUP2 PUSH1 0xFF MUL NOT AND SWAP1 DUP4 ISZERO ISZERO MUL OR SWAP1 SSTORE POP SWAP1 POP POP CALLER PUSH20 0xFFFFFFFFFFFFFFFFFFFFFFFFFFFFFFFFFFFFFFFF AND PUSH32 0x7BD7E1EDE4CE27A61039C25F909F871AB820F6D4B91F1CEB1330EE2BA499AEF3 PUSH1 0x0 SLOAD DUP5 DUP5 PUSH1 0x40 MLOAD PUSH2 0x905 SWAP4 SWAP3 SWAP2 SWAP1 PUSH2 0x137F JUMP JUMPDEST PUSH1 0x40 MLOAD DUP1 SWAP2 SUB SWAP1 LOG2 POP POP JUMP JUMPDEST PUSH1 0x2 PUSH1 0x20 MSTORE DUP2 PUSH1 0x0 MSTORE PUSH1 0x40 PUSH1 0x0 KECCAK256 PUSH1 0x20 MSTORE DUP1 PUSH1 0x0 MSTORE PUSH1 0x40 PUSH1 0x0 KECCAK256 PUSH1 0x0 SWAP2 POP SWAP2 POP POP SLOAD DUP2 JUMP JUMPDEST PUSH32 0x0 DUP2 JUMP JUMPDEST PUSH1 0x0 PUSH1 0x1 PUSH1 0x0 DUP5 DUP2 MSTORE PUSH1 0x20 ADD SWAP1 DUP2 MSTORE PUSH1 0x20 ADD PUSH1 0x0 KECCAK256 SWAP1 POP DUP1 PUSH1 0x3 ADD SLOAD TIMESTAMP LT ISZERO PUSH2 0x9B8 JUMPI PUSH1 0x40 MLOAD PUSH32 0x8C379A000000000000000000000000000000000000000000000000000000000 DUP2 MSTORE PUSH1 0x4 ADD PUSH2 0x9AF SWAP1 PUSH2 0x1402 JUMP JUMPDEST PUSH1 0x40 MLOAD DUP1 SWAP2 SUB SWAP1 REVERT JUMPDEST DUP1 PUSH1 0x4 ADD SLOAD TIMESTAMP GT ISZERO PUSH2 0x9FF JUMPI PUSH1 0x40 MLOAD PUSH32 0x8C379A000000000000000000000000000000000000000000000000000000000 DUP2 MSTORE PUSH1 0x4 ADD PUSH2 0x9F6 SWAP1 PUSH2 0x146E JUMP JUMPDEST PUSH1 0x40 MLOAD DUP1 SWAP2 SUB SWAP1 REVERT JUMPDEST DUP2 DUP2 PUSH1 0x2 ADD PUSH1 0x0 DUP3 DUP3 SLOAD PUSH2 0xA13 SWAP2 SWAP1 PUSH2 0x133C JUMP JUMPDEST SWAP3 POP POP DUP2 SWAP1 SSTORE POP DUP2 PUSH1 0x2 PUSH1 0x0 DUP6 DUP2 MSTORE PUSH1 0x20 ADD SWAP1 DUP2 MSTORE PUSH1 0x20 ADD PUSH1 0x0 KECCAK256 PUSH1 0x0 CALLER PUSH20 0xFFFFFFFFFFFFFFFFFFFFFFFFFFFFFFFFFFFFFFFF AND PUSH20 0xFFFFFFFFFFFFFFFFFFFFFFFFFFFFFFFFFFFFFFFF AND DUP2 MSTORE PUSH1 0x20 ADD SWAP1 DUP2 MSTORE PUSH1 0x20 ADD PUSH1 0x0 KECCAK256 PUSH1 0x0 DUP3 DUP3 SLOAD PUSH2 0xA7A SWAP2 SWAP1 PUSH2 0x133C JUMP JUMPDEST SWAP3 POP POP DUP2 SWAP1 SSTORE POP PUSH32 0x0 PUSH20 0xFFFFFFFFFFFFFFFFFFFFFFFFFFFFFFFFFFFFFFFF AND PUSH4 0x23B872DD CALLER ADDRESS DUP6 PUSH1 0x40 MLOAD DUP5 PUSH4 0xFFFFFFFF AND PUSH1 0xE0 SHL DUP2 MSTORE PUSH1 0x4 ADD PUSH2 0xADE SWAP4 SWAP3 SWAP2 SWAP1 PUSH2 0x148E JUMP JUMPDEST PUSH1 0x20 PUSH1 0x40 MLOAD DUP1 DUP4 SUB DUP2 PUSH1 0x0 DUP8 GAS CALL ISZERO DUP1 ISZERO PUSH2 0xAFD JUMPI RETURNDATASIZE PUSH1 0x0 DUP1 RETURNDATACOPY RETURNDATASIZE PUSH1 0x0 REVERT JUMPDEST POP POP POP POP PUSH1 0x40 MLOAD RETURNDATASIZE PUSH1 0x1F NOT PUSH1 0x1F DUP3 ADD AND DUP3 ADD DUP1 PUSH1 0x40 MSTORE POP DUP2 ADD SWAP1 PUSH2 0xB21 SWAP2 SWAP1 PUSH2 0x114D JUMP JUMPDEST POP PUSH1 0x32 DUP3 LT PUSH2 0xCA4 JUMPI PUSH1 0x3 PUSH1 0x0 DUP2 SLOAD DUP1 SWAP3 SWAP2 SWAP1 PUSH2 0xB3D SWAP1 PUSH2 0x14C5 JUMP JUMPDEST SWAP2 SWAP1 POP SSTORE POP PUSH1 0x0 PUSH1 0x2 TIMESTAMP CALLER PUSH1 0x3 SLOAD PUSH1 0x40 MLOAD PUSH1 0x20 ADD PUSH2 0xB5D SWAP4 SWAP3 SWAP2 SWAP1 PUSH2 0x1576 JUMP JUMPDEST PUSH1 0x40 MLOAD PUSH1 0x20 DUP2 DUP4 SUB SUB DUP2 MSTORE SWAP1 PUSH1 0x40 MSTORE DUP1 MLOAD SWAP1 PUSH1 0x20 ADD KECCAK256 PUSH1 0x0 SHR PUSH2 0xB80 SWAP2 SWAP1 PUSH2 0x15E2 JUMP JUMPDEST SWAP1 POP PUSH1 0x1 DUP2 SUB PUSH2 0xCA2 JUMPI PUSH32 0x0 PUSH20 0xFFFFFFFFFFFFFFFFFFFFFFFFFFFFFFFFFFFFFFFF AND PUSH4 0x23B872DD DUP4 PUSH1 0x0 ADD PUSH1 0x0 SWAP1 SLOAD SWAP1 PUSH2 0x100 EXP SWAP1 DIV PUSH20 0xFFFFFFFFFFFFFFFFFFFFFFFFFFFFFFFFFFFFFFFF AND CALLER PUSH1 0x5 PUSH1 0x40 MLOAD DUP5 PUSH4 0xFFFFFFFF AND PUSH1 0xE0 SHL DUP2 MSTORE PUSH1 0x4 ADD PUSH2 0xC0C SWAP4 SWAP3 SWAP2 SWAP1 PUSH2 0x164E JUMP JUMPDEST PUSH1 0x20 PUSH1 0x40 MLOAD DUP1 DUP4 SUB DUP2 PUSH1 0x0 DUP8 GAS CALL ISZERO DUP1 ISZERO PUSH2 0xC2B JUMPI RETURNDATASIZE PUSH1 0x0 DUP1 RETURNDATACOPY RETURNDATASIZE PUSH1 0x0 REVERT JUMPDEST POP POP POP POP PUSH1 0x40 MLOAD RETURNDATASIZE PUSH1 0x1F NOT PUSH1 0x1F DUP3 ADD AND DUP3 ADD DUP1 PUSH1 0x40 MSTORE POP DUP2 ADD SWAP1 PUSH2 0xC4F SWAP2 SWAP1 PUSH2 0x114D JUMP JUMPDEST POP CALLER PUSH20 0xFFFFFFFFFFFFFFFFFFFFFFFFFFFFFFFFFFFFFFFF AND PUSH32 0x2A6A2BE713FEDF52F113C0A759F1C1A23A113476D9B1B1A2A453C910660DE4E DUP3 PUSH1 0x5 PUSH1 0x40 MLOAD PUSH2 0xC99 SWAP3 SWAP2 SWAP1 PUSH2 0x1685 JUMP JUMPDEST PUSH1 0x40 MLOAD DUP1 SWAP2 SUB SWAP1 LOG2 JUMPDEST POP JUMPDEST CALLER PUSH20 0xFFFFFFFFFFFFFFFFFFFFFFFFFFFFFFFFFFFFFFFF AND DUP4 PUSH32 0x6BDB975DF800A73232998E71ED585D536222F1DFEAA622D7F62A23ADA686C82 DUP5 PUSH1 0x40 MLOAD PUSH2 0xCEB SWAP2 SWAP1 PUSH2 0xD11 JUMP JUMPDEST PUSH1 0x40 MLOAD DUP1 SWAP2 SUB SWAP1 LOG3 POP POP POP JUMP JUMPDEST PUSH1 0x0 DUP2 SWAP1 POP SWAP2 SWAP1 POP JUMP JUMPDEST PUSH2 0xD0B DUP2 PUSH2 0xCF8 JUMP JUMPDEST DUP3 MSTORE POP POP JUMP JUMPDEST PUSH1 0x0 PUSH1 0x20 DUP3 ADD SWAP1 POP PUSH2 0xD26 PUSH1 0x0 DUP4 ADD DUP5 PUSH2 0xD02 JUMP JUMPDEST SWAP3 SWAP2 POP POP JUMP JUMPDEST PUSH1 0x0 DUP1 REVERT JUMPDEST PUSH2 0xD3A DUP2 PUSH2 0xCF8 JUMP JUMPDEST DUP2 EQ PUSH2 0xD45 JUMPI PUSH1 0x0 DUP1 REVERT JUMPDEST POP JUMP JUMPDEST PUSH1 0x0 DUP2 CALLDATALOAD SWAP1 POP PUSH2 0xD57 DUP2 PUSH2 0xD31 JUMP JUMPDEST SWAP3 SWAP2 POP POP JUMP JUMPDEST PUSH1 0x0 PUSH1 0x20 DUP3 DUP5 SUB SLT ISZERO PUSH2 0xD73 JUMPI PUSH2 0xD72 PUSH2 0xD2C JUMP JUMPDEST JUMPDEST PUSH1 0x0 PUSH2 0xD81 DUP5 DUP3 DUP6 ADD PUSH2 0xD48 JUMP JUMPDEST SWAP2 POP POP SWAP3 SWAP2 POP POP JUMP JUMPDEST PUSH1 0x0 PUSH20 0xFFFFFFFFFFFFFFFFFFFFFFFFFFFFFFFFFFFFFFFF DUP3 AND SWAP1 POP SWAP2 SWAP1 POP JUMP JUMPDEST PUSH1 0x0 PUSH2 0xDB5 DUP3 PUSH2 0xD8A JUMP JUMPDEST SWAP1 POP SWAP2 SWAP1 POP JUMP JUMPDEST PUSH2 0xDC5 DUP2 PUSH2 0xDAA JUMP JUMPDEST DUP3 MSTORE POP POP JUMP JUMPDEST PUSH1 0x0 DUP2 ISZERO ISZERO SWAP1 POP SWAP2 SWAP1 POP JUMP JUMPDEST PUSH2 0xDE0 DUP2 PUSH2 0xDCB JUMP JUMPDEST DUP3 MSTORE POP POP JUMP JUMPDEST PUSH1 0x0 PUSH1 0xC0 DUP3 ADD SWAP1 POP PUSH2 0xDFB PUSH1 0x0 DUP4 ADD DUP10 PUSH2 0xDBC JUMP JUMPDEST PUSH2 0xE08 PUSH1 0x20 DUP4 ADD DUP9 PUSH2 0xD02 JUMP JUMPDEST PUSH2 0xE15 PUSH1 0x40 DUP4 ADD DUP8 PUSH2 0xD02 JUMP JUMPDEST PUSH2 0xE22 PUSH1 0x60 DUP4 ADD DUP7 PUSH2 0xD02 JUMP JUMPDEST PUSH2 0xE2F PUSH1 0x80 DUP4 ADD DUP6 PUSH2 0xD02 JUMP JUMPDEST PUSH2 0xE3C PUSH1 0xA0 DUP4 ADD DUP5 PUSH2 0xDD7 JUMP JUMPDEST SWAP8 SWAP7 POP POP POP POP POP POP POP JUMP JUMPDEST PUSH1 0x0 PUSH4 0xFFFFFFFF DUP3 AND SWAP1 POP SWAP2 SWAP1 POP JUMP JUMPDEST PUSH2 0xE60 DUP2 PUSH2 0xE47 JUMP JUMPDEST DUP2 EQ PUSH2 0xE6B JUMPI PUSH1 0x0 DUP1 REVERT JUMPDEST POP JUMP JUMPDEST PUSH1 0x0 DUP2 CALLDATALOAD SWAP1 POP PUSH2 0xE7D DUP2 PUSH2 0xE57 JUMP JUMPDEST SWAP3 SWAP2 POP POP JUMP JUMPDEST PUSH1 0x0 DUP1 PUSH1 0x40 DUP4 DUP6 SUB SLT ISZERO PUSH2 0xE9A JUMPI PUSH2 0xE99 PUSH2 0xD2C JUMP JUMPDEST JUMPDEST PUSH1 0x0 PUSH2 0xEA8 DUP6 DUP3 DUP7 ADD PUSH2 0xD48 JUMP JUMPDEST SWAP3 POP POP PUSH1 0x20 PUSH2 0xEB9 DUP6 DUP3 DUP7 ADD PUSH2 0xE6E JUMP JUMPDEST SWAP2 POP POP SWAP3 POP SWAP3 SWAP1 POP JUMP JUMPDEST PUSH2 0xECC DUP2 PUSH2 0xDAA JUMP JUMPDEST DUP2 EQ PUSH2 0xED7 JUMPI PUSH1 0x0 DUP1 REVERT JUMPDEST POP JUMP JUMPDEST PUSH1 0x0 DUP2 CALLDATALOAD SWAP1 POP PUSH2 0xEE9 DUP2 PUSH2 0xEC3 JUMP JUMPDEST SWAP3 SWAP2 POP POP JUMP JUMPDEST PUSH1 0x0 DUP1 PUSH1 0x40 DUP4 DUP6 SUB SLT ISZERO PUSH2 0xF06 JUMPI PUSH2 0xF05 PUSH2 0xD2C JUMP JUMPDEST JUMPDEST PUSH1 0x0 PUSH2 0xF14 DUP6 DUP3 DUP7 ADD PUSH2 0xD48 JUMP JUMPDEST SWAP3 POP POP PUSH1 0x20 PUSH2 0xF25 DUP6 DUP3 DUP7 ADD PUSH2 0xEDA JUMP JUMPDEST SWAP2 POP POP SWAP3 POP SWAP3 SWAP1 POP JUMP JUMPDEST PUSH1 0x0 DUP2 SWAP1 POP SWAP2 SWAP1 POP JUMP JUMPDEST PUSH1 0x0 PUSH2 0xF54 PUSH2 0xF4F PUSH2 0xF4A DUP5 PUSH2 0xD8A JUMP JUMPDEST PUSH2 0xF2F JUMP JUMPDEST PUSH2 0xD8A JUMP JUMPDEST SWAP1 POP SWAP2 SWAP1 POP JUMP JUMPDEST PUSH1 0x0 PUSH2 0xF66 DUP3 PUSH2 0xF39 JUMP JUMPDEST SWAP1 POP SWAP2 SWAP1 POP JUMP JUMPDEST PUSH1 0x0 PUSH2 0xF78 DUP3 PUSH2 0xF5B JUMP JUMPDEST SWAP1 POP SWAP2 SWAP1 POP JUMP JUMPDEST PUSH2 0xF88 DUP2 PUSH2 0xF6D JUMP JUMPDEST DUP3 MSTORE POP POP JUMP JUMPDEST PUSH1 0x0 PUSH1 0x20 DUP3 ADD SWAP1 POP PUSH2 0xFA3 PUSH1 0x0 DUP4 ADD DUP5 PUSH2 0xF7F JUMP JUMPDEST SWAP3 SWAP2 POP POP JUMP JUMPDEST PUSH1 0x0 DUP1 PUSH1 0x40 DUP4 DUP6 SUB SLT ISZERO PUSH2 0xFC0 JUMPI PUSH2 0xFBF PUSH2 0xD2C JUMP JUMPDEST JUMPDEST PUSH1 0x0 PUSH2 0xFCE DUP6 DUP3 DUP7 ADD PUSH2 0xD48 JUMP JUMPDEST SWAP3 POP POP PUSH1 0x20 PUSH2 0xFDF DUP6 DUP3 DUP7 ADD PUSH2 0xD48 JUMP JUMPDEST SWAP2 POP POP SWAP3 POP SWAP3 SWAP1 POP JUMP JUMPDEST PUSH1 0x0 DUP3 DUP3 MSTORE PUSH1 0x20 DUP3 ADD SWAP1 POP SWAP3 SWAP2 POP POP JUMP JUMPDEST PUSH32 0x43616D706169676E206E6F7420656E6465640000000000000000000000000000 PUSH1 0x0 DUP3 ADD MSTORE POP JUMP JUMPDEST PUSH1 0x0 PUSH2 0x1030 PUSH1 0x12 DUP4 PUSH2 0xFE9 JUMP JUMPDEST SWAP2 POP PUSH2 0x103B DUP3 PUSH2 0xFFA JUMP JUMPDEST PUSH1 0x20 DUP3 ADD SWAP1 POP SWAP2 SWAP1 POP JUMP JUMPDEST PUSH1 0x0 PUSH1 0x20 DUP3 ADD SWAP1 POP DUP2 DUP2 SUB PUSH1 0x0 DUP4 ADD MSTORE PUSH2 0x105F DUP2 PUSH2 0x1023 JUMP JUMPDEST SWAP1 POP SWAP2 SWAP1 POP JUMP JUMPDEST PUSH32 0x54686520676F616C20686173206265656E207265616368656420736F20796F75 PUSH1 0x0 DUP3 ADD MSTORE PUSH32 0x2063616E277420636C61696D0000000000000000000000000000000000000000 PUSH1 0x20 DUP3 ADD MSTORE POP JUMP JUMPDEST PUSH1 0x0 PUSH2 0x10C2 PUSH1 0x2C DUP4 PUSH2 0xFE9 JUMP JUMPDEST SWAP2 POP PUSH2 0x10CD DUP3 PUSH2 0x1066 JUMP JUMPDEST PUSH1 0x40 DUP3 ADD SWAP1 POP SWAP2 SWAP1 POP JUMP JUMPDEST PUSH1 0x0 PUSH1 0x20 DUP3 ADD SWAP1 POP DUP2 DUP2 SUB PUSH1 0x0 DUP4 ADD MSTORE PUSH2 0x10F1 DUP2 PUSH2 0x10B5 JUMP JUMPDEST SWAP1 POP SWAP2 SWAP1 POP JUMP JUMPDEST PUSH1 0x0 PUSH1 0x40 DUP3 ADD SWAP1 POP PUSH2 0x110D PUSH1 0x0 DUP4 ADD DUP6 PUSH2 0xDBC JUMP JUMPDEST PUSH2 0x111A PUSH1 0x20 DUP4 ADD DUP5 PUSH2 0xD02 JUMP JUMPDEST SWAP4 SWAP3 POP POP POP JUMP JUMPDEST PUSH2 0x112A DUP2 PUSH2 0xDCB JUMP JUMPDEST DUP2 EQ PUSH2 0x1135 JUMPI PUSH1 0x0 DUP1 REVERT JUMPDEST POP JUMP JUMPDEST PUSH1 0x0 DUP2 MLOAD SWAP1 POP PUSH2 0x1147 DUP2 PUSH2 0x1121 JUMP JUMPDEST SWAP3 SWAP2 POP POP JUMP JUMPDEST PUSH1 0x0 PUSH1 0x20 DUP3 DUP5 SUB SLT ISZERO PUSH2 0x1163 JUMPI PUSH2 0x1162 PUSH2 0xD2C JUMP JUMPDEST JUMPDEST PUSH1 0x0 PUSH2 0x1171 DUP5 DUP3 DUP6 ADD PUSH2 0x1138 JUMP JUMPDEST SWAP2 POP POP SWAP3 SWAP2 POP POP JUMP JUMPDEST PUSH1 0x0 PUSH1 0x40 DUP3 ADD SWAP1 POP PUSH2 0x118F PUSH1 0x0 DUP4 ADD DUP6 PUSH2 0xD02 JUMP JUMPDEST PUSH2 0x119C PUSH1 0x20 DUP4 ADD DUP5 PUSH2 0xD02 JUMP JUMPDEST SWAP4 SWAP3 POP POP POP JUMP JUMPDEST PUSH32 0x596F75277265206E6F74207468652063726561746F72206F6620746865206361 PUSH1 0x0 DUP3 ADD MSTORE PUSH32 0x6D706169676E0000000000000000000000000000000000000000000000000000 PUSH1 0x20 DUP3 ADD MSTORE POP JUMP JUMPDEST PUSH1 0x0 PUSH2 0x11FF PUSH1 0x26 DUP4 PUSH2 0xFE9 JUMP JUMPDEST SWAP2 POP PUSH2 0x120A DUP3 PUSH2 0x11A3 JUMP JUMPDEST PUSH1 0x40 DUP3 ADD SWAP1 POP SWAP2 SWAP1 POP JUMP JUMPDEST PUSH1 0x0 PUSH1 0x20 DUP3 ADD SWAP1 POP DUP2 DUP2 SUB PUSH1 0x0 DUP4 ADD MSTORE PUSH2 0x122E DUP2 PUSH2 0x11F2 JUMP JUMPDEST SWAP1 POP SWAP2 SWAP1 POP JUMP JUMPDEST PUSH32 0x54686520676F616C20686173206E6F74206265656E2072656163686564000000 PUSH1 0x0 DUP3 ADD MSTORE POP JUMP JUMPDEST PUSH1 0x0 PUSH2 0x126B PUSH1 0x1D DUP4 PUSH2 0xFE9 JUMP JUMPDEST SWAP2 POP PUSH2 0x1276 DUP3 PUSH2 0x1235 JUMP JUMPDEST PUSH1 0x20 DUP3 ADD SWAP1 POP SWAP2 SWAP1 POP JUMP JUMPDEST PUSH1 0x0 PUSH1 0x20 DUP3 ADD SWAP1 POP DUP2 DUP2 SUB PUSH1 0x0 DUP4 ADD MSTORE PUSH2 0x129A DUP2 PUSH2 0x125E JUMP JUMPDEST SWAP1 POP SWAP2 SWAP1 POP JUMP JUMPDEST PUSH32 0x43616D706169676E20616C726561647920636C61696D65640000000000000000 PUSH1 0x0 DUP3 ADD MSTORE POP JUMP JUMPDEST PUSH1 0x0 PUSH2 0x12D7 PUSH1 0x18 DUP4 PUSH2 0xFE9 JUMP JUMPDEST SWAP2 POP PUSH2 0x12E2 DUP3 PUSH2 0x12A1 JUMP JUMPDEST PUSH1 0x20 DUP3 ADD SWAP1 POP SWAP2 SWAP1 POP JUMP JUMPDEST PUSH1 0x0 PUSH1 0x20 DUP3 ADD SWAP1 POP DUP2 DUP2 SUB PUSH1 0x0 DUP4 ADD MSTORE PUSH2 0x1306 DUP2 PUSH2 0x12CA JUMP JUMPDEST SWAP1 POP SWAP2 SWAP1 POP JUMP JUMPDEST PUSH32 0x4E487B7100000000000000000000000000000000000000000000000000000000 PUSH1 0x0 MSTORE PUSH1 0x11 PUSH1 0x4 MSTORE PUSH1 0x24 PUSH1 0x0 REVERT JUMPDEST PUSH1 0x0 PUSH2 0x1347 DUP3 PUSH2 0xCF8 JUMP JUMPDEST SWAP2 POP PUSH2 0x1352 DUP4 PUSH2 0xCF8 JUMP JUMPDEST SWAP3 POP DUP3 DUP3 ADD SWAP1 POP DUP1 DUP3 GT ISZERO PUSH2 0x136A JUMPI PUSH2 0x1369 PUSH2 0x130D JUMP JUMPDEST JUMPDEST SWAP3 SWAP2 POP POP JUMP JUMPDEST PUSH2 0x1379 DUP2 PUSH2 0xE47 JUMP JUMPDEST DUP3 MSTORE POP POP JUMP JUMPDEST PUSH1 0x0 PUSH1 0x60 DUP3 ADD SWAP1 POP PUSH2 0x1394 PUSH1 0x0 DUP4 ADD DUP7 PUSH2 0xD02 JUMP JUMPDEST PUSH2 0x13A1 PUSH1 0x20 DUP4 ADD DUP6 PUSH2 0xD02 JUMP JUMPDEST PUSH2 0x13AE PUSH1 0x40 DUP4 ADD DUP5 PUSH2 0x1370 JUMP JUMPDEST SWAP5 SWAP4 POP POP POP POP JUMP JUMPDEST PUSH32 0x43616D706169676E206E6F742073746172746564000000000000000000000000 PUSH1 0x0 DUP3 ADD MSTORE POP JUMP JUMPDEST PUSH1 0x0 PUSH2 0x13EC PUSH1 0x14 DUP4 PUSH2 0xFE9 JUMP JUMPDEST SWAP2 POP PUSH2 0x13F7 DUP3 PUSH2 0x13B6 JUMP JUMPDEST PUSH1 0x20 DUP3 ADD SWAP1 POP SWAP2 SWAP1 POP JUMP JUMPDEST PUSH1 0x0 PUSH1 0x20 DUP3 ADD SWAP1 POP DUP2 DUP2 SUB PUSH1 0x0 DUP4 ADD MSTORE PUSH2 0x141B DUP2 PUSH2 0x13DF JUMP JUMPDEST SWAP1 POP SWAP2 SWAP1 POP JUMP JUMPDEST PUSH32 0x43616D706169676E20656E646564000000000000000000000000000000000000 PUSH1 0x0 DUP3 ADD MSTORE POP JUMP JUMPDEST PUSH1 0x0 PUSH2 0x1458 PUSH1 0xE DUP4 PUSH2 0xFE9 JUMP JUMPDEST SWAP2 POP PUSH2 0x1463 DUP3 PUSH2 0x1422 JUMP JUMPDEST PUSH1 0x20 DUP3 ADD SWAP1 POP SWAP2 SWAP1 POP JUMP JUMPDEST PUSH1 0x0 PUSH1 0x20 DUP3 ADD SWAP1 POP DUP2 DUP2 SUB PUSH1 0x0 DUP4 ADD MSTORE PUSH2 0x1487 DUP2 PUSH2 0x144B JUMP JUMPDEST SWAP1 POP SWAP2 SWAP1 POP JUMP JUMPDEST PUSH1 0x0 PUSH1 0x60 DUP3 ADD SWAP1 POP PUSH2 0x14A3 PUSH1 0x0 DUP4 ADD DUP7 PUSH2 0xDBC JUMP JUMPDEST PUSH2 0x14B0 PUSH1 0x20 DUP4 ADD DUP6 PUSH2 0xDBC JUMP JUMPDEST PUSH2 0x14BD PUSH1 0x40 DUP4 ADD DUP5 PUSH2 0xD02 JUMP JUMPDEST SWAP5 SWAP4 POP POP POP POP JUMP JUMPDEST PUSH1 0x0 PUSH2 0x14D0 DUP3 PUSH2 0xCF8 JUMP JUMPDEST SWAP2 POP PUSH32 0xFFFFFFFFFFFFFFFFFFFFFFFFFFFFFFFFFFFFFFFFFFFFFFFFFFFFFFFFFFFFFFFF DUP3 SUB PUSH2 0x1502 JUMPI PUSH2 0x1501 PUSH2 0x130D JUMP JUMPDEST JUMPDEST PUSH1 0x1 DUP3 ADD SWAP1 POP SWAP2 SWAP1 POP JUMP JUMPDEST PUSH1 0x0 DUP2 SWAP1 POP SWAP2 SWAP1 POP JUMP JUMPDEST PUSH2 0x1528 PUSH2 0x1523 DUP3 PUSH2 0xCF8 JUMP JUMPDEST PUSH2 0x150D JUMP JUMPDEST DUP3 MSTORE POP POP JUMP JUMPDEST PUSH1 0x0 DUP2 PUSH1 0x60 SHL SWAP1 POP SWAP2 SWAP1 POP JUMP JUMPDEST PUSH1 0x0 PUSH2 0x1546 DUP3 PUSH2 0x152E JUMP JUMPDEST SWAP1 POP SWAP2 SWAP1 POP JUMP JUMPDEST PUSH1 0x0 PUSH2 0x1558 DUP3 PUSH2 0x153B JUMP JUMPDEST SWAP1 POP SWAP2 SWAP1 POP JUMP JUMPDEST PUSH2 0x1570 PUSH2 0x156B DUP3 PUSH2 0xDAA JUMP JUMPDEST PUSH2 0x154D JUMP JUMPDEST DUP3 MSTORE POP POP JUMP JUMPDEST PUSH1 0x0 PUSH2 0x1582 DUP3 DUP7 PUSH2 0x1517 JUMP JUMPDEST PUSH1 0x20 DUP3 ADD SWAP2 POP PUSH2 0x1592 DUP3 DUP6 PUSH2 0x155F JUMP JUMPDEST PUSH1 0x14 DUP3 ADD SWAP2 POP PUSH2 0x15A2 DUP3 DUP5 PUSH2 0x1517 JUMP JUMPDEST PUSH1 0x20 DUP3 ADD SWAP2 POP DUP2 SWAP1 POP SWAP5 SWAP4 POP POP POP POP JUMP JUMPDEST PUSH32 0x4E487B7100000000000000000000000000000000000000000000000000000000 PUSH1 0x0 MSTORE PUSH1 0x12 PUSH1 0x4 MSTORE PUSH1 0x24 PUSH1 0x0 REVERT JUMPDEST PUSH1 0x0 PUSH2 0x15ED DUP3 PUSH2 0xCF8 JUMP JUMPDEST SWAP2 POP PUSH2 0x15F8 DUP4 PUSH2 0xCF8 JUMP JUMPDEST SWAP3 POP DUP3 PUSH2 0x1608 JUMPI PUSH2 0x1607 PUSH2 0x15B3 JUMP JUMPDEST JUMPDEST DUP3 DUP3 MOD SWAP1 POP SWAP3 SWAP2 POP POP JUMP JUMPDEST PUSH1 0x0 DUP2 SWAP1 POP SWAP2 SWAP1 POP JUMP JUMPDEST PUSH1 0x0 PUSH2 0x1638 PUSH2 0x1633 PUSH2 0x162E DUP5 PUSH2 0x1613 JUMP JUMPDEST PUSH2 0xF2F JUMP JUMPDEST PUSH2 0xCF8 JUMP JUMPDEST SWAP1 POP SWAP2 SWAP1 POP JUMP JUMPDEST PUSH2 0x1648 DUP2 PUSH2 0x161D JUMP JUMPDEST DUP3 MSTORE POP POP JUMP JUMPDEST PUSH1 0x0 PUSH1 0x60 DUP3 ADD SWAP1 POP PUSH2 0x1663 PUSH1 0x0 DUP4 ADD DUP7 PUSH2 0xDBC JUMP JUMPDEST PUSH2 0x1670 PUSH1 0x20 DUP4 ADD DUP6 PUSH2 0xDBC JUMP JUMPDEST PUSH2 0x167D PUSH1 0x40 DUP4 ADD DUP5 PUSH2 0x163F JUMP JUMPDEST SWAP5 SWAP4 POP POP POP POP JUMP JUMPDEST PUSH1 0x0 PUSH1 0x40 DUP3 ADD SWAP1 POP PUSH2 0x169A PUSH1 0x0 DUP4 ADD DUP6 PUSH2 0xD02 JUMP JUMPDEST PUSH2 0x16A7 PUSH1 0x20 DUP4 ADD DUP5 PUSH2 0x163F JUMP JUMPDEST SWAP4 SWAP3 POP POP POP JUMP INVALID LOG2 PUSH5 0x6970667358 0x22 SLT KECCAK256 0x2F 0x4C 0x2E 0xAF PUSH12 0xD2DF33A2474DAA04E60DE522 0xDF PUSH5 0x6C574EC9CF 0xEA 0x4A 0x24 0xC PUSH1 0x3B 0xE5 PC PUSH5 0x736F6C6343 STOP ADDMOD GT STOP CALLER "
				},
				"gasEstimates": {
					"creation": {
						"codeDepositCost": "1172000",
						"executionCost": "infinite",
						"totalCost": "infinite"
					},
					"external": {
						"campaigns(uint256)": "infinite",
						"claim(uint256)": "infinite",
						"count()": "2430",
						"launch(uint256,uint32)": "infinite",
						"pledge(uint256,uint256)": "infinite",
						"pledgedAmount(uint256,address)": "infinite",
						"refund(uint256)": "infinite",
						"token()": "infinite"
					}
				},
				"methodIdentifiers": {
					"campaigns(uint256)": "141961bc",
					"claim(uint256)": "379607f5",
					"count()": "06661abd",
					"launch(uint256,uint32)": "941e9552",
					"pledge(uint256,uint256)": "fde327be",
					"pledgedAmount(uint256,address)": "aa4fb63a",
					"refund(uint256)": "278ecde1",
					"token()": "fc0c546a"
				}
			},
			"storageLayout": {
				"storage": [
					{
						"astId": 58,
						"contract": "Crowdfunding_final.sol:CrowdFunding",
						"label": "count",
						"offset": 0,
						"slot": "0",
						"type": "t_uint256"
					},
					{
						"astId": 63,
						"contract": "Crowdfunding_final.sol:CrowdFunding",
						"label": "campaigns",
						"offset": 0,
						"slot": "1",
						"type": "t_mapping(t_uint256,t_struct(Campaign)53_storage)"
					},
					{
						"astId": 69,
						"contract": "Crowdfunding_final.sol:CrowdFunding",
						"label": "pledgedAmount",
						"offset": 0,
						"slot": "2",
						"type": "t_mapping(t_uint256,t_mapping(t_address,t_uint256))"
					},
					{
						"astId": 72,
						"contract": "Crowdfunding_final.sol:CrowdFunding",
						"label": "randNonce",
						"offset": 0,
						"slot": "3",
						"type": "t_uint256"
					}
				],
				"types": {
					"t_address": {
						"encoding": "inplace",
						"label": "address",
						"numberOfBytes": "20"
					},
					"t_bool": {
						"encoding": "inplace",
						"label": "bool",
						"numberOfBytes": "1"
					},
					"t_mapping(t_address,t_uint256)": {
						"encoding": "mapping",
						"key": "t_address",
						"label": "mapping(address => uint256)",
						"numberOfBytes": "32",
						"value": "t_uint256"
					},
					"t_mapping(t_uint256,t_mapping(t_address,t_uint256))": {
						"encoding": "mapping",
						"key": "t_uint256",
						"label": "mapping(uint256 => mapping(address => uint256))",
						"numberOfBytes": "32",
						"value": "t_mapping(t_address,t_uint256)"
					},
					"t_mapping(t_uint256,t_struct(Campaign)53_storage)": {
						"encoding": "mapping",
						"key": "t_uint256",
						"label": "mapping(uint256 => struct CrowdFunding.Campaign)",
						"numberOfBytes": "32",
						"value": "t_struct(Campaign)53_storage"
					},
					"t_struct(Campaign)53_storage": {
						"encoding": "inplace",
						"label": "struct CrowdFunding.Campaign",
						"members": [
							{
								"astId": 42,
								"contract": "Crowdfunding_final.sol:CrowdFunding",
								"label": "creator",
								"offset": 0,
								"slot": "0",
								"type": "t_address"
							},
							{
								"astId": 44,
								"contract": "Crowdfunding_final.sol:CrowdFunding",
								"label": "goal",
								"offset": 0,
								"slot": "1",
								"type": "t_uint256"
							},
							{
								"astId": 46,
								"contract": "Crowdfunding_final.sol:CrowdFunding",
								"label": "pledged",
								"offset": 0,
								"slot": "2",
								"type": "t_uint256"
							},
							{
								"astId": 48,
								"contract": "Crowdfunding_final.sol:CrowdFunding",
								"label": "startAt",
								"offset": 0,
								"slot": "3",
								"type": "t_uint256"
							},
							{
								"astId": 50,
								"contract": "Crowdfunding_final.sol:CrowdFunding",
								"label": "endAt",
								"offset": 0,
								"slot": "4",
								"type": "t_uint256"
							},
							{
								"astId": 52,
								"contract": "Crowdfunding_final.sol:CrowdFunding",
								"label": "claimed",
								"offset": 0,
								"slot": "5",
								"type": "t_bool"
							}
						],
						"numberOfBytes": "192"
					},
					"t_uint256": {
						"encoding": "inplace",
						"label": "uint256",
						"numberOfBytes": "32"
					}
				}
			},
			"userdoc": {
				"kind": "user",
				"methods": {},
				"version": 1
			}
		}
	}
}