{
	"data": {
		"bytecode": {
			"linkReferences": {},
			"object": "60a060405260006003553480156200001657600080fd5b50604051620019de380380620019de83398181016040528101906200003c9190620000e1565b8073ffffffffffffffffffffffffffffffffffffffff1660808173ffffffffffffffffffffffffffffffffffffffff16815250505062000113565b600080fd5b600073ffffffffffffffffffffffffffffffffffffffff82169050919050565b6000620000a9826200007c565b9050919050565b620000bb816200009c565b8114620000c757600080fd5b50565b600081519050620000db81620000b0565b92915050565b600060208284031215620000fa57620000f962000077565b5b60006200010a84828501620000ca565b91505092915050565b6080516118936200014b60003960008181610440015281816106dd01528181610a4701528181610b920152610c9b01526118936000f3fe608060405234801561001057600080fd5b50600436106100935760003560e01c806347cb7a681161006657806347cb7a6814610123578063941e955214610153578063aa4fb63a1461016f578063fc0c546a1461019f578063fde327be146101bd57610093565b806306661abd14610098578063141961bc146100b6578063278ecde1146100eb578063379607f514610107575b600080fd5b6100a06101d9565b6040516100ad9190610e20565b60405180910390f35b6100d060048036038101906100cb9190610e6c565b6101df565b6040516100e296959493929190610ef5565b60405180910390f35b61010560048036038101906101009190610e6c565b610248565b005b610121600480360381019061011c9190610e6c565b610532565b005b61013d60048036038101906101389190610e6c565b6107dd565b60405161014a9190610e20565b60405180910390f35b61016d60048036038101906101689190610f92565b6108b1565b005b61018960048036038101906101849190610ffe565b610a20565b6040516101969190610e20565b60405180910390f35b6101a7610a45565b6040516101b4919061109d565b60405180910390f35b6101d760048036038101906101d291906110b8565b610a69565b005b60005481565b60016020528060005260406000206000915090508060000160009054906101000a900473ffffffffffffffffffffffffffffffffffffffff16908060010154908060020154908060030154908060040154908060050160009054906101000a900460ff16905086565b6000600160008381526020019081526020016000206040518060c00160405290816000820160009054906101000a900473ffffffffffffffffffffffffffffffffffffffff1673ffffffffffffffffffffffffffffffffffffffff1673ffffffffffffffffffffffffffffffffffffffff168152602001600182015481526020016002820154815260200160038201548152602001600482015481526020016005820160009054906101000a900460ff161515151581525050905080608001514211610349576040517f08c379a000000000000000000000000000000000000000000000000000000000815260040161034090611155565b60405180910390fd5b8060200151816040015110610393576040517f08c379a000000000000000000000000000000000000000000000000000000000815260040161038a906111e7565b60405180910390fd5b60006002600084815260200190815260200160002060003373ffffffffffffffffffffffffffffffffffffffff1673ffffffffffffffffffffffffffffffffffffffff16815260200190815260200160002054905060006002600085815260200190815260200160002060003373ffffffffffffffffffffffffffffffffffffffff1673ffffffffffffffffffffffffffffffffffffffff168152602001908152602001600020819055507f000000000000000000000000000000000000000000000000000000000000000073ffffffffffffffffffffffffffffffffffffffff1663a9059cbb33836040518363ffffffff1660e01b8152600401610499929190611207565b6020604051808303816000875af11580156104b8573d6000803e3d6000fd5b505050506040513d601f19601f820116820180604052508101906104dc919061125c565b503373ffffffffffffffffffffffffffffffffffffffff167f21e12a7cad0da5928167e1084ea4d5fdf8d9af66657a2543a9ac76a0ca0814778483604051610525929190611289565b60405180910390a2505050565b60006001600083815260200190815260200160002090503373ffffffffffffffffffffffffffffffffffffffff168160000160009054906101000a900473ffffffffffffffffffffffffffffffffffffffff1673ffffffffffffffffffffffffffffffffffffffff16146105db576040517f08c379a00000000000000000000000000000000000000000000000000000000081526004016105d290611324565b60405180910390fd5b80600401544211610621576040517f08c379a000000000000000000000000000000000000000000000000000000000815260040161061890611390565b60405180910390fd5b80600101548160020154101561066c576040517f08c379a0000000000000000000000000000000000000000000000000000000008152600401610663906113fc565b60405180910390fd5b8060050160009054906101000a900460ff16156106be576040517f08c379a00000000000000000000000000000000000000000000000000000000081526004016106b590611468565b60405180910390fd5b60018160050160006101000a81548160ff0219169083151502179055507f000000000000000000000000000000000000000000000000000000000000000073ffffffffffffffffffffffffffffffffffffffff1663a9059cbb8260000160009054906101000a900473ffffffffffffffffffffffffffffffffffffffff1683600201546040518363ffffffff1660e01b815260040161075e929190611207565b6020604051808303816000875af115801561077d573d6000803e3d6000fd5b505050506040513d601f19601f820116820180604052508101906107a1919061125c565b507f7bb2b3c10797baccb6f8c4791f1edd6ca2f0d028ee0eda64b01a9a57e3a653f7826040516107d19190610e20565b60405180910390a15050565b600080600160008481526020019081526020016000206040518060c00160405290816000820160009054906101000a900473ffffffffffffffffffffffffffffffffffffffff1673ffffffffffffffffffffffffffffffffffffffff1673ffffffffffffffffffffffffffffffffffffffff168152602001600182015481526020016002820154815260200160038201548152602001600482015481526020016005820160009054906101000a900460ff16151515158152505090504281608001516108a991906114b7565b915050919050565b60016000808282546108c391906114eb565b925050819055506040518060c001604052803373ffffffffffffffffffffffffffffffffffffffff168152602001838152602001600081526020014281526020018263ffffffff164261091691906114eb565b815260200160001515815250600160008054815260200190815260200160002060008201518160000160006101000a81548173ffffffffffffffffffffffffffffffffffffffff021916908373ffffffffffffffffffffffffffffffffffffffff1602179055506020820151816001015560408201518160020155606082015181600301556080820151816004015560a08201518160050160006101000a81548160ff0219169083151502179055509050503373ffffffffffffffffffffffffffffffffffffffff167f7bd7e1ede4ce27a61039c25f909f871ab820f6d4b91f1ceb1330ee2ba499aef36000548484604051610a149392919061152e565b60405180910390a25050565b6002602052816000526040600020602052806000526040600020600091509150505481565b7f000000000000000000000000000000000000000000000000000000000000000081565b60006001600084815260200190815260200160002090508060030154421015610ac7576040517f08c379a0000000000000000000000000000000000000000000000000000000008152600401610abe906115b1565b60405180910390fd5b8060040154421115610b0e576040517f08c379a0000000000000000000000000000000000000000000000000000000008152600401610b059061161d565b60405180910390fd5b81816002016000828254610b2291906114eb565b92505081905550816002600085815260200190815260200160002060003373ffffffffffffffffffffffffffffffffffffffff1673ffffffffffffffffffffffffffffffffffffffff1681526020019081526020016000206000828254610b8991906114eb565b925050819055507f000000000000000000000000000000000000000000000000000000000000000073ffffffffffffffffffffffffffffffffffffffff166323b872dd3330856040518463ffffffff1660e01b8152600401610bed9392919061163d565b6020604051808303816000875af1158015610c0c573d6000803e3d6000fd5b505050506040513d601f19601f82011682018060405250810190610c30919061125c565b5060328210610db35760036000815480929190610c4c90611674565b9190505550600060024233600354604051602001610c6c93929190611725565b6040516020818303038152906040528051906020012060001c610c8f9190611791565b905060018103610db1577f000000000000000000000000000000000000000000000000000000000000000073ffffffffffffffffffffffffffffffffffffffff166323b872dd8360000160009054906101000a900473ffffffffffffffffffffffffffffffffffffffff163360056040518463ffffffff1660e01b8152600401610d1b939291906117fd565b6020604051808303816000875af1158015610d3a573d6000803e3d6000fd5b505050506040513d601f19601f82011682018060405250810190610d5e919061125c565b503373ffffffffffffffffffffffffffffffffffffffff167f02a6a2be713fedf52f113c0a759f1c1a23a113476d9b1b1a2a453c910660de4e826005604051610da8929190611834565b60405180910390a25b505b3373ffffffffffffffffffffffffffffffffffffffff16837f06bdb975df800a73232998e71ed585d536222f1dfeaa622d7f62a23ada686c8284604051610dfa9190610e20565b60405180910390a3505050565b6000819050919050565b610e1a81610e07565b82525050565b6000602082019050610e356000830184610e11565b92915050565b600080fd5b610e4981610e07565b8114610e5457600080fd5b50565b600081359050610e6681610e40565b92915050565b600060208284031215610e8257610e81610e3b565b5b6000610e9084828501610e57565b91505092915050565b600073ffffffffffffffffffffffffffffffffffffffff82169050919050565b6000610ec482610e99565b9050919050565b610ed481610eb9565b82525050565b60008115159050919050565b610eef81610eda565b82525050565b600060c082019050610f0a6000830189610ecb565b610f176020830188610e11565b610f246040830187610e11565b610f316060830186610e11565b610f3e6080830185610e11565b610f4b60a0830184610ee6565b979650505050505050565b600063ffffffff82169050919050565b610f6f81610f56565b8114610f7a57600080fd5b50565b600081359050610f8c81610f66565b92915050565b60008060408385031215610fa957610fa8610e3b565b5b6000610fb785828601610e57565b9250506020610fc885828601610f7d565b9150509250929050565b610fdb81610eb9565b8114610fe657600080fd5b50565b600081359050610ff881610fd2565b92915050565b6000806040838503121561101557611014610e3b565b5b600061102385828601610e57565b925050602061103485828601610fe9565b9150509250929050565b6000819050919050565b600061106361105e61105984610e99565b61103e565b610e99565b9050919050565b600061107582611048565b9050919050565b60006110878261106a565b9050919050565b6110978161107c565b82525050565b60006020820190506110b2600083018461108e565b92915050565b600080604083850312156110cf576110ce610e3b565b5b60006110dd85828601610e57565b92505060206110ee85828601610e57565b9150509250929050565b600082825260208201905092915050565b7f43616d706169676e206e6f7420656e6465640000000000000000000000000000600082015250565b600061113f6012836110f8565b915061114a82611109565b602082019050919050565b6000602082019050818103600083015261116e81611132565b9050919050565b7f54686520676f616c20686173206265656e207265616368656420736f20796f7560008201527f2063616e277420636c61696d0000000000000000000000000000000000000000602082015250565b60006111d1602c836110f8565b91506111dc82611175565b604082019050919050565b60006020820190508181036000830152611200816111c4565b9050919050565b600060408201905061121c6000830185610ecb565b6112296020830184610e11565b9392505050565b61123981610eda565b811461124457600080fd5b50565b60008151905061125681611230565b92915050565b60006020828403121561127257611271610e3b565b5b600061128084828501611247565b91505092915050565b600060408201905061129e6000830185610e11565b6112ab6020830184610e11565b9392505050565b7f596f75277265206e6f74207468652063726561746f72206f662074686520636160008201527f6d706169676e0000000000000000000000000000000000000000000000000000602082015250565b600061130e6026836110f8565b9150611319826112b2565b604082019050919050565b6000602082019050818103600083015261133d81611301565b9050919050565b7f43616d706169676e206e6f7420656e6465642000000000000000000000000000600082015250565b600061137a6013836110f8565b915061138582611344565b602082019050919050565b600060208201905081810360008301526113a98161136d565b9050919050565b7f54686520676f616c20686173206e6f74206265656e2072656163686564000000600082015250565b60006113e6601d836110f8565b91506113f1826113b0565b602082019050919050565b60006020820190508181036000830152611415816113d9565b9050919050565b7f43616d706169676e20616c726561647920636c61696d65640000000000000000600082015250565b60006114526018836110f8565b915061145d8261141c565b602082019050919050565b6000602082019050818103600083015261148181611445565b9050919050565b7f4e487b7100000000000000000000000000000000000000000000000000000000600052601160045260246000fd5b60006114c282610e07565b91506114cd83610e07565b92508282039050818111156114e5576114e4611488565b5b92915050565b60006114f682610e07565b915061150183610e07565b925082820190508082111561151957611518611488565b5b92915050565b61152881610f56565b82525050565b60006060820190506115436000830186610e11565b6115506020830185610e11565b61155d604083018461151f565b949350505050565b7f43616d706169676e206e6f742073746172746564000000000000000000000000600082015250565b600061159b6014836110f8565b91506115a682611565565b602082019050919050565b600060208201905081810360008301526115ca8161158e565b9050919050565b7f43616d706169676e20656e646564000000000000000000000000000000000000600082015250565b6000611607600e836110f8565b9150611612826115d1565b602082019050919050565b60006020820190508181036000830152611636816115fa565b9050919050565b60006060820190506116526000830186610ecb565b61165f6020830185610ecb565b61166c6040830184610e11565b949350505050565b600061167f82610e07565b91507fffffffffffffffffffffffffffffffffffffffffffffffffffffffffffffffff82036116b1576116b0611488565b5b600182019050919050565b6000819050919050565b6116d76116d282610e07565b6116bc565b82525050565b60008160601b9050919050565b60006116f5826116dd565b9050919050565b6000611707826116ea565b9050919050565b61171f61171a82610eb9565b6116fc565b82525050565b600061173182866116c6565b602082019150611741828561170e565b60148201915061175182846116c6565b602082019150819050949350505050565b7f4e487b7100000000000000000000000000000000000000000000000000000000600052601260045260246000fd5b600061179c82610e07565b91506117a783610e07565b9250826117b7576117b6611762565b5b828206905092915050565b6000819050919050565b60006117e76117e26117dd846117c2565b61103e565b610e07565b9050919050565b6117f7816117cc565b82525050565b60006060820190506118126000830186610ecb565b61181f6020830185610ecb565b61182c60408301846117ee565b949350505050565b60006040820190506118496000830185610e11565b61185660208301846117ee565b939250505056fea264697066735822122027ddf97cc44b9b8a7f67263cdc3050da05fb573446bf649e6e93fbbc1568e9cb64736f6c63430008110033",
			"opcodes": "PUSH1 0xA0 PUSH1 0x40 MSTORE PUSH1 0x0 PUSH1 0x3 SSTORE CALLVALUE DUP1 ISZERO PUSH3 0x16 JUMPI PUSH1 0x0 DUP1 REVERT JUMPDEST POP PUSH1 0x40 MLOAD PUSH3 0x19DE CODESIZE SUB DUP1 PUSH3 0x19DE DUP4 CODECOPY DUP2 DUP2 ADD PUSH1 0x40 MSTORE DUP2 ADD SWAP1 PUSH3 0x3C SWAP2 SWAP1 PUSH3 0xE1 JUMP JUMPDEST DUP1 PUSH20 0xFFFFFFFFFFFFFFFFFFFFFFFFFFFFFFFFFFFFFFFF AND PUSH1 0x80 DUP2 PUSH20 0xFFFFFFFFFFFFFFFFFFFFFFFFFFFFFFFFFFFFFFFF AND DUP2 MSTORE POP POP POP PUSH3 0x113 JUMP JUMPDEST PUSH1 0x0 DUP1 REVERT JUMPDEST PUSH1 0x0 PUSH20 0xFFFFFFFFFFFFFFFFFFFFFFFFFFFFFFFFFFFFFFFF DUP3 AND SWAP1 POP SWAP2 SWAP1 POP JUMP JUMPDEST PUSH1 0x0 PUSH3 0xA9 DUP3 PUSH3 0x7C JUMP JUMPDEST SWAP1 POP SWAP2 SWAP1 POP JUMP JUMPDEST PUSH3 0xBB DUP2 PUSH3 0x9C JUMP JUMPDEST DUP2 EQ PUSH3 0xC7 JUMPI PUSH1 0x0 DUP1 REVERT JUMPDEST POP JUMP JUMPDEST PUSH1 0x0 DUP2 MLOAD SWAP1 POP PUSH3 0xDB DUP2 PUSH3 0xB0 JUMP JUMPDEST SWAP3 SWAP2 POP POP JUMP JUMPDEST PUSH1 0x0 PUSH1 0x20 DUP3 DUP5 SUB SLT ISZERO PUSH3 0xFA JUMPI PUSH3 0xF9 PUSH3 0x77 JUMP JUMPDEST JUMPDEST PUSH1 0x0 PUSH3 0x10A DUP5 DUP3 DUP6 ADD PUSH3 0xCA JUMP JUMPDEST SWAP2 POP POP SWAP3 SWAP2 POP POP JUMP JUMPDEST PUSH1 0x80 MLOAD PUSH2 0x1893 PUSH3 0x14B PUSH1 0x0 CODECOPY PUSH1 0x0 DUP2 DUP2 PUSH2 0x440 ADD MSTORE DUP2 DUP2 PUSH2 0x6DD ADD MSTORE DUP2 DUP2 PUSH2 0xA47 ADD MSTORE DUP2 DUP2 PUSH2 0xB92 ADD MSTORE PUSH2 0xC9B ADD MSTORE PUSH2 0x1893 PUSH1 0x0 RETURN INVALID PUSH1 0x80 PUSH1 0x40 MSTORE CALLVALUE DUP1 ISZERO PUSH2 0x10 JUMPI PUSH1 0x0 DUP1 REVERT JUMPDEST POP PUSH1 0x4 CALLDATASIZE LT PUSH2 0x93 JUMPI PUSH1 0x0 CALLDATALOAD PUSH1 0xE0 SHR DUP1 PUSH4 0x47CB7A68 GT PUSH2 0x66 JUMPI DUP1 PUSH4 0x47CB7A68 EQ PUSH2 0x123 JUMPI DUP1 PUSH4 0x941E9552 EQ PUSH2 0x153 JUMPI DUP1 PUSH4 0xAA4FB63A EQ PUSH2 0x16F JUMPI DUP1 PUSH4 0xFC0C546A EQ PUSH2 0x19F JUMPI DUP1 PUSH4 0xFDE327BE EQ PUSH2 0x1BD JUMPI PUSH2 0x93 JUMP JUMPDEST DUP1 PUSH4 0x6661ABD EQ PUSH2 0x98 JUMPI DUP1 PUSH4 0x141961BC EQ PUSH2 0xB6 JUMPI DUP1 PUSH4 0x278ECDE1 EQ PUSH2 0xEB JUMPI DUP1 PUSH4 0x379607F5 EQ PUSH2 0x107 JUMPI JUMPDEST PUSH1 0x0 DUP1 REVERT JUMPDEST PUSH2 0xA0 PUSH2 0x1D9 JUMP JUMPDEST PUSH1 0x40 MLOAD PUSH2 0xAD SWAP2 SWAP1 PUSH2 0xE20 JUMP JUMPDEST PUSH1 0x40 MLOAD DUP1 SWAP2 SUB SWAP1 RETURN JUMPDEST PUSH2 0xD0 PUSH1 0x4 DUP1 CALLDATASIZE SUB DUP2 ADD SWAP1 PUSH2 0xCB SWAP2 SWAP1 PUSH2 0xE6C JUMP JUMPDEST PUSH2 0x1DF JUMP JUMPDEST PUSH1 0x40 MLOAD PUSH2 0xE2 SWAP7 SWAP6 SWAP5 SWAP4 SWAP3 SWAP2 SWAP1 PUSH2 0xEF5 JUMP JUMPDEST PUSH1 0x40 MLOAD DUP1 SWAP2 SUB SWAP1 RETURN JUMPDEST PUSH2 0x105 PUSH1 0x4 DUP1 CALLDATASIZE SUB DUP2 ADD SWAP1 PUSH2 0x100 SWAP2 SWAP1 PUSH2 0xE6C JUMP JUMPDEST PUSH2 0x248 JUMP JUMPDEST STOP JUMPDEST PUSH2 0x121 PUSH1 0x4 DUP1 CALLDATASIZE SUB DUP2 ADD SWAP1 PUSH2 0x11C SWAP2 SWAP1 PUSH2 0xE6C JUMP JUMPDEST PUSH2 0x532 JUMP JUMPDEST STOP JUMPDEST PUSH2 0x13D PUSH1 0x4 DUP1 CALLDATASIZE SUB DUP2 ADD SWAP1 PUSH2 0x138 SWAP2 SWAP1 PUSH2 0xE6C JUMP JUMPDEST PUSH2 0x7DD JUMP JUMPDEST PUSH1 0x40 MLOAD PUSH2 0x14A SWAP2 SWAP1 PUSH2 0xE20 JUMP JUMPDEST PUSH1 0x40 MLOAD DUP1 SWAP2 SUB SWAP1 RETURN JUMPDEST PUSH2 0x16D PUSH1 0x4 DUP1 CALLDATASIZE SUB DUP2 ADD SWAP1 PUSH2 0x168 SWAP2 SWAP1 PUSH2 0xF92 JUMP JUMPDEST PUSH2 0x8B1 JUMP JUMPDEST STOP JUMPDEST PUSH2 0x189 PUSH1 0x4 DUP1 CALLDATASIZE SUB DUP2 ADD SWAP1 PUSH2 0x184 SWAP2 SWAP1 PUSH2 0xFFE JUMP JUMPDEST PUSH2 0xA20 JUMP JUMPDEST PUSH1 0x40 MLOAD PUSH2 0x196 SWAP2 SWAP1 PUSH2 0xE20 JUMP JUMPDEST PUSH1 0x40 MLOAD DUP1 SWAP2 SUB SWAP1 RETURN JUMPDEST PUSH2 0x1A7 PUSH2 0xA45 JUMP JUMPDEST PUSH1 0x40 MLOAD PUSH2 0x1B4 SWAP2 SWAP1 PUSH2 0x109D JUMP JUMPDEST PUSH1 0x40 MLOAD DUP1 SWAP2 SUB SWAP1 RETURN JUMPDEST PUSH2 0x1D7 PUSH1 0x4 DUP1 CALLDATASIZE SUB DUP2 ADD SWAP1 PUSH2 0x1D2 SWAP2 SWAP1 PUSH2 0x10B8 JUMP JUMPDEST PUSH2 0xA69 JUMP JUMPDEST STOP JUMPDEST PUSH1 0x0 SLOAD DUP2 JUMP JUMPDEST PUSH1 0x1 PUSH1 0x20 MSTORE DUP1 PUSH1 0x0 MSTORE PUSH1 0x40 PUSH1 0x0 KECCAK256 PUSH1 0x0 SWAP2 POP SWAP1 POP DUP1 PUSH1 0x0 ADD PUSH1 0x0 SWAP1 SLOAD SWAP1 PUSH2 0x100 EXP SWAP1 DIV PUSH20 0xFFFFFFFFFFFFFFFFFFFFFFFFFFFFFFFFFFFFFFFF AND SWAP1 DUP1 PUSH1 0x1 ADD SLOAD SWAP1 DUP1 PUSH1 0x2 ADD SLOAD SWAP1 DUP1 PUSH1 0x3 ADD SLOAD SWAP1 DUP1 PUSH1 0x4 ADD SLOAD SWAP1 DUP1 PUSH1 0x5 ADD PUSH1 0x0 SWAP1 SLOAD SWAP1 PUSH2 0x100 EXP SWAP1 DIV PUSH1 0xFF AND SWAP1 POP DUP7 JUMP JUMPDEST PUSH1 0x0 PUSH1 0x1 PUSH1 0x0 DUP4 DUP2 MSTORE PUSH1 0x20 ADD SWAP1 DUP2 MSTORE PUSH1 0x20 ADD PUSH1 0x0 KECCAK256 PUSH1 0x40 MLOAD DUP1 PUSH1 0xC0 ADD PUSH1 0x40 MSTORE SWAP1 DUP2 PUSH1 0x0 DUP3 ADD PUSH1 0x0 SWAP1 SLOAD SWAP1 PUSH2 0x100 EXP SWAP1 DIV PUSH20 0xFFFFFFFFFFFFFFFFFFFFFFFFFFFFFFFFFFFFFFFF AND PUSH20 0xFFFFFFFFFFFFFFFFFFFFFFFFFFFFFFFFFFFFFFFF AND PUSH20 0xFFFFFFFFFFFFFFFFFFFFFFFFFFFFFFFFFFFFFFFF AND DUP2 MSTORE PUSH1 0x20 ADD PUSH1 0x1 DUP3 ADD SLOAD DUP2 MSTORE PUSH1 0x20 ADD PUSH1 0x2 DUP3 ADD SLOAD DUP2 MSTORE PUSH1 0x20 ADD PUSH1 0x3 DUP3 ADD SLOAD DUP2 MSTORE PUSH1 0x20 ADD PUSH1 0x4 DUP3 ADD SLOAD DUP2 MSTORE PUSH1 0x20 ADD PUSH1 0x5 DUP3 ADD PUSH1 0x0 SWAP1 SLOAD SWAP1 PUSH2 0x100 EXP SWAP1 DIV PUSH1 0xFF AND ISZERO ISZERO ISZERO ISZERO DUP2 MSTORE POP POP SWAP1 POP DUP1 PUSH1 0x80 ADD MLOAD TIMESTAMP GT PUSH2 0x349 JUMPI PUSH1 0x40 MLOAD PUSH32 0x8C379A000000000000000000000000000000000000000000000000000000000 DUP2 MSTORE PUSH1 0x4 ADD PUSH2 0x340 SWAP1 PUSH2 0x1155 JUMP JUMPDEST PUSH1 0x40 MLOAD DUP1 SWAP2 SUB SWAP1 REVERT JUMPDEST DUP1 PUSH1 0x20 ADD MLOAD DUP2 PUSH1 0x40 ADD MLOAD LT PUSH2 0x393 JUMPI PUSH1 0x40 MLOAD PUSH32 0x8C379A000000000000000000000000000000000000000000000000000000000 DUP2 MSTORE PUSH1 0x4 ADD PUSH2 0x38A SWAP1 PUSH2 0x11E7 JUMP JUMPDEST PUSH1 0x40 MLOAD DUP1 SWAP2 SUB SWAP1 REVERT JUMPDEST PUSH1 0x0 PUSH1 0x2 PUSH1 0x0 DUP5 DUP2 MSTORE PUSH1 0x20 ADD SWAP1 DUP2 MSTORE PUSH1 0x20 ADD PUSH1 0x0 KECCAK256 PUSH1 0x0 CALLER PUSH20 0xFFFFFFFFFFFFFFFFFFFFFFFFFFFFFFFFFFFFFFFF AND PUSH20 0xFFFFFFFFFFFFFFFFFFFFFFFFFFFFFFFFFFFFFFFF AND DUP2 MSTORE PUSH1 0x20 ADD SWAP1 DUP2 MSTORE PUSH1 0x20 ADD PUSH1 0x0 KECCAK256 SLOAD SWAP1 POP PUSH1 0x0 PUSH1 0x2 PUSH1 0x0 DUP6 DUP2 MSTORE PUSH1 0x20 ADD SWAP1 DUP2 MSTORE PUSH1 0x20 ADD PUSH1 0x0 KECCAK256 PUSH1 0x0 CALLER PUSH20 0xFFFFFFFFFFFFFFFFFFFFFFFFFFFFFFFFFFFFFFFF AND PUSH20 0xFFFFFFFFFFFFFFFFFFFFFFFFFFFFFFFFFFFFFFFF AND DUP2 MSTORE PUSH1 0x20 ADD SWAP1 DUP2 MSTORE PUSH1 0x20 ADD PUSH1 0x0 KECCAK256 DUP2 SWAP1 SSTORE POP PUSH32 0x0 PUSH20 0xFFFFFFFFFFFFFFFFFFFFFFFFFFFFFFFFFFFFFFFF AND PUSH4 0xA9059CBB CALLER DUP4 PUSH1 0x40 MLOAD DUP4 PUSH4 0xFFFFFFFF AND PUSH1 0xE0 SHL DUP2 MSTORE PUSH1 0x4 ADD PUSH2 0x499 SWAP3 SWAP2 SWAP1 PUSH2 0x1207 JUMP JUMPDEST PUSH1 0x20 PUSH1 0x40 MLOAD DUP1 DUP4 SUB DUP2 PUSH1 0x0 DUP8 GAS CALL ISZERO DUP1 ISZERO PUSH2 0x4B8 JUMPI RETURNDATASIZE PUSH1 0x0 DUP1 RETURNDATACOPY RETURNDATASIZE PUSH1 0x0 REVERT JUMPDEST POP POP POP POP PUSH1 0x40 MLOAD RETURNDATASIZE PUSH1 0x1F NOT PUSH1 0x1F DUP3 ADD AND DUP3 ADD DUP1 PUSH1 0x40 MSTORE POP DUP2 ADD SWAP1 PUSH2 0x4DC SWAP2 SWAP1 PUSH2 0x125C JUMP JUMPDEST POP CALLER PUSH20 0xFFFFFFFFFFFFFFFFFFFFFFFFFFFFFFFFFFFFFFFF AND PUSH32 0x21E12A7CAD0DA5928167E1084EA4D5FDF8D9AF66657A2543A9AC76A0CA081477 DUP5 DUP4 PUSH1 0x40 MLOAD PUSH2 0x525 SWAP3 SWAP2 SWAP1 PUSH2 0x1289 JUMP JUMPDEST PUSH1 0x40 MLOAD DUP1 SWAP2 SUB SWAP1 LOG2 POP POP POP JUMP JUMPDEST PUSH1 0x0 PUSH1 0x1 PUSH1 0x0 DUP4 DUP2 MSTORE PUSH1 0x20 ADD SWAP1 DUP2 MSTORE PUSH1 0x20 ADD PUSH1 0x0 KECCAK256 SWAP1 POP CALLER PUSH20 0xFFFFFFFFFFFFFFFFFFFFFFFFFFFFFFFFFFFFFFFF AND DUP2 PUSH1 0x0 ADD PUSH1 0x0 SWAP1 SLOAD SWAP1 PUSH2 0x100 EXP SWAP1 DIV PUSH20 0xFFFFFFFFFFFFFFFFFFFFFFFFFFFFFFFFFFFFFFFF AND PUSH20 0xFFFFFFFFFFFFFFFFFFFFFFFFFFFFFFFFFFFFFFFF AND EQ PUSH2 0x5DB JUMPI PUSH1 0x40 MLOAD PUSH32 0x8C379A000000000000000000000000000000000000000000000000000000000 DUP2 MSTORE PUSH1 0x4 ADD PUSH2 0x5D2 SWAP1 PUSH2 0x1324 JUMP JUMPDEST PUSH1 0x40 MLOAD DUP1 SWAP2 SUB SWAP1 REVERT JUMPDEST DUP1 PUSH1 0x4 ADD SLOAD TIMESTAMP GT PUSH2 0x621 JUMPI PUSH1 0x40 MLOAD PUSH32 0x8C379A000000000000000000000000000000000000000000000000000000000 DUP2 MSTORE PUSH1 0x4 ADD PUSH2 0x618 SWAP1 PUSH2 0x1390 JUMP JUMPDEST PUSH1 0x40 MLOAD DUP1 SWAP2 SUB SWAP1 REVERT JUMPDEST DUP1 PUSH1 0x1 ADD SLOAD DUP2 PUSH1 0x2 ADD SLOAD LT ISZERO PUSH2 0x66C JUMPI PUSH1 0x40 MLOAD PUSH32 0x8C379A000000000000000000000000000000000000000000000000000000000 DUP2 MSTORE PUSH1 0x4 ADD PUSH2 0x663 SWAP1 PUSH2 0x13FC JUMP JUMPDEST PUSH1 0x40 MLOAD DUP1 SWAP2 SUB SWAP1 REVERT JUMPDEST DUP1 PUSH1 0x5 ADD PUSH1 0x0 SWAP1 SLOAD SWAP1 PUSH2 0x100 EXP SWAP1 DIV PUSH1 0xFF AND ISZERO PUSH2 0x6BE JUMPI PUSH1 0x40 MLOAD PUSH32 0x8C379A000000000000000000000000000000000000000000000000000000000 DUP2 MSTORE PUSH1 0x4 ADD PUSH2 0x6B5 SWAP1 PUSH2 0x1468 JUMP JUMPDEST PUSH1 0x40 MLOAD DUP1 SWAP2 SUB SWAP1 REVERT JUMPDEST PUSH1 0x1 DUP2 PUSH1 0x5 ADD PUSH1 0x0 PUSH2 0x100 EXP DUP2 SLOAD DUP2 PUSH1 0xFF MUL NOT AND SWAP1 DUP4 ISZERO ISZERO MUL OR SWAP1 SSTORE POP PUSH32 0x0 PUSH20 0xFFFFFFFFFFFFFFFFFFFFFFFFFFFFFFFFFFFFFFFF AND PUSH4 0xA9059CBB DUP3 PUSH1 0x0 ADD PUSH1 0x0 SWAP1 SLOAD SWAP1 PUSH2 0x100 EXP SWAP1 DIV PUSH20 0xFFFFFFFFFFFFFFFFFFFFFFFFFFFFFFFFFFFFFFFF AND DUP4 PUSH1 0x2 ADD SLOAD PUSH1 0x40 MLOAD DUP4 PUSH4 0xFFFFFFFF AND PUSH1 0xE0 SHL DUP2 MSTORE PUSH1 0x4 ADD PUSH2 0x75E SWAP3 SWAP2 SWAP1 PUSH2 0x1207 JUMP JUMPDEST PUSH1 0x20 PUSH1 0x40 MLOAD DUP1 DUP4 SUB DUP2 PUSH1 0x0 DUP8 GAS CALL ISZERO DUP1 ISZERO PUSH2 0x77D JUMPI RETURNDATASIZE PUSH1 0x0 DUP1 RETURNDATACOPY RETURNDATASIZE PUSH1 0x0 REVERT JUMPDEST POP POP POP POP PUSH1 0x40 MLOAD RETURNDATASIZE PUSH1 0x1F NOT PUSH1 0x1F DUP3 ADD AND DUP3 ADD DUP1 PUSH1 0x40 MSTORE POP DUP2 ADD SWAP1 PUSH2 0x7A1 SWAP2 SWAP1 PUSH2 0x125C JUMP JUMPDEST POP PUSH32 0x7BB2B3C10797BACCB6F8C4791F1EDD6CA2F0D028EE0EDA64B01A9A57E3A653F7 DUP3 PUSH1 0x40 MLOAD PUSH2 0x7D1 SWAP2 SWAP1 PUSH2 0xE20 JUMP JUMPDEST PUSH1 0x40 MLOAD DUP1 SWAP2 SUB SWAP1 LOG1 POP POP JUMP JUMPDEST PUSH1 0x0 DUP1 PUSH1 0x1 PUSH1 0x0 DUP5 DUP2 MSTORE PUSH1 0x20 ADD SWAP1 DUP2 MSTORE PUSH1 0x20 ADD PUSH1 0x0 KECCAK256 PUSH1 0x40 MLOAD DUP1 PUSH1 0xC0 ADD PUSH1 0x40 MSTORE SWAP1 DUP2 PUSH1 0x0 DUP3 ADD PUSH1 0x0 SWAP1 SLOAD SWAP1 PUSH2 0x100 EXP SWAP1 DIV PUSH20 0xFFFFFFFFFFFFFFFFFFFFFFFFFFFFFFFFFFFFFFFF AND PUSH20 0xFFFFFFFFFFFFFFFFFFFFFFFFFFFFFFFFFFFFFFFF AND PUSH20 0xFFFFFFFFFFFFFFFFFFFFFFFFFFFFFFFFFFFFFFFF AND DUP2 MSTORE PUSH1 0x20 ADD PUSH1 0x1 DUP3 ADD SLOAD DUP2 MSTORE PUSH1 0x20 ADD PUSH1 0x2 DUP3 ADD SLOAD DUP2 MSTORE PUSH1 0x20 ADD PUSH1 0x3 DUP3 ADD SLOAD DUP2 MSTORE PUSH1 0x20 ADD PUSH1 0x4 DUP3 ADD SLOAD DUP2 MSTORE PUSH1 0x20 ADD PUSH1 0x5 DUP3 ADD PUSH1 0x0 SWAP1 SLOAD SWAP1 PUSH2 0x100 EXP SWAP1 DIV PUSH1 0xFF AND ISZERO ISZERO ISZERO ISZERO DUP2 MSTORE POP POP SWAP1 POP TIMESTAMP DUP2 PUSH1 0x80 ADD MLOAD PUSH2 0x8A9 SWAP2 SWAP1 PUSH2 0x14B7 JUMP JUMPDEST SWAP2 POP POP SWAP2 SWAP1 POP JUMP JUMPDEST PUSH1 0x1 PUSH1 0x0 DUP1 DUP3 DUP3 SLOAD PUSH2 0x8C3 SWAP2 SWAP1 PUSH2 0x14EB JUMP JUMPDEST SWAP3 POP POP DUP2 SWAP1 SSTORE POP PUSH1 0x40 MLOAD DUP1 PUSH1 0xC0 ADD PUSH1 0x40 MSTORE DUP1 CALLER PUSH20 0xFFFFFFFFFFFFFFFFFFFFFFFFFFFFFFFFFFFFFFFF AND DUP2 MSTORE PUSH1 0x20 ADD DUP4 DUP2 MSTORE PUSH1 0x20 ADD PUSH1 0x0 DUP2 MSTORE PUSH1 0x20 ADD TIMESTAMP DUP2 MSTORE PUSH1 0x20 ADD DUP3 PUSH4 0xFFFFFFFF AND TIMESTAMP PUSH2 0x916 SWAP2 SWAP1 PUSH2 0x14EB JUMP JUMPDEST DUP2 MSTORE PUSH1 0x20 ADD PUSH1 0x0 ISZERO ISZERO DUP2 MSTORE POP PUSH1 0x1 PUSH1 0x0 DUP1 SLOAD DUP2 MSTORE PUSH1 0x20 ADD SWAP1 DUP2 MSTORE PUSH1 0x20 ADD PUSH1 0x0 KECCAK256 PUSH1 0x0 DUP3 ADD MLOAD DUP2 PUSH1 0x0 ADD PUSH1 0x0 PUSH2 0x100 EXP DUP2 SLOAD DUP2 PUSH20 0xFFFFFFFFFFFFFFFFFFFFFFFFFFFFFFFFFFFFFFFF MUL NOT AND SWAP1 DUP4 PUSH20 0xFFFFFFFFFFFFFFFFFFFFFFFFFFFFFFFFFFFFFFFF AND MUL OR SWAP1 SSTORE POP PUSH1 0x20 DUP3 ADD MLOAD DUP2 PUSH1 0x1 ADD SSTORE PUSH1 0x40 DUP3 ADD MLOAD DUP2 PUSH1 0x2 ADD SSTORE PUSH1 0x60 DUP3 ADD MLOAD DUP2 PUSH1 0x3 ADD SSTORE PUSH1 0x80 DUP3 ADD MLOAD DUP2 PUSH1 0x4 ADD SSTORE PUSH1 0xA0 DUP3 ADD MLOAD DUP2 PUSH1 0x5 ADD PUSH1 0x0 PUSH2 0x100 EXP DUP2 SLOAD DUP2 PUSH1 0xFF MUL NOT AND SWAP1 DUP4 ISZERO ISZERO MUL OR SWAP1 SSTORE POP SWAP1 POP POP CALLER PUSH20 0xFFFFFFFFFFFFFFFFFFFFFFFFFFFFFFFFFFFFFFFF AND PUSH32 0x7BD7E1EDE4CE27A61039C25F909F871AB820F6D4B91F1CEB1330EE2BA499AEF3 PUSH1 0x0 SLOAD DUP5 DUP5 PUSH1 0x40 MLOAD PUSH2 0xA14 SWAP4 SWAP3 SWAP2 SWAP1 PUSH2 0x152E JUMP JUMPDEST PUSH1 0x40 MLOAD DUP1 SWAP2 SUB SWAP1 LOG2 POP POP JUMP JUMPDEST PUSH1 0x2 PUSH1 0x20 MSTORE DUP2 PUSH1 0x0 MSTORE PUSH1 0x40 PUSH1 0x0 KECCAK256 PUSH1 0x20 MSTORE DUP1 PUSH1 0x0 MSTORE PUSH1 0x40 PUSH1 0x0 KECCAK256 PUSH1 0x0 SWAP2 POP SWAP2 POP POP SLOAD DUP2 JUMP JUMPDEST PUSH32 0x0 DUP2 JUMP JUMPDEST PUSH1 0x0 PUSH1 0x1 PUSH1 0x0 DUP5 DUP2 MSTORE PUSH1 0x20 ADD SWAP1 DUP2 MSTORE PUSH1 0x20 ADD PUSH1 0x0 KECCAK256 SWAP1 POP DUP1 PUSH1 0x3 ADD SLOAD TIMESTAMP LT ISZERO PUSH2 0xAC7 JUMPI PUSH1 0x40 MLOAD PUSH32 0x8C379A000000000000000000000000000000000000000000000000000000000 DUP2 MSTORE PUSH1 0x4 ADD PUSH2 0xABE SWAP1 PUSH2 0x15B1 JUMP JUMPDEST PUSH1 0x40 MLOAD DUP1 SWAP2 SUB SWAP1 REVERT JUMPDEST DUP1 PUSH1 0x4 ADD SLOAD TIMESTAMP GT ISZERO PUSH2 0xB0E JUMPI PUSH1 0x40 MLOAD PUSH32 0x8C379A000000000000000000000000000000000000000000000000000000000 DUP2 MSTORE PUSH1 0x4 ADD PUSH2 0xB05 SWAP1 PUSH2 0x161D JUMP JUMPDEST PUSH1 0x40 MLOAD DUP1 SWAP2 SUB SWAP1 REVERT JUMPDEST DUP2 DUP2 PUSH1 0x2 ADD PUSH1 0x0 DUP3 DUP3 SLOAD PUSH2 0xB22 SWAP2 SWAP1 PUSH2 0x14EB JUMP JUMPDEST SWAP3 POP POP DUP2 SWAP1 SSTORE POP DUP2 PUSH1 0x2 PUSH1 0x0 DUP6 DUP2 MSTORE PUSH1 0x20 ADD SWAP1 DUP2 MSTORE PUSH1 0x20 ADD PUSH1 0x0 KECCAK256 PUSH1 0x0 CALLER PUSH20 0xFFFFFFFFFFFFFFFFFFFFFFFFFFFFFFFFFFFFFFFF AND PUSH20 0xFFFFFFFFFFFFFFFFFFFFFFFFFFFFFFFFFFFFFFFF AND DUP2 MSTORE PUSH1 0x20 ADD SWAP1 DUP2 MSTORE PUSH1 0x20 ADD PUSH1 0x0 KECCAK256 PUSH1 0x0 DUP3 DUP3 SLOAD PUSH2 0xB89 SWAP2 SWAP1 PUSH2 0x14EB JUMP JUMPDEST SWAP3 POP POP DUP2 SWAP1 SSTORE POP PUSH32 0x0 PUSH20 0xFFFFFFFFFFFFFFFFFFFFFFFFFFFFFFFFFFFFFFFF AND PUSH4 0x23B872DD CALLER ADDRESS DUP6 PUSH1 0x40 MLOAD DUP5 PUSH4 0xFFFFFFFF AND PUSH1 0xE0 SHL DUP2 MSTORE PUSH1 0x4 ADD PUSH2 0xBED SWAP4 SWAP3 SWAP2 SWAP1 PUSH2 0x163D JUMP JUMPDEST PUSH1 0x20 PUSH1 0x40 MLOAD DUP1 DUP4 SUB DUP2 PUSH1 0x0 DUP8 GAS CALL ISZERO DUP1 ISZERO PUSH2 0xC0C JUMPI RETURNDATASIZE PUSH1 0x0 DUP1 RETURNDATACOPY RETURNDATASIZE PUSH1 0x0 REVERT JUMPDEST POP POP POP POP PUSH1 0x40 MLOAD RETURNDATASIZE PUSH1 0x1F NOT PUSH1 0x1F DUP3 ADD AND DUP3 ADD DUP1 PUSH1 0x40 MSTORE POP DUP2 ADD SWAP1 PUSH2 0xC30 SWAP2 SWAP1 PUSH2 0x125C JUMP JUMPDEST POP PUSH1 0x32 DUP3 LT PUSH2 0xDB3 JUMPI PUSH1 0x3 PUSH1 0x0 DUP2 SLOAD DUP1 SWAP3 SWAP2 SWAP1 PUSH2 0xC4C SWAP1 PUSH2 0x1674 JUMP JUMPDEST SWAP2 SWAP1 POP SSTORE POP PUSH1 0x0 PUSH1 0x2 TIMESTAMP CALLER PUSH1 0x3 SLOAD PUSH1 0x40 MLOAD PUSH1 0x20 ADD PUSH2 0xC6C SWAP4 SWAP3 SWAP2 SWAP1 PUSH2 0x1725 JUMP JUMPDEST PUSH1 0x40 MLOAD PUSH1 0x20 DUP2 DUP4 SUB SUB DUP2 MSTORE SWAP1 PUSH1 0x40 MSTORE DUP1 MLOAD SWAP1 PUSH1 0x20 ADD KECCAK256 PUSH1 0x0 SHR PUSH2 0xC8F SWAP2 SWAP1 PUSH2 0x1791 JUMP JUMPDEST SWAP1 POP PUSH1 0x1 DUP2 SUB PUSH2 0xDB1 JUMPI PUSH32 0x0 PUSH20 0xFFFFFFFFFFFFFFFFFFFFFFFFFFFFFFFFFFFFFFFF AND PUSH4 0x23B872DD DUP4 PUSH1 0x0 ADD PUSH1 0x0 SWAP1 SLOAD SWAP1 PUSH2 0x100 EXP SWAP1 DIV PUSH20 0xFFFFFFFFFFFFFFFFFFFFFFFFFFFFFFFFFFFFFFFF AND CALLER PUSH1 0x5 PUSH1 0x40 MLOAD DUP5 PUSH4 0xFFFFFFFF AND PUSH1 0xE0 SHL DUP2 MSTORE PUSH1 0x4 ADD PUSH2 0xD1B SWAP4 SWAP3 SWAP2 SWAP1 PUSH2 0x17FD JUMP JUMPDEST PUSH1 0x20 PUSH1 0x40 MLOAD DUP1 DUP4 SUB DUP2 PUSH1 0x0 DUP8 GAS CALL ISZERO DUP1 ISZERO PUSH2 0xD3A JUMPI RETURNDATASIZE PUSH1 0x0 DUP1 RETURNDATACOPY RETURNDATASIZE PUSH1 0x0 REVERT JUMPDEST POP POP POP POP PUSH1 0x40 MLOAD RETURNDATASIZE PUSH1 0x1F NOT PUSH1 0x1F DUP3 ADD AND DUP3 ADD DUP1 PUSH1 0x40 MSTORE POP DUP2 ADD SWAP1 PUSH2 0xD5E SWAP2 SWAP1 PUSH2 0x125C JUMP JUMPDEST POP CALLER PUSH20 0xFFFFFFFFFFFFFFFFFFFFFFFFFFFFFFFFFFFFFFFF AND PUSH32 0x2A6A2BE713FEDF52F113C0A759F1C1A23A113476D9B1B1A2A453C910660DE4E DUP3 PUSH1 0x5 PUSH1 0x40 MLOAD PUSH2 0xDA8 SWAP3 SWAP2 SWAP1 PUSH2 0x1834 JUMP JUMPDEST PUSH1 0x40 MLOAD DUP1 SWAP2 SUB SWAP1 LOG2 JUMPDEST POP JUMPDEST CALLER PUSH20 0xFFFFFFFFFFFFFFFFFFFFFFFFFFFFFFFFFFFFFFFF AND DUP4 PUSH32 0x6BDB975DF800A73232998E71ED585D536222F1DFEAA622D7F62A23ADA686C82 DUP5 PUSH1 0x40 MLOAD PUSH2 0xDFA SWAP2 SWAP1 PUSH2 0xE20 JUMP JUMPDEST PUSH1 0x40 MLOAD DUP1 SWAP2 SUB SWAP1 LOG3 POP POP POP JUMP JUMPDEST PUSH1 0x0 DUP2 SWAP1 POP SWAP2 SWAP1 POP JUMP JUMPDEST PUSH2 0xE1A DUP2 PUSH2 0xE07 JUMP JUMPDEST DUP3 MSTORE POP POP JUMP JUMPDEST PUSH1 0x0 PUSH1 0x20 DUP3 ADD SWAP1 POP PUSH2 0xE35 PUSH1 0x0 DUP4 ADD DUP5 PUSH2 0xE11 JUMP JUMPDEST SWAP3 SWAP2 POP POP JUMP JUMPDEST PUSH1 0x0 DUP1 REVERT JUMPDEST PUSH2 0xE49 DUP2 PUSH2 0xE07 JUMP JUMPDEST DUP2 EQ PUSH2 0xE54 JUMPI PUSH1 0x0 DUP1 REVERT JUMPDEST POP JUMP JUMPDEST PUSH1 0x0 DUP2 CALLDATALOAD SWAP1 POP PUSH2 0xE66 DUP2 PUSH2 0xE40 JUMP JUMPDEST SWAP3 SWAP2 POP POP JUMP JUMPDEST PUSH1 0x0 PUSH1 0x20 DUP3 DUP5 SUB SLT ISZERO PUSH2 0xE82 JUMPI PUSH2 0xE81 PUSH2 0xE3B JUMP JUMPDEST JUMPDEST PUSH1 0x0 PUSH2 0xE90 DUP5 DUP3 DUP6 ADD PUSH2 0xE57 JUMP JUMPDEST SWAP2 POP POP SWAP3 SWAP2 POP POP JUMP JUMPDEST PUSH1 0x0 PUSH20 0xFFFFFFFFFFFFFFFFFFFFFFFFFFFFFFFFFFFFFFFF DUP3 AND SWAP1 POP SWAP2 SWAP1 POP JUMP JUMPDEST PUSH1 0x0 PUSH2 0xEC4 DUP3 PUSH2 0xE99 JUMP JUMPDEST SWAP1 POP SWAP2 SWAP1 POP JUMP JUMPDEST PUSH2 0xED4 DUP2 PUSH2 0xEB9 JUMP JUMPDEST DUP3 MSTORE POP POP JUMP JUMPDEST PUSH1 0x0 DUP2 ISZERO ISZERO SWAP1 POP SWAP2 SWAP1 POP JUMP JUMPDEST PUSH2 0xEEF DUP2 PUSH2 0xEDA JUMP JUMPDEST DUP3 MSTORE POP POP JUMP JUMPDEST PUSH1 0x0 PUSH1 0xC0 DUP3 ADD SWAP1 POP PUSH2 0xF0A PUSH1 0x0 DUP4 ADD DUP10 PUSH2 0xECB JUMP JUMPDEST PUSH2 0xF17 PUSH1 0x20 DUP4 ADD DUP9 PUSH2 0xE11 JUMP JUMPDEST PUSH2 0xF24 PUSH1 0x40 DUP4 ADD DUP8 PUSH2 0xE11 JUMP JUMPDEST PUSH2 0xF31 PUSH1 0x60 DUP4 ADD DUP7 PUSH2 0xE11 JUMP JUMPDEST PUSH2 0xF3E PUSH1 0x80 DUP4 ADD DUP6 PUSH2 0xE11 JUMP JUMPDEST PUSH2 0xF4B PUSH1 0xA0 DUP4 ADD DUP5 PUSH2 0xEE6 JUMP JUMPDEST SWAP8 SWAP7 POP POP POP POP POP POP POP JUMP JUMPDEST PUSH1 0x0 PUSH4 0xFFFFFFFF DUP3 AND SWAP1 POP SWAP2 SWAP1 POP JUMP JUMPDEST PUSH2 0xF6F DUP2 PUSH2 0xF56 JUMP JUMPDEST DUP2 EQ PUSH2 0xF7A JUMPI PUSH1 0x0 DUP1 REVERT JUMPDEST POP JUMP JUMPDEST PUSH1 0x0 DUP2 CALLDATALOAD SWAP1 POP PUSH2 0xF8C DUP2 PUSH2 0xF66 JUMP JUMPDEST SWAP3 SWAP2 POP POP JUMP JUMPDEST PUSH1 0x0 DUP1 PUSH1 0x40 DUP4 DUP6 SUB SLT ISZERO PUSH2 0xFA9 JUMPI PUSH2 0xFA8 PUSH2 0xE3B JUMP JUMPDEST JUMPDEST PUSH1 0x0 PUSH2 0xFB7 DUP6 DUP3 DUP7 ADD PUSH2 0xE57 JUMP JUMPDEST SWAP3 POP POP PUSH1 0x20 PUSH2 0xFC8 DUP6 DUP3 DUP7 ADD PUSH2 0xF7D JUMP JUMPDEST SWAP2 POP POP SWAP3 POP SWAP3 SWAP1 POP JUMP JUMPDEST PUSH2 0xFDB DUP2 PUSH2 0xEB9 JUMP JUMPDEST DUP2 EQ PUSH2 0xFE6 JUMPI PUSH1 0x0 DUP1 REVERT JUMPDEST POP JUMP JUMPDEST PUSH1 0x0 DUP2 CALLDATALOAD SWAP1 POP PUSH2 0xFF8 DUP2 PUSH2 0xFD2 JUMP JUMPDEST SWAP3 SWAP2 POP POP JUMP JUMPDEST PUSH1 0x0 DUP1 PUSH1 0x40 DUP4 DUP6 SUB SLT ISZERO PUSH2 0x1015 JUMPI PUSH2 0x1014 PUSH2 0xE3B JUMP JUMPDEST JUMPDEST PUSH1 0x0 PUSH2 0x1023 DUP6 DUP3 DUP7 ADD PUSH2 0xE57 JUMP JUMPDEST SWAP3 POP POP PUSH1 0x20 PUSH2 0x1034 DUP6 DUP3 DUP7 ADD PUSH2 0xFE9 JUMP JUMPDEST SWAP2 POP POP SWAP3 POP SWAP3 SWAP1 POP JUMP JUMPDEST PUSH1 0x0 DUP2 SWAP1 POP SWAP2 SWAP1 POP JUMP JUMPDEST PUSH1 0x0 PUSH2 0x1063 PUSH2 0x105E PUSH2 0x1059 DUP5 PUSH2 0xE99 JUMP JUMPDEST PUSH2 0x103E JUMP JUMPDEST PUSH2 0xE99 JUMP JUMPDEST SWAP1 POP SWAP2 SWAP1 POP JUMP JUMPDEST PUSH1 0x0 PUSH2 0x1075 DUP3 PUSH2 0x1048 JUMP JUMPDEST SWAP1 POP SWAP2 SWAP1 POP JUMP JUMPDEST PUSH1 0x0 PUSH2 0x1087 DUP3 PUSH2 0x106A JUMP JUMPDEST SWAP1 POP SWAP2 SWAP1 POP JUMP JUMPDEST PUSH2 0x1097 DUP2 PUSH2 0x107C JUMP JUMPDEST DUP3 MSTORE POP POP JUMP JUMPDEST PUSH1 0x0 PUSH1 0x20 DUP3 ADD SWAP1 POP PUSH2 0x10B2 PUSH1 0x0 DUP4 ADD DUP5 PUSH2 0x108E JUMP JUMPDEST SWAP3 SWAP2 POP POP JUMP JUMPDEST PUSH1 0x0 DUP1 PUSH1 0x40 DUP4 DUP6 SUB SLT ISZERO PUSH2 0x10CF JUMPI PUSH2 0x10CE PUSH2 0xE3B JUMP JUMPDEST JUMPDEST PUSH1 0x0 PUSH2 0x10DD DUP6 DUP3 DUP7 ADD PUSH2 0xE57 JUMP JUMPDEST SWAP3 POP POP PUSH1 0x20 PUSH2 0x10EE DUP6 DUP3 DUP7 ADD PUSH2 0xE57 JUMP JUMPDEST SWAP2 POP POP SWAP3 POP SWAP3 SWAP1 POP JUMP JUMPDEST PUSH1 0x0 DUP3 DUP3 MSTORE PUSH1 0x20 DUP3 ADD SWAP1 POP SWAP3 SWAP2 POP POP JUMP JUMPDEST PUSH32 0x43616D706169676E206E6F7420656E6465640000000000000000000000000000 PUSH1 0x0 DUP3 ADD MSTORE POP JUMP JUMPDEST PUSH1 0x0 PUSH2 0x113F PUSH1 0x12 DUP4 PUSH2 0x10F8 JUMP JUMPDEST SWAP2 POP PUSH2 0x114A DUP3 PUSH2 0x1109 JUMP JUMPDEST PUSH1 0x20 DUP3 ADD SWAP1 POP SWAP2 SWAP1 POP JUMP JUMPDEST PUSH1 0x0 PUSH1 0x20 DUP3 ADD SWAP1 POP DUP2 DUP2 SUB PUSH1 0x0 DUP4 ADD MSTORE PUSH2 0x116E DUP2 PUSH2 0x1132 JUMP JUMPDEST SWAP1 POP SWAP2 SWAP1 POP JUMP JUMPDEST PUSH32 0x54686520676F616C20686173206265656E207265616368656420736F20796F75 PUSH1 0x0 DUP3 ADD MSTORE PUSH32 0x2063616E277420636C61696D0000000000000000000000000000000000000000 PUSH1 0x20 DUP3 ADD MSTORE POP JUMP JUMPDEST PUSH1 0x0 PUSH2 0x11D1 PUSH1 0x2C DUP4 PUSH2 0x10F8 JUMP JUMPDEST SWAP2 POP PUSH2 0x11DC DUP3 PUSH2 0x1175 JUMP JUMPDEST PUSH1 0x40 DUP3 ADD SWAP1 POP SWAP2 SWAP1 POP JUMP JUMPDEST PUSH1 0x0 PUSH1 0x20 DUP3 ADD SWAP1 POP DUP2 DUP2 SUB PUSH1 0x0 DUP4 ADD MSTORE PUSH2 0x1200 DUP2 PUSH2 0x11C4 JUMP JUMPDEST SWAP1 POP SWAP2 SWAP1 POP JUMP JUMPDEST PUSH1 0x0 PUSH1 0x40 DUP3 ADD SWAP1 POP PUSH2 0x121C PUSH1 0x0 DUP4 ADD DUP6 PUSH2 0xECB JUMP JUMPDEST PUSH2 0x1229 PUSH1 0x20 DUP4 ADD DUP5 PUSH2 0xE11 JUMP JUMPDEST SWAP4 SWAP3 POP POP POP JUMP JUMPDEST PUSH2 0x1239 DUP2 PUSH2 0xEDA JUMP JUMPDEST DUP2 EQ PUSH2 0x1244 JUMPI PUSH1 0x0 DUP1 REVERT JUMPDEST POP JUMP JUMPDEST PUSH1 0x0 DUP2 MLOAD SWAP1 POP PUSH2 0x1256 DUP2 PUSH2 0x1230 JUMP JUMPDEST SWAP3 SWAP2 POP POP JUMP JUMPDEST PUSH1 0x0 PUSH1 0x20 DUP3 DUP5 SUB SLT ISZERO PUSH2 0x1272 JUMPI PUSH2 0x1271 PUSH2 0xE3B JUMP JUMPDEST JUMPDEST PUSH1 0x0 PUSH2 0x1280 DUP5 DUP3 DUP6 ADD PUSH2 0x1247 JUMP JUMPDEST SWAP2 POP POP SWAP3 SWAP2 POP POP JUMP JUMPDEST PUSH1 0x0 PUSH1 0x40 DUP3 ADD SWAP1 POP PUSH2 0x129E PUSH1 0x0 DUP4 ADD DUP6 PUSH2 0xE11 JUMP JUMPDEST PUSH2 0x12AB PUSH1 0x20 DUP4 ADD DUP5 PUSH2 0xE11 JUMP JUMPDEST SWAP4 SWAP3 POP POP POP JUMP JUMPDEST PUSH32 0x596F75277265206E6F74207468652063726561746F72206F6620746865206361 PUSH1 0x0 DUP3 ADD MSTORE PUSH32 0x6D706169676E0000000000000000000000000000000000000000000000000000 PUSH1 0x20 DUP3 ADD MSTORE POP JUMP JUMPDEST PUSH1 0x0 PUSH2 0x130E PUSH1 0x26 DUP4 PUSH2 0x10F8 JUMP JUMPDEST SWAP2 POP PUSH2 0x1319 DUP3 PUSH2 0x12B2 JUMP JUMPDEST PUSH1 0x40 DUP3 ADD SWAP1 POP SWAP2 SWAP1 POP JUMP JUMPDEST PUSH1 0x0 PUSH1 0x20 DUP3 ADD SWAP1 POP DUP2 DUP2 SUB PUSH1 0x0 DUP4 ADD MSTORE PUSH2 0x133D DUP2 PUSH2 0x1301 JUMP JUMPDEST SWAP1 POP SWAP2 SWAP1 POP JUMP JUMPDEST PUSH32 0x43616D706169676E206E6F7420656E6465642000000000000000000000000000 PUSH1 0x0 DUP3 ADD MSTORE POP JUMP JUMPDEST PUSH1 0x0 PUSH2 0x137A PUSH1 0x13 DUP4 PUSH2 0x10F8 JUMP JUMPDEST SWAP2 POP PUSH2 0x1385 DUP3 PUSH2 0x1344 JUMP JUMPDEST PUSH1 0x20 DUP3 ADD SWAP1 POP SWAP2 SWAP1 POP JUMP JUMPDEST PUSH1 0x0 PUSH1 0x20 DUP3 ADD SWAP1 POP DUP2 DUP2 SUB PUSH1 0x0 DUP4 ADD MSTORE PUSH2 0x13A9 DUP2 PUSH2 0x136D JUMP JUMPDEST SWAP1 POP SWAP2 SWAP1 POP JUMP JUMPDEST PUSH32 0x54686520676F616C20686173206E6F74206265656E2072656163686564000000 PUSH1 0x0 DUP3 ADD MSTORE POP JUMP JUMPDEST PUSH1 0x0 PUSH2 0x13E6 PUSH1 0x1D DUP4 PUSH2 0x10F8 JUMP JUMPDEST SWAP2 POP PUSH2 0x13F1 DUP3 PUSH2 0x13B0 JUMP JUMPDEST PUSH1 0x20 DUP3 ADD SWAP1 POP SWAP2 SWAP1 POP JUMP JUMPDEST PUSH1 0x0 PUSH1 0x20 DUP3 ADD SWAP1 POP DUP2 DUP2 SUB PUSH1 0x0 DUP4 ADD MSTORE PUSH2 0x1415 DUP2 PUSH2 0x13D9 JUMP JUMPDEST SWAP1 POP SWAP2 SWAP1 POP JUMP JUMPDEST PUSH32 0x43616D706169676E20616C726561647920636C61696D65640000000000000000 PUSH1 0x0 DUP3 ADD MSTORE POP JUMP JUMPDEST PUSH1 0x0 PUSH2 0x1452 PUSH1 0x18 DUP4 PUSH2 0x10F8 JUMP JUMPDEST SWAP2 POP PUSH2 0x145D DUP3 PUSH2 0x141C JUMP JUMPDEST PUSH1 0x20 DUP3 ADD SWAP1 POP SWAP2 SWAP1 POP JUMP JUMPDEST PUSH1 0x0 PUSH1 0x20 DUP3 ADD SWAP1 POP DUP2 DUP2 SUB PUSH1 0x0 DUP4 ADD MSTORE PUSH2 0x1481 DUP2 PUSH2 0x1445 JUMP JUMPDEST SWAP1 POP SWAP2 SWAP1 POP JUMP JUMPDEST PUSH32 0x4E487B7100000000000000000000000000000000000000000000000000000000 PUSH1 0x0 MSTORE PUSH1 0x11 PUSH1 0x4 MSTORE PUSH1 0x24 PUSH1 0x0 REVERT JUMPDEST PUSH1 0x0 PUSH2 0x14C2 DUP3 PUSH2 0xE07 JUMP JUMPDEST SWAP2 POP PUSH2 0x14CD DUP4 PUSH2 0xE07 JUMP JUMPDEST SWAP3 POP DUP3 DUP3 SUB SWAP1 POP DUP2 DUP2 GT ISZERO PUSH2 0x14E5 JUMPI PUSH2 0x14E4 PUSH2 0x1488 JUMP JUMPDEST JUMPDEST SWAP3 SWAP2 POP POP JUMP JUMPDEST PUSH1 0x0 PUSH2 0x14F6 DUP3 PUSH2 0xE07 JUMP JUMPDEST SWAP2 POP PUSH2 0x1501 DUP4 PUSH2 0xE07 JUMP JUMPDEST SWAP3 POP DUP3 DUP3 ADD SWAP1 POP DUP1 DUP3 GT ISZERO PUSH2 0x1519 JUMPI PUSH2 0x1518 PUSH2 0x1488 JUMP JUMPDEST JUMPDEST SWAP3 SWAP2 POP POP JUMP JUMPDEST PUSH2 0x1528 DUP2 PUSH2 0xF56 JUMP JUMPDEST DUP3 MSTORE POP POP JUMP JUMPDEST PUSH1 0x0 PUSH1 0x60 DUP3 ADD SWAP1 POP PUSH2 0x1543 PUSH1 0x0 DUP4 ADD DUP7 PUSH2 0xE11 JUMP JUMPDEST PUSH2 0x1550 PUSH1 0x20 DUP4 ADD DUP6 PUSH2 0xE11 JUMP JUMPDEST PUSH2 0x155D PUSH1 0x40 DUP4 ADD DUP5 PUSH2 0x151F JUMP JUMPDEST SWAP5 SWAP4 POP POP POP POP JUMP JUMPDEST PUSH32 0x43616D706169676E206E6F742073746172746564000000000000000000000000 PUSH1 0x0 DUP3 ADD MSTORE POP JUMP JUMPDEST PUSH1 0x0 PUSH2 0x159B PUSH1 0x14 DUP4 PUSH2 0x10F8 JUMP JUMPDEST SWAP2 POP PUSH2 0x15A6 DUP3 PUSH2 0x1565 JUMP JUMPDEST PUSH1 0x20 DUP3 ADD SWAP1 POP SWAP2 SWAP1 POP JUMP JUMPDEST PUSH1 0x0 PUSH1 0x20 DUP3 ADD SWAP1 POP DUP2 DUP2 SUB PUSH1 0x0 DUP4 ADD MSTORE PUSH2 0x15CA DUP2 PUSH2 0x158E JUMP JUMPDEST SWAP1 POP SWAP2 SWAP1 POP JUMP JUMPDEST PUSH32 0x43616D706169676E20656E646564000000000000000000000000000000000000 PUSH1 0x0 DUP3 ADD MSTORE POP JUMP JUMPDEST PUSH1 0x0 PUSH2 0x1607 PUSH1 0xE DUP4 PUSH2 0x10F8 JUMP JUMPDEST SWAP2 POP PUSH2 0x1612 DUP3 PUSH2 0x15D1 JUMP JUMPDEST PUSH1 0x20 DUP3 ADD SWAP1 POP SWAP2 SWAP1 POP JUMP JUMPDEST PUSH1 0x0 PUSH1 0x20 DUP3 ADD SWAP1 POP DUP2 DUP2 SUB PUSH1 0x0 DUP4 ADD MSTORE PUSH2 0x1636 DUP2 PUSH2 0x15FA JUMP JUMPDEST SWAP1 POP SWAP2 SWAP1 POP JUMP JUMPDEST PUSH1 0x0 PUSH1 0x60 DUP3 ADD SWAP1 POP PUSH2 0x1652 PUSH1 0x0 DUP4 ADD DUP7 PUSH2 0xECB JUMP JUMPDEST PUSH2 0x165F PUSH1 0x20 DUP4 ADD DUP6 PUSH2 0xECB JUMP JUMPDEST PUSH2 0x166C PUSH1 0x40 DUP4 ADD DUP5 PUSH2 0xE11 JUMP JUMPDEST SWAP5 SWAP4 POP POP POP POP JUMP JUMPDEST PUSH1 0x0 PUSH2 0x167F DUP3 PUSH2 0xE07 JUMP JUMPDEST SWAP2 POP PUSH32 0xFFFFFFFFFFFFFFFFFFFFFFFFFFFFFFFFFFFFFFFFFFFFFFFFFFFFFFFFFFFFFFFF DUP3 SUB PUSH2 0x16B1 JUMPI PUSH2 0x16B0 PUSH2 0x1488 JUMP JUMPDEST JUMPDEST PUSH1 0x1 DUP3 ADD SWAP1 POP SWAP2 SWAP1 POP JUMP JUMPDEST PUSH1 0x0 DUP2 SWAP1 POP SWAP2 SWAP1 POP JUMP JUMPDEST PUSH2 0x16D7 PUSH2 0x16D2 DUP3 PUSH2 0xE07 JUMP JUMPDEST PUSH2 0x16BC JUMP JUMPDEST DUP3 MSTORE POP POP JUMP JUMPDEST PUSH1 0x0 DUP2 PUSH1 0x60 SHL SWAP1 POP SWAP2 SWAP1 POP JUMP JUMPDEST PUSH1 0x0 PUSH2 0x16F5 DUP3 PUSH2 0x16DD JUMP JUMPDEST SWAP1 POP SWAP2 SWAP1 POP JUMP JUMPDEST PUSH1 0x0 PUSH2 0x1707 DUP3 PUSH2 0x16EA JUMP JUMPDEST SWAP1 POP SWAP2 SWAP1 POP JUMP JUMPDEST PUSH2 0x171F PUSH2 0x171A DUP3 PUSH2 0xEB9 JUMP JUMPDEST PUSH2 0x16FC JUMP JUMPDEST DUP3 MSTORE POP POP JUMP JUMPDEST PUSH1 0x0 PUSH2 0x1731 DUP3 DUP7 PUSH2 0x16C6 JUMP JUMPDEST PUSH1 0x20 DUP3 ADD SWAP2 POP PUSH2 0x1741 DUP3 DUP6 PUSH2 0x170E JUMP JUMPDEST PUSH1 0x14 DUP3 ADD SWAP2 POP PUSH2 0x1751 DUP3 DUP5 PUSH2 0x16C6 JUMP JUMPDEST PUSH1 0x20 DUP3 ADD SWAP2 POP DUP2 SWAP1 POP SWAP5 SWAP4 POP POP POP POP JUMP JUMPDEST PUSH32 0x4E487B7100000000000000000000000000000000000000000000000000000000 PUSH1 0x0 MSTORE PUSH1 0x12 PUSH1 0x4 MSTORE PUSH1 0x24 PUSH1 0x0 REVERT JUMPDEST PUSH1 0x0 PUSH2 0x179C DUP3 PUSH2 0xE07 JUMP JUMPDEST SWAP2 POP PUSH2 0x17A7 DUP4 PUSH2 0xE07 JUMP JUMPDEST SWAP3 POP DUP3 PUSH2 0x17B7 JUMPI PUSH2 0x17B6 PUSH2 0x1762 JUMP JUMPDEST JUMPDEST DUP3 DUP3 MOD SWAP1 POP SWAP3 SWAP2 POP POP JUMP JUMPDEST PUSH1 0x0 DUP2 SWAP1 POP SWAP2 SWAP1 POP JUMP JUMPDEST PUSH1 0x0 PUSH2 0x17E7 PUSH2 0x17E2 PUSH2 0x17DD DUP5 PUSH2 0x17C2 JUMP JUMPDEST PUSH2 0x103E JUMP JUMPDEST PUSH2 0xE07 JUMP JUMPDEST SWAP1 POP SWAP2 SWAP1 POP JUMP JUMPDEST PUSH2 0x17F7 DUP2 PUSH2 0x17CC JUMP JUMPDEST DUP3 MSTORE POP POP JUMP JUMPDEST PUSH1 0x0 PUSH1 0x60 DUP3 ADD SWAP1 POP PUSH2 0x1812 PUSH1 0x0 DUP4 ADD DUP7 PUSH2 0xECB JUMP JUMPDEST PUSH2 0x181F PUSH1 0x20 DUP4 ADD DUP6 PUSH2 0xECB JUMP JUMPDEST PUSH2 0x182C PUSH1 0x40 DUP4 ADD DUP5 PUSH2 0x17EE JUMP JUMPDEST SWAP5 SWAP4 POP POP POP POP JUMP JUMPDEST PUSH1 0x0 PUSH1 0x40 DUP3 ADD SWAP1 POP PUSH2 0x1849 PUSH1 0x0 DUP4 ADD DUP6 PUSH2 0xE11 JUMP JUMPDEST PUSH2 0x1856 PUSH1 0x20 DUP4 ADD DUP5 PUSH2 0x17EE JUMP JUMPDEST SWAP4 SWAP3 POP POP POP JUMP INVALID LOG2 PUSH5 0x6970667358 0x22 SLT KECCAK256 0x27 0xDD 0xF9 PUSH29 0xC44B9B8A7F67263CDC3050DA05FB573446BF649E6E93FBBC1568E9CB64 PUSH20 0x6F6C634300081100330000000000000000000000 "
		},
		"gasEstimates": {
			"creation": {
				"codeDepositCost": "1258200",
				"executionCost": "infinite",
				"totalCost": "infinite"
			},
			"external": {
				"campaigns(uint256)": "infinite",
				"claim(uint256)": "infinite",
				"count()": "2430",
				"launch(uint256,uint32)": "infinite",
				"pledge(uint256,uint256)": "infinite",
				"pledgedAmount(uint256,address)": "infinite",
				"refund(uint256)": "infinite",
				"timeLeft(uint256)": "infinite",
				"token()": "infinite"
			}
		},
		"methodIdentifiers": {
			"campaigns(uint256)": "141961bc",
			"claim(uint256)": "379607f5",
			"count()": "06661abd",
			"launch(uint256,uint32)": "941e9552",
			"pledge(uint256,uint256)": "fde327be",
			"pledgedAmount(uint256,address)": "aa4fb63a",
			"refund(uint256)": "278ecde1",
			"timeLeft(uint256)": "47cb7a68",
			"token()": "fc0c546a"
		}
	},
	"abi": [
		{
			"inputs": [
				{
					"internalType": "address",
					"name": "_token",
					"type": "address"
				}
			],
			"stateMutability": "nonpayable",
			"type": "constructor"
		},
		{
			"anonymous": false,
			"inputs": [
				{
					"indexed": false,
					"internalType": "uint256",
					"name": "id",
					"type": "uint256"
				}
			],
			"name": "Claim",
			"type": "event"
		},
		{
			"anonymous": false,
			"inputs": [
				{
					"indexed": false,
					"internalType": "uint256",
					"name": "id",
					"type": "uint256"
				},
				{
					"indexed": true,
					"internalType": "address",
					"name": "creator",
					"type": "address"
				},
				{
					"indexed": false,
					"internalType": "uint256",
					"name": "goal",
					"type": "uint256"
				},
				{
					"indexed": false,
					"internalType": "uint32",
					"name": "campaignTime",
					"type": "uint32"
				}
			],
			"name": "Launch",
			"type": "event"
		},
		{
			"anonymous": false,
			"inputs": [
				{
					"indexed": true,
					"internalType": "uint256",
					"name": "id",
					"type": "uint256"
				},
				{
					"indexed": true,
					"internalType": "address",
					"name": "caller",
					"type": "address"
				},
				{
					"indexed": false,
					"internalType": "uint256",
					"name": "amount",
					"type": "uint256"
				}
			],
			"name": "Pledge",
			"type": "event"
		},
		{
			"anonymous": false,
			"inputs": [
				{
					"indexed": false,
					"internalType": "uint256",
					"name": "id",
					"type": "uint256"
				},
				{
					"indexed": true,
					"internalType": "address",
					"name": "caller",
					"type": "address"
				},
				{
					"indexed": false,
					"internalType": "uint256",
					"name": "amount",
					"type": "uint256"
				}
			],
			"name": "Refund",
			"type": "event"
		},
		{
			"anonymous": false,
			"inputs": [
				{
					"indexed": true,
					"internalType": "address",
					"name": "caller",
					"type": "address"
				},
				{
					"indexed": false,
					"internalType": "uint256",
					"name": "random",
					"type": "uint256"
				},
				{
					"indexed": false,
					"internalType": "uint256",
					"name": "amount",
					"type": "uint256"
				}
			],
			"name": "Reward",
			"type": "event"
		},
		{
			"inputs": [
				{
					"internalType": "uint256",
					"name": "",
					"type": "uint256"
				}
			],
			"name": "campaigns",
			"outputs": [
				{
					"internalType": "address",
					"name": "creator",
					"type": "address"
				},
				{
					"internalType": "uint256",
					"name": "goal",
					"type": "uint256"
				},
				{
					"internalType": "uint256",
					"name": "pledged",
					"type": "uint256"
				},
				{
					"internalType": "uint256",
					"name": "startAt",
					"type": "uint256"
				},
				{
					"internalType": "uint256",
					"name": "endAt",
					"type": "uint256"
				},
				{
					"internalType": "bool",
					"name": "claimed",
					"type": "bool"
				}
			],
			"stateMutability": "view",
			"type": "function"
		},
		{
			"inputs": [
				{
					"internalType": "uint256",
					"name": "_id",
					"type": "uint256"
				}
			],
			"name": "claim",
			"outputs": [],
			"stateMutability": "nonpayable",
			"type": "function"
		},
		{
			"inputs": [],
			"name": "count",
			"outputs": [
				{
					"internalType": "uint256",
					"name": "",
					"type": "uint256"
				}
			],
			"stateMutability": "view",
			"type": "function"
		},
		{
			"inputs": [
				{
					"internalType": "uint256",
					"name": "_goal",
					"type": "uint256"
				},
				{
					"internalType": "uint32",
					"name": "_campaignTime",
					"type": "uint32"
				}
			],
			"name": "launch",
			"outputs": [],
			"stateMutability": "nonpayable",
			"type": "function"
		},
		{
			"inputs": [
				{
					"internalType": "uint256",
					"name": "_id",
					"type": "uint256"
				},
				{
					"internalType": "uint256",
					"name": "_amount",
					"type": "uint256"
				}
			],
			"name": "pledge",
			"outputs": [],
			"stateMutability": "nonpayable",
			"type": "function"
		},
		{
			"inputs": [
				{
					"internalType": "uint256",
					"name": "",
					"type": "uint256"
				},
				{
					"internalType": "address",
					"name": "",
					"type": "address"
				}
			],
			"name": "pledgedAmount",
			"outputs": [
				{
					"internalType": "uint256",
					"name": "",
					"type": "uint256"
				}
			],
			"stateMutability": "view",
			"type": "function"
		},
		{
			"inputs": [
				{
					"internalType": "uint256",
					"name": "_id",
					"type": "uint256"
				}
			],
			"name": "refund",
			"outputs": [],
			"stateMutability": "nonpayable",
			"type": "function"
		},
		{
			"inputs": [
				{
					"internalType": "uint256",
					"name": "_id",
					"type": "uint256"
				}
			],
			"name": "timeLeft",
			"outputs": [
				{
					"internalType": "uint256",
					"name": "",
					"type": "uint256"
				}
			],
			"stateMutability": "view",
			"type": "function"
		},
		{
			"inputs": [],
			"name": "token",
			"outputs": [
				{
					"internalType": "contract ERC20",
					"name": "",
					"type": "address"
				}
			],
			"stateMutability": "view",
			"type": "function"
		}
	]
}